:03000000020528CE
:0100030032CA
:03000B0002048C60
:0100130032BA
:01001B0032B2
:0100230032AA
:03002B000204A824
:10002E00C00078B10000D8FCD00022C000C0017919
:10003E002D78A6D8FED9FADAF6D001D00022D293C6
:10004E0012002EC29322A2E792B5A2E692B4A2E5C6
:10005E0092B3A2E492B212004C12002EA2E392B519
:10006E00A2E292B4A2E192B3A2E092B212004C22AA
:10007E00D291020054C291020054C293C2927433C0
:10008E0012008374331200837432120083742812A8
:10009E000083740C1200837401120083C0027A0272
:1000AE00120039D00222E493600612007EA380F67D
:1000BE002244404480020083C0E0E8C4540F443020
:1000CE0012007EE8540F443012007ED0E0223099A8
:1000DE00FDC299F59922C0E0E8C4540F44301200D5
:1000EE00DCE8540F44301200DCD0E022888C88F417
:1000FE0022888C88F222C000C001C0037B59793E51
:10010E00787BD8FED9FADBF6DAF2D003D001D00034
:01011E0022BE
:10011F00C0E0C0D0C000C001C002E4F538F539F529
:10012F003AF53BF53C7A20E533A2E779047830E6DF
:10013F0033F608D9FA79057838E636D4F608D9F9BE
:10014F00DAE5D002D001D000D0D0D0E022C0E0C09C
:10015F00D0C000C001C002E4F538F539F53AF53BDF
:10016F00F53C7A20E533A2E779047830E633F608D8
:10017F00D9FA79057838C0D0E6243320E70224D0A5
:10018F0020E30224FDD0D033F608D9EADAD6D00224
:10019F00D001D000D0D0D0E022C0E0C0D0C000C08D
:1001AF0001C0027A207905C3783CE613C0D030E74E
:1001BF000224D030E30224FDF618D0D0D9EC790414
:1001CF007833E613F618D9FADADBD002D001D00073
:1001DF00D0D0D0E022C0E0C0D0E5302534F530E5F6
:1001EF00313535F531E5323536F532E5333537F51D
:1001FF0033D0D0D0E022C0E0C0D0C3E5309534F585
:10020F0030E5319535F531E5329536F532E53395F3
:10021F0037F533D0D0D0E022C0E0C0D0C3E5309561
:10022F0034E5319535E5329536E53395379202D081
:10023F00D0D0E022C0E0C0D0C3E5349530E535958D
:10024F0031E5369532E53795339202D0D0D0E022A2
:10025F00C0E0C0D0C202C3E53495307014E53595C7
:10026F0031700EE53695327008E53795337002D24E
:10027F0002D0D0D0E02212025F20020302024322FA
:10028F0012025F20020302022722C0E0C0F0C0D09A
:10029F00C000C001C002C003E5308534F0A4F8A946
:1002AF00F0E5318534F0A429F9E435F0FAE530852D
:1002BF0035F0A429F9E5F03AFAE433FBE532853459
:1002CF00F0A42AFAE5F03BFBE5318535F0A42AFAD4
:1002DF00E5F03BFBE5308536F0A42AFAE5F03BFB71
:1002EF00E5338534F0A42BFBE5328535F0A42BFBE9
:1002FF00E5318536F0A42BFBE5308537F0A42BFBD9
:10030F008B338A3289318830D003D002D001D000AC
:10031F00D0D0D0F0D0E022C0E0C0D0C000C001C02B
:10032F0002C003C0047C20E4F8F9FAFBC3E53033C4
:10033F00F530E53133F531E53233F532E53333F569
:10034F0033E833F8E933F9EA33FAEB33FBC3E895D3
:10035F0034E99535EA9536EB95374013E89534F83F
:10036F00E99535F9EA9536FAEB9537FB433001DC21
:10037F00BBD004D003D002D001D000D0D0D0E02227
:10038F0054656D703A78782E78782A4300312E5361
:10039F006F616B2054656D7000322E536F616B204F
:1003AF0054696D6500332E5265666C6F7720546506
:1003BF006D7000342E5265666C6F772054696D65D1
:1003CF0000536F616B2054656D703A00536F616B12
:1003DF002054696D653A005265666C6F77205465DD
:1003EF006D703A005265666C6F772054696D653A8F
:1003FF00005265666C6F77205374617465202020FE
:10040F002000536F616B205374617465202020208E
:10041F0020200054656D702E20496E6372656173E4
:10042F00652020004F76656E20697320636F6F6CB7
:10043F00696E672E00315375727072697365203261
:10044F004D6172696F002020203353746172205701
:10045F0061727320202000202020202020202020C7
:10046F00202020202000E58954F04401F589758C67
:10047F00EA758AE875F4EA75F2E8D2A922B2B732C2
:10048F0075C80075CDA975CC9A75CBA975CA9AE4B4
:10049F00F54DF54ED2ADD2CA22C2CFB2B6C0E0C032
:1004AF00D0D281D282D280E557B4000BE554120529
:1004BF0009C28105578020B4010BE555120509C209
:1004CF008205578012B4020CE556120509C28075D9
:1004DF0057008003755700054DE54D7002054EE539
:1004EF004DB4E811E54EB4030CE4F54DF54EE5506F
:1004FF002401D4F550D0D0D0E032A2E092A4A2E1F2
:10050F0092A5A2E292A6A2E392A7A2E492C5A2E5C7
:09051F0092C4A2E69287A2E72231
:00000001FF
