:10000000C0E0C0D0C000C001C002E4F53CF53DF541
:100010003EF53FF5407A20E533A2E779047830E6F3
:1000200033F608D9FA7905783CE636D4F608D9F9DA
:10003000DAE5D002D001D000D0D0D0E022C0E0C0BC
:10004000D0C000C001C002E4F53CF53DF53EF53FEF
:10005000F5407A20E533A2E779047830E633F608F4
:10006000D9FA7905783CC0D0E6243320E70224D0C1
:1000700020E30224FDD0D033F608D9EADAD6D00244
:10008000D001D000D0D0D0E022C0E0C0D0C000C0AD
:1000900001C0027A207905C37840E613C0D030E76A
:1000A0000224D030E30224FDF618D0D0D9EC790434
:1000B0007833E613F618D9FADADBD002D001D00093
:1000C000D0D0D0E022C0E0C0D0E5302534F530E516
:1000D000313535F531E5323536F532E5333537F53D
:1000E00033D0D0D0E022C0E0C0D0C3E5309534F5A5
:1000F00030E5319535F531E5329536F532E5339514
:1001000037F533D0D0D0E022C0E0C0D0C3E5309581
:1001100034E5319535E5329536E53395379200D0A3
:10012000D0D0E022C0E0C0D0C3E5349530E53595AD
:1001300031E5369532E53795339200D0D0D0E022C4
:10014000C0E0C0D0C200C3E53495307014E53595E9
:1001500031700EE53695327008E53795337002D26E
:1001600000D0D0D0E022120140200003020124225E
:1001700012014020000302010822C0E0C0F0C0D0FC
:10018000C000C001C002C003E5308534F0A4F8A966
:10019000F0E5318534F0A429F9E435F0FAE530854D
:1001A00035F0A429F9E5F03AFAE433FBE532853479
:1001B000F0A42AFAE5F03BFBE5318535F0A42AFAF4
:1001C000E5F03BFBE5308536F0A42AFAE5F03BFB91
:1001D000E5338534F0A42BFBE5328535F0A42BFB09
:1001E000E5318536F0A42BFBE5308537F0A42BFBF9
:1001F0008B338A3289318830D003D002D001D000CD
:10020000D0D0D0F0D0E022C0E0C0D0C000C001C04B
:1002100002C003C0047C20E4F8F9FAFBC3E53033E4
:10022000F530E53133F531E53233F532E53333F589
:1002300033E833F8E933F9EA33FAEB33FBC3E895F3
:1002400034E99535EA9536EB95374013E89534F85F
:10025000E99535F9EA9536FAEB9537FB433001DC41
:10026000BBD004D003D002D001D000D0D0D0E02247
:10027000C00078B10000D8FCD00022C000C00179D5
:100280002D78A6D8FED9FADAF6D001D00022D29382
:10029000120270C29322A2E792B5A2E692B4A2E53E
:1002A00092B3A2E492B212028E120270A2E392B54D
:1002B000A2E292B4A2E192B3A2E092B212028E2222
:1002C000D291020296C291020296C293C2927433F4
:1002D0001202C574331202C574321202C574281298
:1002E00002C5740C1202C574011202C5C0027A0262
:1002F00012027BD00222E49360061202C0A380F6B1
:1003000022444044800202C5C0E0E8C4540F443097
:100310001202C0E8540F44301202C0D0E0223099DB
:10032000FDC299F59922C0E0E8C4540F443012038D
:100330001EE8540F443012031ED0E022C0E07407C0
:1003400014120301D0E0C000A840120308D000C07E
:1003500000A83F120308D000C000A83E120308D036
:1003600000C000A83D120308D000C000A83C120342
:1003700008D000C0E0740714120301D0E0E5405437
:10038000F0C46003020421C0E074201202C0D0E077
:10039000E540540F6003020421C0E074201202C043
:1003A000D0E0E53F54F0C46003020421C0E07420B3
:1003B0001202C0D0E0E53F540F6003020421C0E008
:1003C00074201202C0D0E0E53E54F0C46003020481
:1003D00021C0E074201202C0D0E0E53E540F60035B
:1003E000020421C0E074201202C0D0E0E53D54F0C8
:1003F000C46003020421C0E074201202C0D0E0E512
:100400003D540F6003020421C0E074201202C0D0EA
:10041000E0E53C54F0C47009C0E074201202C0D082
:10042000E022C0E0740714120301D0E0C0E07420A1
:100430001202C0D0E0C000A83F120308D000C000E4
:10044000A83E120308D000C0E0742E1202C0D0E013
:10045000C000A83D120308D000C000A83C12030849
:10046000D0002254656D703A78780079DE78A6D88D
:10047000FED9FA438780759852759B00759AF4757A
:100480009B1E223099FDC299F59922E493600612D1
:10049000031EA380F622D2A2C2A322C0E079007A72
:1004A00008E833F892A1D2A3A2A2E933F9C2A3DAF1
:1004B000F0D0E022200D0A00C0E0740614120303FD
:1004C000D0E0C0007802120308D00075300075310A
:1004D00000753200753300753400753500753600CF
:1004E00075370085383085393175340075351075AC
:1004F000360075370012017A7534F6753527753672
:100500000075370012020775341175350175360014
:100510007537001200E6120000C000A83D12032645
:10052000D000C000A83C120326D000D282D280D2D4
:1005300081E544B4000BE5411205BDC2820544804B
:1005400020B4010BE5421205BDC28005448012B4FF
:10055000020CE5431205BDC2817544008003754459
:100560000022C0027A6412027BD002C0027A6412B6
:10057000027BD002C0027A6412027BD002C0027AEF
:100580006412027BD002C0027A6412027BD002C0E5
:10059000027A6412027BD002C0027A6412027BD01B
:1005A00002C0027A6412027BD002C0027A64120294
:1005B0007BD002C0027A6412027BD00222A2E092B7
:1005C00083A2E19285A2E29287A2E392C4A2E4927E
:1005D000C5A2E59284A2E69286A2E792A722C0F97C
:1005E000A4B0999282F8809075817F12046B1204F6
:1005F0009675E60075E700758E111202CAC2A078E2
:100600000112049B788012049BE95403F539785554
:1006100012049B8938D2A09005DED2827408C4549B
:100620000F93F5411205BDC282C0E074011412039C
:1006300003D0E0C083C082C0E09004631202F6D011
:0A064000E0D082D08312048B80B357
:00000001FF
