:030000000205E313
:10000300C0E0C0D0C000C001C002E4F53CF53DF53E
:100013003EF53FF5407A20E533A2E779047830E6F0
:1000230033F608D9FA7905783CE636D4F608D9F9D7
:10003300DAE5D002D001D000D0D0D0E022C0E0C0B9
:10004300D0C000C001C002E4F53CF53DF53EF53FEC
:10005300F5407A20E533A2E779047830E633F608F1
:10006300D9FA7905783CC0D0E6243320E70224D0BE
:1000730020E30224FDD0D033F608D9EADAD6D00241
:10008300D001D000D0D0D0E022C0E0C0D0C000C0AA
:1000930001C0027A207905C37840E613C0D030E767
:1000A3000224D030E30224FDF618D0D0D9EC790431
:1000B3007833E613F618D9FADADBD002D001D00090
:1000C300D0D0D0E022C0E0C0D0E5302534F530E513
:1000D300313535F531E5323536F532E5333537F53A
:1000E30033D0D0D0E022C0E0C0D0C3E5309534F5A2
:1000F30030E5319535F531E5329536F532E5339511
:1001030037F533D0D0D0E022C0E0C0D0C3E530957E
:1001130034E5319535E5329536E53395379200D0A0
:10012300D0D0E022C0E0C0D0C3E5349530E53595AA
:1001330031E5369532E53795339200D0D0D0E022C1
:10014300C0E0C0D0C200C3E53495307014E53595E6
:1001530031700EE53695327008E53795337002D26B
:1001630000D0D0D0E0221201432000030201272255
:1001730012014320000302010B22C0E0C0F0C0D0F3
:10018300C000C001C002C003E5308534F0A4F8A963
:10019300F0E5318534F0A429F9E435F0FAE530854A
:1001A30035F0A429F9E5F03AFAE433FBE532853476
:1001B300F0A42AFAE5F03BFBE5318535F0A42AFAF1
:1001C300E5F03BFBE5308536F0A42AFAE5F03BFB8E
:1001D300E5338534F0A42BFBE5328535F0A42BFB06
:1001E300E5318536F0A42BFBE5308537F0A42BFBF6
:1001F3008B338A3289318830D003D002D001D000CA
:10020300D0D0D0F0D0E022C0E0C0D0C000C001C048
:1002130002C003C0047C20E4F8F9FAFBC3E53033E1
:10022300F530E53133F531E53233F532E53333F586
:1002330033E833F8E933F9EA33FAEB33FBC3E895F0
:1002430034E99535EA9536EB95374013E89534F85C
:10025300E99535F9EA9536FAEB9537FB433001DC3E
:10026300BBD004D003D002D001D000D0D0D0E02244
:10027300C00078B10000D8FCD00022C000C00179D2
:100283002D78A6D8FED9FADAF6D001D00022D2937F
:10029300120273C29322A2E792B5A2E692B4A2E538
:1002A30092B3A2E492B2120291120273A2E392B544
:1002B300A2E292B4A2E192B3A2E092B2120291221C
:1002C300D291020299C291020299C293C2927433EB
:1002D3001202C874331202C874321202C87428128C
:1002E30002C8740C1202C874011202C8C0027A0256
:1002F30012027ED00222E49360061202C3A380F6A8
:1003030022444044800202C8C0E0E8C4540F443091
:100313001202C3E8540F44301202C3D0E022C0E0FB
:10032300740714120304D0E0C000A84012030BD0DA
:1003330000C000A83F12030BD000C000A83E120368
:100343000BD000C000A83D12030BD000C000A83C96
:1003530012030BD000C0E0740714120304D0E0E5CD
:100363004054F0C46003020406C0E074201202C3C8
:10037300D0E0E540540F6003020406C0E07420128D
:1003830002C3D0E0E53F54F0C46003020406C0E0BA
:1003930074201202C3D0E0E53F540F600302040649
:1003A300C0E074201202C3D0E0E53E54F0C4600301
:1003B300020406C0E074201202C3D0E0E53E540FED
:1003C3006003020406C0E074201202C3D0E0E53DDE
:1003D30054F0C46003020406C0E074201202C3D0C8
:1003E300E0E53D540F6003020406C0E074201202EE
:1003F300C3D0E0E53C54F0C47009C0E0742012029D
:10040300C3D0E022C0E0740714120304D0E0C0E0BC
:1004130074201202C3D0E0C000A83F12030BD00027
:10042300C000A83E12030BD000C0E0742E1202C31A
:10043300D0E0C000A83D12030BD000C000A83C12BE
:10044300030BD0002254656D703A78780079DE781A
:10045300A6D8FED9FA438780759852759B00759A82
:10046300F4759B1E223099FDC299F59922E493609D
:1004730006120468A380F622D2A2C2A322C0E079A6
:10048300007A08E833F892A1D2A3A2A2E933F9C211
:10049300A3DAF0D0E022200D0A00C0E0E8C4540F34
:1004A3004430120468E8540F4430120468D0E02248
:1004B300C0E0740614120306D0E0C00078021203F1
:1004C3000BD000753000753100753200753300753F
:1004D3003400753500753600753700853830853939
:1004E3003175340075351075360075370012017D8E
:1004F3007534F675352775360075370012020A759F
:1005030034117535017536007537001200E9120094
:1005130003C000A83D12049DD000C000A83C1204F3
:100523009DD000D282D280D281E544B4000BE54154
:100533001205B8C28205448020B4010BE5421205BE
:10054300B8C28005448012B4020CE5431205B8C258
:1005530081754400800375440022C0027A6412024C
:100563007ED002C0027A6412027ED002C0027A6494
:1005730012027ED002C0027A6412027ED002C0024E
:100583007A6412027ED002C0027A6412027ED00222
:10059300C0027A6412027ED002C0027A6412027E22
:1005A300D002C0027A6412027ED002C0027A6412C0
:1005B300027ED00222A2E09283A2E19285A2E2927D
:1005C30087A2E392C4A2E492C5A2E59284A2E69232
:1005D30086A2E792A722C0F9A4B0999282F88090EC
:1005E30075817F12045012047B75E60075E7007570
:1005F3008E111202CDC2A0780112048078801204F9
:1006030080E95403F53978551204808938D2A090D3
:1006130005D9D2827408C4540F93F5411205B8C2A8
:1006230082C0E0740114120306D0E0C083C082C00C
:10063300E09004481202F9D0E0D082D08312047013
:0206430080B382
:00000001FF
