:03000000020548AE
:0100030032CA
:03000B000204806C
:0100130032BA
:01001B0032B2
:0100230032AA
:03002B0002049C30
:10002E00C00078B10000D8FCD00022C000C0017919
:10003E002D78A6D8FED9FADAF6D001D00022D293C6
:10004E0012002EC29322A2E792B5A2E692B4A2E5C6
:10005E0092B3A2E492B212004C12002EA2E392B519
:10006E00A2E292B4A2E192B3A2E092B212004C22AA
:10007E00D291020054C291020054C293C2927433C0
:10008E0012008374331200837432120083742812A8
:10009E000083740C1200837401120083C0027A0272
:1000AE00120039D00222E493600612007EA380F67D
:1000BE002244404480020083C0E0E8C4540F443020
:1000CE0012007EE8540F443012007ED0E0223099A8
:1000DE00FDC299F59922C0E0E8C4540F44301200D5
:1000EE00DCE8540F44301200DCD0E022888C88F417
:1000FE0022888C88F222C000C001C0037B59793E51
:10010E00787BD8FED9FADBF6DAF2D003D001D00034
:01011E0022BE
:10011F00C0E0C0D0C000C001C002E4F538F539F529
:10012F003AF53BF53C7A20E533A2E779047830E6DF
:10013F0033F608D9FA79057838E636D4F608D9F9BE
:10014F00DAE5D002D001D000D0D0D0E022C0E0C09C
:10015F00D0C000C001C002E4F538F539F53AF53BDF
:10016F00F53C7A20E533A2E779047830E633F608D8
:10017F00D9FA79057838C0D0E6243320E70224D0A5
:10018F0020E30224FDD0D033F608D9EADAD6D00224
:10019F00D001D000D0D0D0E022C0E0C0D0C000C08D
:1001AF0001C0027A207905C3783CE613C0D030E74E
:1001BF000224D030E30224FDF618D0D0D9EC790414
:1001CF007833E613F618D9FADADBD002D001D00073
:1001DF00D0D0D0E022C0E0C0D0E5302534F530E5F6
:1001EF00313535F531E5323536F532E5333537F51D
:1001FF0033D0D0D0E022C0E0C0D0C3E5309534F585
:10020F0030E5319535F531E5329536F532E53395F3
:10021F0037F533D0D0D0E022C0E0C0D0C3E5309561
:10022F0034E5319535E5329536E53395379202D081
:10023F00D0D0E022C0E0C0D0C3E5349530E535958D
:10024F0031E5369532E53795339202D0D0D0E022A2
:10025F00C0E0C0D0C202C3E53495307014E53595C7
:10026F0031700EE53695327008E53795337002D24E
:10027F0002D0D0D0E02212025F20020302024322FA
:10028F0012025F20020302022722C0E0C0F0C0D09A
:10029F00C000C001C002C003E5308534F0A4F8A946
:1002AF00F0E5318534F0A429F9E435F0FAE530852D
:1002BF0035F0A429F9E5F03AFAE433FBE532853459
:1002CF00F0A42AFAE5F03BFBE5318535F0A42AFAD4
:1002DF00E5F03BFBE5308536F0A42AFAE5F03BFB71
:1002EF00E5338534F0A42BFBE5328535F0A42BFBE9
:1002FF00E5318536F0A42BFBE5308537F0A42BFBD9
:10030F008B338A3289318830D003D002D001D000AC
:10031F00D0D0D0F0D0E022C0E0C0D0C000C001C02B
:10032F0002C003C0047C20E4F8F9FAFBC3E53033C4
:10033F00F530E53133F531E53233F532E53333F569
:10034F0033E833F8E933F9EA33FAEB33FBC3E895D3
:10035F0034E99535EA9536EB95374013E89534F83F
:10036F00E99535F9EA9536FAEB9537FB433001DC21
:10037F00BBD004D003D002D001D000D0D0D0E02227
:10038F0054656D703A78782E78782A4300312E5361
:10039F006F616B2054656D7000322E536F616B204F
:1003AF0054696D6500332E5265666C6F7720546506
:1003BF006D7000342E5265666C6F772054696D65D1
:1003CF0000536F616B2054656D703A00536F616B12
:1003DF002054696D653A005265666C6F77205465DD
:1003EF006D703A005265666C6F772054696D653A8F
:1003FF00005265666C6F7720537461746500536F9C
:10040F00616B2053746174650054656D702E2049C3
:10041F006E637265617365004F76656E2069732038
:10042F00636F6F6C696E672E0031537572707269EE
:10043F00736520324D6172696F0020202033537431
:10044F00617220576172732020200020202020200D
:10045F0020202020202020202000E58954F0440176
:10046F00F589758CEA758AE875F4EA75F2E8D2A910
:10047F0022B2B73275C80075CDA975CC9A75CBA9C4
:10048F0075CA9AE4F54DF54ED2ADD2CA22C2CFB29B
:10049F00B6C0E0C0D0054DE54D7002054EE54DB438
:1004AF00E811E54EB4030CE4F54DF54EE55024018B
:1004BF00D4F550D0D0D0E032D2A2C2A322C0E0797E
:1004CF00007A08E833F892A1D2A3A2A2E933F9C2C5
:1004DF00A3DAF0D0E0223099FDC299F59922E49386
:1004EF0060061200DCA380F622C0E074061412002E
:1004FF00C1D0E0C000A83C1200C6D000C000A83B8D
:10050F001200C6D000C000A83A1200C6D000C0002A
:10051F00A8391200C6D000C000A8381200C6D000FB
:10052F002279DE78A6D8FED9FA438780759852755E
:10053F009B00759AF4759B1E2275817F75E6007579
:10054F00E700D2AF1200887544007545007546006C
:10055F00754700755000755402755300120530121F
:10056F0004C712046912071C02096B12115FC00243
:10057F007A32120039D002C0E07401141200C1D0D7
:10058F00E0C083C082C0E09004181200B4D0E0D065
:10059F0082D08312070D120796120702120722C389
:1005AF00E544953F50C512071CC2CA7400F550D2DE
:1005BF00CA8000C0E07401141200C1D0E0C083C033
:1005CF0082C0E090040D1200B4D0E0D082D083122C
:1005DF00070D12070212072212068F12069F12062C
:1005EF00DA80D0C0E07401141200C1D0E0C083C023
:1005FF0082C0E09004181200B4D0E0D082D08312F1
:10060F000702120722C3E546953F50D712071C1267
:10061F000918C2CA7400F550D2CA12070D12070288
:10062F00120722C0E07401141200C1D0E0C083C0D1
:10063F0082C0E09004001200B4D0E0D082D08312C8
:10064F0006B91206C91206EE80D0C0E0740114126A
:10065F0000C1D0E0C083C082C0E09004271200B474
:10066F00D0E0D082D0831207021207221206810235
:10067F00067EC3743C953F50030206591211C922DE
:10068F00E5442405F530C3E530953F50140206B11B
:10069F00E544C39405F530C3E53F9530500302069A
:1006AF00B52212071C2212071F22E5462405F5303A
:1006BF00C3E530953F50EA0206B1E546C39405F510
:1006CF0030C3E53F953050D90206B5E550B5450E1C
:1006DF0012071FC2CA7400F550D2CA0205F222E5F2
:1006EF0050B5470E12071CC2CA7400F550D2CA0289
:1006FF000659221207B4E530F53F2202057A20840D
:10070F00053084FD80012212071C02096BC2812271
:10071F00D28122855038C0E07401141200BFD0E09E
:10072F00C000A8391200C6D000C0E0740314120034
:10073F00BFD0E0C000A8381200C6D000C0E0740CD3
:10074F00141200BFD0E0853F3012011FC000A8383F
:10075F001200C6D000C0E0740A141200BFD0E0C06F
:10076F0000A8391200C6D000C0E0740F141200BFE9
:10077F00D0E074DF12007EC0E07410141200BFD0FE
:10078F00E0744312007E22C0E0C0D0C37460955065
:10079F00500E7450953F5002800612071C02096BD1
:1007AF00D0D0D0E022C0E0C0D0C2A078011204CCDB
:1007BF0078801204CCE95403F53E78551204CC89A5
:1007CF003DD2A0C0027AFA120039D002C0027AFAE2
:1007DF00120039D0021207F0E530F53FD0D0D0E04B
:1007EF0022E47530007531007532007533007534B1
:1007FF0000753500753600753700E53DF530E53E7F
:10080F00F53175349A75350175360075370012025A
:10081F00997534FF75350375360075370012032649
:10082F0075341175350175360075370085305212E4
:10083F00020512011F22C0E0C0D0C2A0780112042D
:10084F00CC78901204CCE95403F53E78551204CCC1
:10085F00893DD2A0C0027AFA120039D002C0027AC2
:10086F00FA120039D00275300075310075320075FB
:10087F003300E53DF530E53EF53112011F120898C2
:10088F00E530F540D0D0D0E022C0E0C0D0853D307B
:10089F00853E3175320075330075341D7535007521
:1008AF00360075370012029975346675350875363E
:1008BF00007537001201E475346475350075360024
:1008CF0075370012032612011FE530D0D0D0E02279
:1008DF00C000A8391200E4D000C000A8381200E40C
:1008EF00D000740D1200DC740A1200DC221210A367
:1008FF00D28CB28CC0027AFA120039D002C0027ABE
:10090F00FA120039D002C28C221210A3D28CC0026C
:10091F007AFA120039D002C0027AFA120039D002E4
:10092F00C28C221210A3E4B4060122D28CB28CC066
:10093F00027A64120039D002C28C0480EA22C0E02D
:10094F007406141200C1D0E0C000A8391200C6D03E
:10095F0000C0E07409141200C1D0E022740112002B
:10096F0083C0027A32120039D002C0E0740114122F
:10097F0000C1D0E0C083C082C0E090039C1200B4DD
:10098F00D0E0D082D083C0E07401141200BFD0E059
:10099F00C083C082C0E09003A81200B4D0E0D08220
:1009AF00D083C0027A32120039D0022083063083FE
:1009BF00FD020A13C0027A32120039D002208206D9
:1009CF003082FD020A16C0027A32120039D002209C
:1009DF0087063087FD020A1CC0027A32120039D016
:1009EF00022084263084FD0209F97401120083C0AD
:1009FF00027A32120039D00212071F120483755087
:100A0F000002057A020A1F020B1D020979020C1B54
:100A1F007401120083C0027A32120039D002C0E092
:100A2F007401141200C1D0E0C083C082C0E09003F3
:100A3F00D01200B4D0E0D082D083C0E07401141281
:100A4F0000BFD0E0C000A8451200C6D000C0E074BF
:100A5F0003141200BFD0E0C000A8441200C6D0009B
:100A6F0020830FC0027A32120039D0022083030292
:100A7F000AA820820FC0027A32120039D0022082D7
:100A8F0003020ACC20870FC0027A32120039D0023B
:100A9F0020870302096B020A6F8544307531007598
:100AAF0032007533007534017535007536007537B2
:100ABF00001201E4853044120AF0020A6F854430B7
:100ACF007531007532007533007534017535007559
:100ADF003600753700120205853044120AF0020AFB
:100AEF006F85443012011FC0E07401141200BFD093
:100AFF00E0C000A8391200C6D000C0E07403141281
:100B0F0000BFD0E0C000A8381200C6D00022740188
:100B1F00120083C0027A32120039D002C0E0740191
:100B2F00141200C1D0E0C083C082C0E09003DB127A
:100B3F0000B4D0E0D082D083C0E07401141200BFA3
:100B4F00D0E0C000A8461200C6D000C0E074031465
:100B5F001200BFD0E0C000A8451200C6D00020830D
:100B6F000FC0027A32120039D002208303020BA683
:100B7F0020820FC0027A32120039D0022082030283
:100B8F000BCA20870FC0027A32120039D002208799
:100B9F000302096B020B6D8545307531007532000C
:100BAF0075330075340175350075360075370012D1
:100BBF0001E4853045120BEE020B6D854530753122
:100BCF0000753200753300753401753500753600C8
:100BDF00753700120205853045120BEE020B6D853D
:100BEF00453012011FC0E07401141200BFD0E0C0E5
:100BFF0000A8391200C6D000C0E07403141200BF61
:100C0F00D0E0C000A8381200C6D000227401120034
:100C1F0083C0027A32120039D002C0E0740114127C
:100C2F0000C1D0E0C083C082C0E09003B41200B412
:100C3F00D0E0D082D083C0E07401141200BFD0E0A6
:100C4F00C083C082C0E09003C21200B4D0E0D08253
:100C5F00D083C0027A32120039D00220830630834B
:100C6F00FD020CACC0027A32120039D0022082068B
:100C7F003082FD020CAFC0027A32120039D002204E
:100C8F0087063087FD020CB5C0027A32120039D0C8
:100C9F000220840F3084FD0209F902057A020CB894
:100CAF00020DBF020C2902096B7401120083C002EE
:100CBF007A32120039D002C0E07401141200C1D090
:100CCF00E0C083C082C0E09003E61200B4D0E0D051
:100CDF0082D083C0E07401141200BFD0E0C000A81E
:100CEF00471200C6D000C0E07403141200BFD0E05A
:100CFF00C000A8461200C6D00020830FC0027A326F
:100D0F00120039D002208303020D9B20820FC002F4
:100D1F007A32120039D002208203020D4120870F50
:100D2F00C0027A32120039D002208703020C1B0254
:100D3F000D088546307531007532007533007534F6
:100D4F00017535007536007537001202058530467E
:100D5F00120D65020D08854630753100753200752C
:100D6F00330012011FC0E07401141200BFD0E0C0A5
:100D7F0000A8391200C6D000C0E07403141200BFDF
:100D8F00D0E0C000A8381200C6D0002285463075CA
:100D9F0031007532007533007534017535007536C5
:100DAF00007537001201E4853046120D65020D08FB
:100DBF007401120083C0027A32120039D002C0E0EF
:100DCF007401141200C1D0E0C083C082C0E0900350
:100DDF00F31200B4D0E0D082D083C0E074011412BB
:100DEF0000BFD0E0C000A8481200C6D000C0E07419
:100DFF0003141200BFD0E0C000A8471200C6D000F5
:100E0F0020830FC0027A32120039D00220830302EE
:100E1F000E4820820FC0027A32120039D00220828F
:100E2F0003020EA220870FC0027A32120039D002BD
:100E3F00208703020C1B020E0F854730753100759A
:100E4F00320075330075340175350075360075370E
:100E5F00001201E4853047120E6C020E0F854730E9
:100E6F0075310075320075330012011FC0E0740137
:100E7F00141200BFD0E0C000A8391200C6D000C0C5
:100E8F00E07403141200BFD0E0C000A8381200C6EF
:100E9F00D0002285473075310075320075330075EB
:100EAF00340175350075360075370012020585302F
:100EBF0047120E6C020E0F7401120083C0027A32B9
:100ECF00120039D002C0E07401141200C1D0E0C08A
:100EDF0083C082C0E09004381200B4D0E0D082D03A
:100EEF0083C0E07401141200BFD0E0C083C082C081
:100EFF00E09004491200B4D0E0D082D08320830662
:100F0F003083FD0210B62082063082FD02115F2071
:100F1F0087EB3087FD0211C9C000785B1200FAD051
:100F2F0000C000781E1200FFD00022C000786D12A2
:100F3F0000FAD000C00078101200FFD00022C000CD
:100F4F00787D1200FAD000C00078181200FFD00090
:100F5F0022C00078841200FAD000C0007838120046
:100F6F00FFD00022C00078911200FAD000C00078A4
:100F7F00CC1200FFD00022C000789D1200FAD000E2
:100F8F00C00078D21200FFD00022C00078A8120053
:100F9F00FAD000C000788D1200FFD00022C0007878
:100FAF00AD1200FAD000C00078671200FFD0002207
:100FBF00C00078B61200FAD000C00078681200FFA7
:100FCF00D00022C00078BE1200FAD000C0007873A3
:100FDF001200FFD00022C00078C21200FAD000C069
:100FEF0000781C1200FFD00022C00078C81200FA4F
:100FFF00D000C00078E61200FFD00022C00078CEEB
:10100F001200FAD000C00078E91200FFD00022C011
:10101F000078D41200FAD000C00078471200FFD039
:10102F000022C000788B1200FAD000C000783F1267
:10103F0000FFD00022C00078971200FAD000C00045
:10104F0078E81200FFD00022C00078A31200FAD077
:10105F0000C000784C1200FFD00022C00078B212FE
:10106F0000FAD000C00078061200FFD00022C000A6
:10107F0078B21200FAD000C00078061200FFD0003C
:10108F0022C00078BA1200FAD000C000788C12008B
:10109F00FFD00022C00078EA1200FAD000C000781A
:1010AF00E81200FFD0002212104412123C12105707
:1010BF0012123C12107D12123C12105712123C12D7
:1010CF000FE512126A120FE512126A121090121225
:1010DF006AC0027A50120039D00212104412123C28
:1010EF0012105712123C120FAC12123C1210441273
:1010FF00123C12109012126A12109012126A1210F1
:10110F007D12126AC0027A50120039D002121044B6
:10111F0012123C12105712123C12107D12123C1276
:10112F00105712123C12107D1212531210901212FD
:10113F006A120FAC12126A12104412125312104498
:10114F0012123C12109012126A12107D12126A22A1
:10115F00120FD2121253120FD2121253C0027A5020
:10116F00120039D002120FD212126AC0027A501234
:10117F000039D002120FAC121253120FD2121253A7
:10118F00C0027A50120039D002120FF812126AC040
:10119F00027A50120039D002C0027A50120039D0B0
:1011AF0002C0027A50120039D002C0027A501200E7
:1011BF0039D002120F7312128122120F27121281CD
:1011CF00120F73121281120F60121253120F4D125F
:1011DF00126A120F3A12126A120FAC121281120F08
:1011EF0073121253C0027A50120039D002120F60DC
:1011FF00121253120F4D121253120F3A12125312A0
:10120F000FAC121281120F73121253C0027A5012C6
:10121F000039D002120F60121253120F4D121253D7
:10122F00120F60121253120F3A12128122D28CC077
:10123F00027A01120104D002C28CC0027A5012004D
:10124F0039D00222D28CC0027A02120104D002C21B
:10125F008CC0027A50120039D00222D28CC0027A8E
:10126F0003120104D002C28CC0027A50120039D08E
:10127F000222D28CC0027A04120104D002C28CC0A6
:10128F00027A50120039D00222D28CC0027A081290
:10129F000104D002C28CC0027A50120039D002224F
:1012AF00D28CC0027A12120104D002C28CC0027A10
:0712BF0050120039D0022299
:00000001FF
