:030000000204FFF8
:0100030032CA
:03000B00020439B3
:0100130032BA
:01001B0032B2
:0100230032AA
:03002B0002045379
:10002E00C00078B10000D8FCD00022C000C0017919
:10003E002D78A6D8FED9FADAF6D001D00022D293C6
:10004E0012002EC29322A2E792B5A2E692B4A2E5C6
:10005E0092B3A2E492B212004C12002EA2E392B519
:10006E00A2E292B4A2E192B3A2E092B212004C22AA
:10007E00D291020054C291020054C293C2927433C0
:10008E0012008374331200837432120083742812A8
:10009E000083740C1200837401120083C0027A0272
:1000AE00120039D00222E493600612007EA380F67D
:1000BE002244404480020083C0E0E8C4540F443020
:1000CE0012007EE8540F443012007ED0E0223099A8
:1000DE00FDC299F59922C0E0E8C4540F44301200D5
:0C00EE00DCE8540F44301200DCD0E022AB
:1000FA00C0E0C0D0C000C001C002E4F538F539F54F
:10010A003AF53BF53C7A20E533A2E779047830E604
:10011A0033F608D9FA79057838E636D4F608D9F9E3
:10012A00DAE5D002D001D000D0D0D0E022C0E0C0C1
:10013A00D0C000C001C002E4F538F539F53AF53B04
:10014A00F53C7A20E533A2E779047830E633F608FD
:10015A00D9FA79057838C0D0E6243320E70224D0CA
:10016A0020E30224FDD0D033F608D9EADAD6D00249
:10017A00D001D000D0D0D0E022C0E0C0D0C000C0B2
:10018A0001C0027A207905C3783CE613C0D030E773
:10019A000224D030E30224FDF618D0D0D9EC790439
:1001AA007833E613F618D9FADADBD002D001D00098
:1001BA00D0D0D0E022C0E0C0D0E5302534F530E51B
:1001CA00313535F531E5323536F532E5333537F542
:1001DA0033D0D0D0E022C0E0C0D0C3E5309534F5AA
:1001EA0030E5319535F531E5329536F532E5339519
:1001FA0037F533D0D0D0E022C0E0C0D0C3E5309587
:10020A0034E5319535E5329536E53395379202D0A6
:10021A00D0D0E022C0E0C0D0C3E5349530E53595B2
:10022A0031E5369532E53795339202D0D0D0E022C7
:10023A00C0E0C0D0C202C3E53495307014E53595EC
:10024A0031700EE53695327008E53795337002D273
:10025A0002D0D0D0E02212023A20020302021E2269
:10026A0012023A20020302020222C0E0C0F0C0D009
:10027A00C000C001C002C003E5308534F0A4F8A96B
:10028A00F0E5318534F0A429F9E435F0FAE5308552
:10029A0035F0A429F9E5F03AFAE433FBE53285347E
:1002AA00F0A42AFAE5F03BFBE5318535F0A42AFAF9
:1002BA00E5F03BFBE5308536F0A42AFAE5F03BFB96
:1002CA00E5338534F0A42BFBE5328535F0A42BFB0E
:1002DA00E5318536F0A42BFBE5308537F0A42BFBFE
:1002EA008B338A3289318830D003D002D001D000D2
:1002FA00D0D0D0F0D0E022C0E0C0D0C000C001C051
:10030A0002C003C0047C20E4F8F9FAFBC3E53033E9
:10031A00F530E53133F531E53233F532E53333F58E
:10032A0033E833F8E933F9EA33FAEB33FBC3E895F8
:10033A0034E99535EA9536EB95374013E89534F864
:10034A00E99535F9EA9536FAEB9537FB433001DC46
:10035A00BBD004D003D002D001D000D0D0D0E0224C
:10036A0054656D703A78782E78782A4300312E5386
:10037A006F616B2054656D7000322E536F616B2074
:10038A0054696D6500332E5265666C6F772054652B
:10039A006D7000342E5265666C6F772054696D65F6
:1003AA0000536F616B2054656D703A00536F616B37
:1003BA002054696D653A005265666C6F7720546502
:1003CA006D703A005265666C6F772054696D653AB4
:1003DA00005265666C6F7720537461746500536FC1
:1003EA00616B2053746174650054656D702E2049E9
:1003FA006E637265617365004F76656E206973205E
:10040A00636F6F6C696E672E0020202020202020E9
:10041A002020202020202000E58954F04401F5897D
:10042A00758CEA758AE875F4EA75F2E8D2A922327F
:10043A0075C80075CDA975CC9A75CBA975CA9AE409
:10044A00F54FF550D2ADD2CA22C2CFB2B6C0E0C083
:10045A00D0054FE54F70020550E54FB4F411E55051
:10046A00B4010CE4F54FF550E5522401D4F552D00D
:10047A00D0D0E032D2A2C2A322C0E079007A08E842
:10048A0033F892A1D2A3A2A2E933F9C2A3DAF0D037
:10049A00E0223099FDC299F59922E4936006120090
:1004AA00DCA380F622C0E07406141200C1D0E0C0BA
:1004BA0000A83C1200C6D000C000A83B1200C6D05B
:1004CA0000C000A83A1200C6D000C000A839120025
:1004DA00C6D000C000A8381200C6D0002279DE7843
:1004EA00A6D8FED9FA438780759852759B00759AEB
:1004FA00F4759B1E2275817F75E60075E700D2AF01
:10050A0012008875440075450075460075470075E8
:10051A0048007549007552007555001204E7120427
:10052A007E1204221206BC0207F2C0E07401141201
:10053A0000C1D0E0C083C082C0E09003F31200B4CF
:10054A00D0E0D082D0831206A21206C2E53F8544CB
:10055A00F084E5F0B400D31206BCC2CA7400F552A6
:10056A00D2CA8000C0E07401141200C1D0E0C08376
:10057A00C082C0E09003E81200B4D0E0D082D083F9
:10058A001206A21206C212062F12063F12067A801D
:10059A00D3C0E07401141200C1D0E0C083C082C08D
:1005AA00E09003F31200B4D0E0D082D0831206A206
:1005BA001206C2C3E547953F50D71206BCC2CA7499
:1005CA0000F552D2CA1206A21206C2C0E074011481
:1005DA001200C1D0E0C083C082C0E09003DB1200E9
:1005EA00B4D0E0D082D08312065912066912068E60
:1005FA0080D3C0E07401141200C1D0E0C083C0826D
:10060A00C0E09004021200B4D0E0D082D083120677
:10061A00A21206C2120624020621C3743C953F5058
:10062A00030205FC22E5442405F530C3E530953F75
:10063A005014020651E544C39405F530C3E53F95CD
:10064A00305003020655221206BC221206BF22E5CA
:10065A00472405F530C3E530953F50EA020651E5D7
:10066A0047C39405F530C3E53F953050D902065586
:10067A00E552B5460E1206BFC2CA7400F552D2CA76
:10068A0002059B22E552B5490E1206BCC2CA740085
:10069A00F552D2CA0205FC22120726E530F53F229E
:1006AA000205342084053084FD8001221206BC0232
:1006BA0006B9C2A522D2A522C0E07401141200BF55
:1006CA00D0E0C000A8521200C6D000C0E0740C14DA
:1006DA001200BFD0E0853F301200FAC000A83812DD
:1006EA0000C6D000C0E0740F141200BFD0E074DF5F
:1006FA0012007EC0E07410141200BFD0E0744312DE
:10070A00007E22C0E0C0D0C3746095525009743292
:10071A00953F50031206BCD0D0D0E022C0E0C0D032
:10072A00C2A078011204837880120483E95403F585
:10073A003E7855120483893DD2A0C0027AFA12008B
:10074A0039D002C0027AFA120039D002120762E5E1
:10075A0030F53FD0D0D0E022E47530007531007515
:10076A0032007533007534007535007536007537FB
:10077A0000E53DF530E53EF53175349A753501757C
:10078A0036007537001202747534FF7535037536F5
:10079A00007537001203017534117535017536007D
:1007AA007537008530541201E01200FA22C000A801
:1007BA00391200E4D000C000A8381200E4D0007456
:1007CA000D1200DC740A1200DC22C0E07406141256
:1007DA0000C1D0E0C000A8391200C6D000C0E07441
:1007EA0009141200C1D0E0227401120083C0027AF7
:1007FA0032120039D002C0E07401141200C1D0E0F4
:10080A00C083C082C0E09003771200B4D0E0D082E7
:10081A00D083C0E07401141200BFD0E0C083C0824C
:10082A00C0E09003831200B4D0E0D082D083C0022B
:10083A007A32120039D0022083063083FD020897EB
:10084A00C0027A32120039D0022082063082FD02BA
:10085A00089AC0027A32120039D0022087063087FD
:10086A00FD0208A0C0027A32120039D00220842385
:10087A003084FD0208807401120083C0027A3212A9
:10088A000039D00212043A7552000205340208A354
:10089A000209C8020800020A787401120083C00221
:1008AA007A32120039D002C0E07401141200C1D0A9
:1008BA00E0C083C082C0E09003AB1200B4D0E0D0A5
:1008CA0082D083C0E07401141200BFD0E0C000A837
:1008DA00451200C6D000C0E07403141200BFD0E075
:1008EA00C000A8441200C6D00020830FC0027A328A
:1008FA00120039D00220830302092C20820FC00281
:10090A007A32120039D00220820302097920870F35
:10091A00C0027A32120039D0022087030207F2029B
:10092A0008F3E544B4990CE545B4020EE4F545F53F
:10093A004480132401D4F544800CE5452401D4F500
:10094A0045E4F5448000C0E07401141200BFD0E011
:10095A00C000A8451200C6D000C0E07403141200FB
:10096A00BFD0E0C000A8441200C6D0000208F3E5D8
:10097A0044B4000DE545B4000F75450275449980ED
:10098A00142499D4F544800DE5452499D4F5457489
:10099A0099F5448000C0E07401141200BFD0E0C091
:1009AA0000A8451200C6D000C0E07403141200BFAC
:1009BA00D0E0C000A8441200C6D0000208F37401B7
:1009CA00120083C0027A32120039D002C0E07401E8
:1009DA00141200C1D0E0C083C082C0E09003B612F6
:1009EA0000B4D0E0D082D083C0E07401141200BFFA
:1009FA00D0E0C000A8461200C6D00020830FC00273
:100A0A007A32120039D002208303020A3E20820F72
:100A1A00C0027A32120039D002208203020A5B2015
:100A2A00870FC0027A32120039D0022087030207E8
:100A3A00F2020A05E5462401D4F546C0E074011421
:100A4A001200BFD0E0C000A8461200C6D000020AB9
:100A5A0005E5462499D4F546C0E07401141200BF96
:100A6A00D0E0C000A8461200C6D000020A057401F0
:100A7A00120083C0027A32120039D002C0E0740137
:100A8A00141200C1D0E0C083C082C0E090038F126C
:100A9A0000B4D0E0D082D083C0E07401141200BF49
:100AAA00D0E0C083C082C0E090039D1200B4D0E0C1
:100ABA00D082D083C0027A32120039D00220830653
:100ACA003083FD020B09C0027A32120039D00220AB
:100ADA0082063082FD020B0CC0027A32120039D033
:100AEA00022087063087FD020B12C0027A321200FA
:100AFA0039D00220840F3084FD02088002053402B6
:100B0A000B15020C3A020A860207F27401120083DC
:100B1A00C0027A32120039D002C0E0740114120005
:100B2A00C1D0E0C083C082C0E09003C11200B4D03B
:100B3A00E0D082D083C0E07401141200BFD0E0C0BC
:100B4A0000A8481200C6D000C0E07403141200BF07
:100B5A00D0E0C000A8471200C6D00020830FC00210
:100B6A007A32120039D002208303020B9E20820FB0
:100B7A00C0027A32120039D002208203020BEB2023
:100B8A00870FC0027A32120039D002208703020A84
:100B9A0078020B65E547B4990CE548B4020EE4F512
:100BAA0048F54780132401D4F547800CE548240111
:100BBA00D4F548E4F5478000C0E07401141200BF80
:100BCA00D0E0C000A8481200C6D000C0E0740314E8
:100BDA001200BFD0E0C000A8471200C6D000020B26
:100BEA0065E547B4000DE548B4000F75480275473E
:100BFA009980142499D4F547800DE5482499D4F5B1
:100C0A00487499F5478000C0E07401141200BFD0FF
:100C1A00E0C000A8481200C6D000C0E07403141255
:100C2A0000BFD0E0C000A8471200C6D000020B6582
:100C3A007401120083C0027A32120039D002C0E075
:100C4A007401141200C1D0E0C083C082C0E09003D6
:100C5A00CE1200B4D0E0D082D083C0E07401141266
:100C6A0000BFD0E0C000A8491200C6D00020830F00
:100C7A00C0027A32120039D002208303020CB0205B
:100C8A00820FC0027A32120039D002208203020C8B
:100C9A00CD20870FC0027A32120039D00220870392
:100CAA00020A78020C77E5492401D4F549C0E074B8
:100CBA0001141200BFD0E0C000A8491200C6D0003B
:100CCA00020C77E5492499D4F549C0E0740114125D
:100CDA0000BFD0E0C000A8491200C6D000020C77BD
:00000001FF
