:030000000204B344
:0100030032CA
:03000B000203EB02
:0100130032BA
:01001B0032B2
:0100230032AA
:03002B00020405C7
:10002E00C00078B10000D8FCD00022C000C0017919
:10003E002D78A6D8FED9FADAF6D001D00022D293C6
:10004E0012002EC29322A2E792B5A2E692B4A2E5C6
:10005E0092B3A2E492B212004C12002EA2E392B519
:10006E00A2E292B4A2E192B3A2E092B212004C22AA
:10007E00D291020054C291020054C293C2927433C0
:10008E0012008374331200837432120083742812A8
:10009E000083740C1200837401120083C0027A0272
:1000AE00120039D00222E493600612007EA380F67D
:1000BE002244404480020083C0E0E8C4540F443020
:1000CE0012007EE8540F443012007ED0E0223099A8
:1000DE00FDC299F59922C0E0E8C4540F44301200D5
:0C00EE00DCE8540F44301200DCD0E022AB
:1000FA00C0E0C0D0C000C001C002E4F538F539F54F
:10010A003AF53BF53C7A20E533A2E779047830E604
:10011A0033F608D9FA79057838E636D4F608D9F9E3
:10012A00DAE5D002D001D000D0D0D0E022C0E0C0C1
:10013A00D0C000C001C002E4F538F539F53AF53B04
:10014A00F53C7A20E533A2E779047830E633F608FD
:10015A00D9FA79057838C0D0E6243320E70224D0CA
:10016A0020E30224FDD0D033F608D9EADAD6D00249
:10017A00D001D000D0D0D0E022C0E0C0D0C000C0B2
:10018A0001C0027A207905C3783CE613C0D030E773
:10019A000224D030E30224FDF618D0D0D9EC790439
:1001AA007833E613F618D9FADADBD002D001D00098
:1001BA00D0D0D0E022C0E0C0D0E5302534F530E51B
:1001CA00313535F531E5323536F532E5333537F542
:1001DA0033D0D0D0E022C0E0C0D0C3E5309534F5AA
:1001EA0030E5319535F531E5329536F532E5339519
:1001FA0037F533D0D0D0E022C0E0C0D0C3E5309587
:10020A0034E5319535E5329536E53395379202D0A6
:10021A00D0D0E022C0E0C0D0C3E5349530E53595B2
:10022A0031E5369532E53795339202D0D0D0E022C7
:10023A00C0E0C0D0C202C3E53495307014E53595EC
:10024A0031700EE53695327008E53795337002D273
:10025A0002D0D0D0E02212023A20020302021E2269
:10026A0012023A20020302020222C0E0C0F0C0D009
:10027A00C000C001C002C003E5308534F0A4F8A96B
:10028A00F0E5318534F0A429F9E435F0FAE5308552
:10029A0035F0A429F9E5F03AFAE433FBE53285347E
:1002AA00F0A42AFAE5F03BFBE5318535F0A42AFAF9
:1002BA00E5F03BFBE5308536F0A42AFAE5F03BFB96
:1002CA00E5338534F0A42BFBE5328535F0A42BFB0E
:1002DA00E5318536F0A42BFBE5308537F0A42BFBFE
:1002EA008B338A3289318830D003D002D001D000D2
:1002FA00D0D0D0F0D0E022C0E0C0D0C000C001C051
:10030A0002C003C0047C20E4F8F9FAFBC3E53033E9
:10031A00F530E53133F531E53233F532E53333F58E
:10032A0033E833F8E933F9EA33FAEB33FBC3E895F8
:10033A0034E99535EA9536EB95374013E89534F864
:10034A00E99535F9EA9536FAEB9537FB433001DC46
:10035A00BBD004D003D002D001D000D0D0D0E0224C
:10036A0054494D453A00312E536F616B2054656DE7
:10037A007000322E536F616B2054696D6500332E05
:10038A005265666C6F772054656D7000342E526525
:10039A00666C6F772054696D6500536F616B2054EA
:1003AA00656D703A00536F616B2054696D653A0050
:1003BA005265666C6F772054656D703A00526566B7
:1003CA006C6F772054696D653A00E58954F04401F1
:1003DA00F589758CEA758AE875F4EA75F2E8D2A9A6
:1003EA00223275C80075CDA975CC9A75CBA975CA84
:1003FA009AE4F548F549D2ADD2CA22C2CFB2B6C004
:10040A00E0C0D00548E54870020549E548B4201324
:10041A00E549B4030EB28CE4F548F549E54C2401EC
:10042A00D4F54CD0D0D0E032D2A2C2A322C0E07917
:10043A00007A08E833F892A1D2A3A2A2E933F9C25A
:10044A00A3DAF0D0E0223099FDC299F59922E4931B
:10045A0060061200DCA380F622C0E07406141200C3
:10046A00C1D0E0C000A83C1200C6D000C000A83B22
:10047A001200C6D000C000A83A1200C6D000C000C0
:10048A00A8391200C6D000C000A8381200C6D00091
:10049A002279DE78A6D8FED9FA43878075985275F4
:1004AA009B00759AF4759B1E2275817F75E600750F
:1004BA00E700D2AF120088754C00754200754360A0
:1004CA00754400754560754600C0E0740114120059
:1004DA00C1D0E0C083C082C0E090036A1200B4D0E9
:1004EA00E0D082D083C0E0740B141200C1D0E0C007
:1004FA0000A84C1200C6D00012049B120432120348
:10050A00D41203ECD2B7D2A5E54CC0E0740B141296
:10051A0000C1D0E0C000A84C1200C6D000B543E824
:10052A00120561120575C2CA7400F54CD2CAE54CAF
:10053A00C0E0740B141200C1D0E0C000A84C120035
:10054A00C6D000B545E8120564120575C2CA740022
:10055A00F54CD2CA020512C2B722D2B722D2A5C01E
:10056A00027AFF120039D002C2A522D2A5C0027AAD
:10057A00FF120039D002C2A522D2A5B2A5C0027AC2
:09058A00FF120039D002C2A522C3
:00000001FF
