:030000000206678E
:0100030032CA
:03000B00020526C5
:0100130032BA
:01001B0032B2
:0100230032AA
:03002B0002054289
:10002E00C00078B10000D8FCD00022C000C0017919
:10003E002D78A6D8FED9FADAF6D001D00022D293C6
:10004E0012002EC29322A2E792B5A2E692B4A2E5C6
:10005E0092B3A2E492B212004C12002EA2E392B519
:10006E00A2E292B4A2E192B3A2E092B212004C22AA
:10007E00D291020054C291020054C293C2927433C0
:10008E0012008374331200837432120083742812A8
:10009E000083740C1200837401120083C0027A0272
:1000AE00120039D00222E493600612007EA380F67D
:1000BE002244404480020083C0E0E8C4540F443020
:1000CE0012007EE8540F443012007ED0E0223099A8
:1000DE00FDC299F59922C0E0E8C4540F44301200D5
:1000EE00DCE8540F44301200DCD0E022888C88F417
:1000FE0022888C88F222C000C001C0037B59793E51
:10010E00787BD8FED9FADBF6DAF2D003D001D00034
:01011E0022BE
:10011F00C0E0C0D0C000C001C002E4F538F539F529
:10012F003AF53BF53C7A20E533A2E779047830E6DF
:10013F0033F608D9FA79057838E636D4F608D9F9BE
:10014F00DAE5D002D001D000D0D0D0E022C0E0C09C
:10015F00D0C000C001C002E4F538F539F53AF53BDF
:10016F00F53C7A20E533A2E779047830E633F608D8
:10017F00D9FA79057838C0D0E6243320E70224D0A5
:10018F0020E30224FDD0D033F608D9EADAD6D00224
:10019F00D001D000D0D0D0E022C0E0C0D0C000C08D
:1001AF0001C0027A207905C3783CE613C0D030E74E
:1001BF000224D030E30224FDF618D0D0D9EC790414
:1001CF007833E613F618D9FADADBD002D001D00073
:1001DF00D0D0D0E022C0E0C0D0E5302534F530E5F6
:1001EF00313535F531E5323536F532E5333537F51D
:1001FF0033D0D0D0E022C0E0C0D0C3E5309534F585
:10020F0030E5319535F531E5329536F532E53395F3
:10021F0037F533D0D0D0E022C0E0C0D0C3E5309561
:10022F0034E5319535E5329536E53395379202D081
:10023F00D0D0E022C0E0C0D0C3E5349530E535958D
:10024F0031E5369532E53795339202D0D0D0E022A2
:10025F00C0E0C0D0C202C3E53495307014E53595C7
:10026F0031700EE53695327008E53795337002D24E
:10027F0002D0D0D0E02212025F20020302024322FA
:10028F0012025F20020302022722C0E0C0F0C0D09A
:10029F00C000C001C002C003E5308534F0A4F8A946
:1002AF00F0E5318534F0A429F9E435F0FAE530852D
:1002BF0035F0A429F9E5F03AFAE433FBE532853459
:1002CF00F0A42AFAE5F03BFBE5318535F0A42AFAD4
:1002DF00E5F03BFBE5308536F0A42AFAE5F03BFB71
:1002EF00E5338534F0A42BFBE5328535F0A42BFBE9
:1002FF00E5318536F0A42BFBE5308537F0A42BFBD9
:10030F008B338A3289318830D003D002D001D000AC
:10031F00D0D0D0F0D0E022C0E0C0D0C000C001C02B
:10032F0002C003C0047C20E4F8F9FAFBC3E53033C4
:10033F00F530E53133F531E53233F532E53333F569
:10034F0033E833F8E933F9EA33FAEB33FBC3E895D3
:10035F0034E99535EA9536EB95374013E89534F83F
:10036F00E99535F9EA9536FAEB9537FB433001DC21
:10037F00BBD004D003D002D001D000D0D0D0E02227
:10038F0054656D703A78782E78782A4300312E5361
:10039F006F616B2054656D7000322E536F616B204F
:1003AF0054696D6500332E5265666C6F7720546506
:1003BF006D7000342E5265666C6F772054696D65D1
:1003CF0000536F616B2054656D703A00536F616B12
:1003DF002054696D653A005265666C6F77205465DD
:1003EF006D703A005265666C6F772054696D653A8F
:1003FF00005265666C6F77205374617465202020FE
:10040F002000536F616B205374617465202020208E
:10041F0020200054656D702E20496E6372656173E4
:10042F00652020004F76656E20697320636F6F6CB7
:10043F00696E672E00352E537461727420536F6E80
:10044F006700362E456E6420536F6E670020315261
:10045F0052202032534D20203353570020344D4D1E
:10046F0020203554542020364850005265666C6F5A
:10047F0077204F76656E20436F6E00456E74657200
:10048F0020506173733A205F5F5F5F0057524F4E8A
:10049F00472050415353574F524400414343455314
:1004AF00532044454E49454400434F52524543540F
:1004BF002050415353574F524400414343455353E8
:1004CF00204752414E54454400312E426C756520F1
:1004DF0020322E477265656E00332E5265642020E0
:1004EF00342E59656C6C6F77003100320033003455
:1004FF00002020202020202020202020202020002D
:10050F00E58954F04401F589758CEA758AE875F42C
:10051F00EA75F2E8D2A922B2B73275C80075CDA933
:10052F0075CC9A75CBA975CA9AE4F54DF54ED2AD37
:10053F00D2CA22C2CFB2B6C0E0C0D0D281D282D24C
:10054F0080E557B4000BE5541205A2C28105578010
:10055F0020B4010BE5551205A2C28205578012B4D3
:10056F00020CE5561205A2C280755700800375571D
:10057F0000054DE54D7002054EE54DB4F410E54E06
:10058F00B4010BE4F54DF54EE5502401F550D0D0F4
:10059F00D0E032A2E092A4A2E192A5A2E292A6A29A
:1005AF00E392A7A2E492C5A2E592C4A2E69287A223
:1005BF00E722D2A2C2A322C0E079007A08E833F87A
:1005CF0092A1D2A3A2A2E933F9C2A3DAF0D0E0221A
:1005DF003099FDC299F59922E49360061205DFA3C5
:1005EF0080F622C0E07406141200C1D0E0C000A84B
:1005FF003C1200C6D000C000A83B1200C6D000C0FD
:10060F0000A83A1200C6D000C000A8391200C6D008
:10061F0000C000A8381200C6D0002279DE78A6D814
:10062F00FED9FA438780759852759B00759AF475B9
:10063F009B1E2290065DE538540F93F555E538C49F
:10064F00540F93F556E4E539540F93F55422C0F93E
:10065F00A4B0999282F8809075817F75E60075E756
:10066F0000758E11D2AF1200887544007545007564
:10067F004600754700755000755802755900755A38
:10068F0041755B41755C41755D4175530012062ADA
:10069F001205C112050F12085E021FB6C0E07401E9
:1006AF00141200C1D0E0C083C082C0E090042212B7
:1006BF0000B4D0E0D082D08312084F1208DB1208AA
:1006CF0044120864120642C3E544953F50CE120A05
:1006DF006512085EC2CA7400F550D2CAC0E0740138
:1006EF00141200C1D0E0C083C082C0E09004111288
:1006FF0000B4D0E0D082D08312084F120844120801
:10070F00641206421207C71207D712081280CD12C1
:10071F00084FC0E07401141200C1D0E0C083C08242
:10072F00C0E09004221200B4D0E0D082D08312082F
:10073F0044120864120642C3E546953F50D1120891
:10074F005E120A65C2CA7400F550D2CA12084F125F
:10075F000844120864120642C0E07401141200C16A
:10076F00D0E0C083C082C0E09004001200B4D0E09B
:10077F00D082D0831207F112080112082B80CDC04E
:10078F00E07401141200C1D0E0C083C082C0E090B9
:10079F0004331200B4D0E0D082D083120844120880
:1007AF00641206421207BC1219BD020ADBC3743C65
:1007BF00953F500302078E22E5442401F530C3E52F
:1007CF0030953F50140207E9E544C39401F530C357
:1007DF00E53F953050030207ED2212085E22120802
:1007EF006122E5462401F530C3E530953F50EA021A
:1007FF0007E9E546C39401F530C3E53F953050D97D
:10080F000207EDC3E54595505011120861C2CA7435
:10081F0000F550D2CA120A6502071E22C3E547959A
:10082F0050501112085EC2CA7400F550D2CA120A93
:10083F007F02078E2212098AE530F53F220206ABAE
:10084F002084053084FD80012212085E020ADBC27B
:10085F00B622D2B62285503012011FC0E0740114A7
:10086F001200BFD0E0C000A8391200C6D000C0E00F
:10087F007403141200BFD0E0C000A8381200C6D015
:10088F0000853F3012011FC0E0740A141200BFD060
:10089F00E0C000A8391200C6D000C0E0740C1412DA
:1008AF0000BFD0E0C000A8381200C6D000C0E0746E
:1008BF000F141200BFD0E074DF12007EC0E074107E
:1008CF00141200BFD0E0744312007E22C0E0C0D0EB
:1008DF00C374609550500E7432953F5002800612CB
:1008EF00085E020ADBD0D0D0E022C0E0C0D0C2A0A8
:1008FF0078011205C678801205C6E95403F53E78D3
:10090F00551205C6893DD2A0C0027AFA120039D01D
:10091F0002C0027AFA120039D002120935E530F519
:10092F003FD0D0D0E022E475300075310075320031
:10093F00753300753400753500753600753700E571
:10094F003DF530E53EF53175349A75350175360054
:10095F007537001202997534FF75350375360075BA
:10096F00370012032675341175350175360075374A
:10097F000085305212020512011F22C0E0C0D0C202
:10098F00A078011205C678901205C6E95403F53E0A
:10099F0078551205C6893DD2A0C0027AFA120039E5
:1009AF00D002C0027AFA120039D0027530007531C8
:1009BF0000753200753300E53DF530E53EF5311237
:1009CF00011F1209DDE530F540D0D0D0E022C0E0A4
:1009DF00C0D0853D30853E3175320075330075349A
:1009EF001D7535007536007537001202997534661E
:1009FF007535087536007537001201E47534647566
:100A0F00350075360075370012032612011FE530C9
:100A1F00D0D0D0E022C000A8391200E4D000C0002E
:100A2F00A8381200E4D00074201205DF122472746B
:100A3F000D1205DF740A1205DF22121BECD28CB2E5
:100A4F008CC0027AFA120039D002C0027AFA120070
:100A5F0039D002C28C22121BECD28CC0027AFA124D
:100A6F000039D002C0027AFA120039D002C28C22A9
:100A7F00121BECD28CC0027AFA120039D002C002DB
:100A8F007AFA120039D002C0027AFA120039D00273
:100A9F00C0027AFA120039D002C0027AFA12003973
:100AAF00D002C0027AFA120039D002C28C22C0E002
:100ABF007406141200C1D0E0C000A8391200C6D0CD
:100ACF0000C0E07409141200C1D0E02274011200BA
:100ADF0083C0027A32120039D002C0E074011412BE
:100AEF0000C1D0E0C083C082C0E090039C1200B46C
:100AFF00D0E0D082D083C0E07401141200BFD0E0E8
:100B0F00C083C082C0E09003A81200B4D0E0D082AE
:100B1F00D083C0027A32120039D00220830630838C
:100B2F00FD020B8FC0027A32120039D002208206EA
:100B3F003082FD020B92C0027A32120039D00220AD
:100B4F0087063087FD020B98C0027A32120039D027
:100B5F00022084323084FD020B697401120083C0BD
:100B6F00027A32120039D00212086112052975502B
:100B7F000012197EC0027A32120039D0020206AB7F
:100B8F00020B9B020C9F020AE9020DA374011200D3
:100B9F0083C0027A32120039D002C0E074011412FD
:100BAF0000C1D0E0C083C082C0E09003D01200B477
:100BBF00D0E0D082D083C0E07401141200BFD0E027
:100BCF0085443012011FC000A8391200C6D000C0E2
:100BDF00E07403141200BFD0E0C000A8381200C6A2
:100BEF00D00020830FC0027A32120039D002208346
:100BFF0003020C2A20820FC0027A32120039D0026F
:100C0F00208203020C4E20870FC0027A3212003965
:100C1F00D002208703020ADB020BF18544307531C5
:100C2F000075320075330075340175350075360067
:100C3F007537001201E4853044120C72020BF185F6
:100C4F0044307531007532007533007534017535D8
:100C5F0000753600753700120205853044120C728C
:100C6F00020BF185443012011FC0E0740114120011
:100C7F00BFD0E0C000A8391200C6D000C0E0740396
:100C8F00141200BFD0E0C000A8381200C6D0002256
:100C9F007401120083C0027A32120039D002C0E010
:100CAF007401141200C1D0E0C083C082C0E0900371
:100CBF00DB1200B4D0E0D082D083C0E074011412F4
:100CCF0000BFD0E085453012011FC000A8391200C7
:100CDF00C6D000C0E07403141200BFD0E0C000A85B
:100CEF00381200C6D00020830FC0027A32120039AA
:100CFF00D002208303020D2E20820FC0027A3212FF
:100D0F000039D002208203020D5220870FC0027AD1
:100D1F0032120039D002208703020ADB020CF5855C
:100D2F0045307531007532007533007534017535F6
:100D3F00007536007537001201E4853045120D76C7
:100D4F00020CF5854530753100753200753300752D
:100D5F003401753500753600753700120205853080
:100D6F0045120D76020CF585453012011FC0E07457
:100D7F0001141200BFD0E0C000A8391200C6D00085
:100D8F00C0E07403141200BFD0E0C000A8381200F6
:100D9F00C6D000227401120083C0027A32120039C9
:100DAF00D002C0E07401141200C1D0E0C083C08231
:100DBF00C0E09003B41200B4D0E0D082D083C0E082
:100DCF007401141200BFD0E0C083C082C0E0900352
:100DDF00C21200B4D0E0D082D083C0027A321200A7
:100DEF0039D0022083063083FD020E31C0027A32E1
:100DFF00120039D0022082063082FD020E34C0026A
:100E0F007A32120039D0022087063087FD020E3A5F
:100E1F00C0027A32120039D00220840C3084FD02D5
:100E2F000B69020E3D020F4A020DB10210577401F9
:100E3F00120083C0027A32120039D002C0E074016E
:100E4F00141200C1D0E0C083C082C0E09003E6124C
:100E5F0000B4D0E0D082D083C0E07401141200BF80
:100E6F00D0E085463012011FC000A8391200C6D04D
:100E7F0000C0E07403141200BFD0E0C000A8381205
:100E8F0000C6D00020830FC0027A32120039D00280
:100E9F00208303020F2620820FC0027A32120039FC
:100EAF00D002208203020ECC20870FC0027A3212AA
:100EBF000039D002208703020DA3020E938546301E
:100ECF007531007532007533007534017535007555
:100EDF003600753700120205853046120EF0020EED
:100EEF009385463075310075320075330012011F3E
:100EFF00C0E07401141200BFD0E0C000A839120086
:100F0F00C6D000C0E07403141200BFD0E0C000A828
:100F1F00381200C6D0002285463075310075320078
:100F2F00753300753401753500753600753700124D
:100F3F0001E4853046120EF0020E93740112008305
:100F4F00C0027A32120039D002C0E07401141200CC
:100F5F00C1D0E0C083C082C0E09003F31200B4D0D0
:100F6F00E0D082D083C0E07401141200BFD0E085BE
:100F7F00473012011FC000A8391200C6D000C0E0D0
:100F8F007403141200BFD0E0C000A8381200C6D0FE
:100F9F000020830FC0027A32120039D0022083035F
:100FAF00020FD920820FC0027A32120039D00220EC
:100FBF00820302103320870FC0027A32120039D019
:100FCF0002208703020DA3020FA085473075310061
:100FDF00753200753300753401753500753600753F
:100FEF0037001201E4853047120FFD020FA085472D
:100FFF003075310075320075330012011FC0E07477
:10100F0001141200BFD0E0C000A8391200C6D000F2
:10101F00C0E07403141200BFD0E0C000A838120063
:10102F00C6D0002285473075310075320075330008
:10103F007534017535007536007537001202058558
:10104F003047120FFD020FA07401120083C0027A05
:10105F0032120039D002C0E07401141200C1D0E086
:10106F00C083C082C0E09004441200B4D0E0D082AC
:10107F00D083C0E07401141200BFD0E0C083C082DF
:10108F00C0E09004511200B4D0E0D082D083C002EF
:10109F007A32120039D0022083063083FD0210E528
:1010AF00C0027A32120039D0022082063082FD024D
:1010BF0010E8C0027A32120039D00220870630873A
:1010CF00FD022248C0027A32120039D00220840C6D
:1010DF003084FD020B690210EE02153602109D746A
:1010EF0001120083C0027A32120039D002C0E074BC
:1010FF0001141200C1D0E0C083C082C0E090045C34
:10110F001200B4D0E0D082D083C0E074011412007A
:10111F00BFD0E0C083C082C0E090046B1200B4D097
:10112F00E0D082D083C0E07401141200C1D0E0C0BF
:10113F00E0742A12007ED0E0C0E07406141200C1E1
:10114F00D0E0C0E0742012007ED0E0C0E0740B1439
:10115F001200C1D0E0C0E0742012007ED0E0C0E0E9
:10116F007401141200BFD0E0C0E0742012007ED0D2
:10117F00E0C0E07406141200BFD0E0C0E07420128B
:10118F00007ED0E0C0E0740B141200BFD0E0C0E0CE
:10119F00742012007ED0E0C0027A64120039D002AF
:1011AF002083063083FD0211DFC0027A64120039FA
:1011BF00D0022082063082FD121C4EC0027A6412C9
:1011CF000039D0022087D03087FD755801020ADB25
:1011DF00C0E07401141200C1D0E0C0E0742012000E
:1011EF007ED0E0C0E07406141200C1D0E0C0E074FD
:1011FF002A12007ED0E0C0E0740B141200C1D0E0C0
:10120F00C0E0742012007ED0E0C0E0740114120020
:10121F00BFD0E0C0E0742012007ED0E0C0E07406C2
:10122F00141200BFD0E0C0E0742012007ED0E0C0E6
:10123F00E0740B141200BFD0E0C0E0742012007EE7
:10124F00D0E0C0027A64120039D0022083063083C6
:10125F00FD02128AC0027A64120039D0022082067F
:10126F003082FD121CF7C0027A64120039D00220BE
:10127F0087D03087FD755802020ADBC0E074011475
:10128F001200C1D0E0C0E0742012007ED0E0C0E0B8
:10129F007406141200C1D0E0C0E0742012007ED09A
:1012AF00E0C0E0740B141200C1D0E0C0E0742A1249
:1012BF00007ED0E0C0E07401141200BFD0E0C0E0A7
:1012CF00742012007ED0E0C0E07406141200BFD06C
:1012DF00E0C0E0742012007ED0E0C0E0740B141266
:1012EF0000BFD0E0C0E0742012007ED0E0C0027AD0
:1012FF0064120039D0022083063083FD021335C0FB
:10130F00027A64120039D0022082063082FD121D4B
:10131F0061C0027A64120039D0022087D03087FD75
:10132F00755803020ADBC0E07401141200C1D0E04B
:10133F00C0E0742012007ED0E0C0E07406141200EA
:10134F00C1D0E0C0E0742012007ED0E0C0E0740B8A
:10135F00141200C1D0E0C0E0742012007ED0E0C0B3
:10136F00E07401141200BFD0E0C0E0742A12007EB6
:10137F00D0E0C0E07406141200BFD0E0C0E07420CB
:10138F0012007ED0E0C0E0740B141200BFD0E0C09A
:10139F00E0742012007ED0E0C0027A64120039D0CF
:1013AF00022083063083FD0213E0C0027A6412002C
:1013BF0039D0022082063082FD121DD4C0027A6419
:1013CF00120039D0022087D03087FD755804020AE9
:1013DF00DBC0E07401141200C1D0E0C0E074201231
:1013EF00007ED0E0C0E07406141200C1D0E0C0E06F
:1013FF00742012007ED0E0C0E0740B141200C1D034
:10140F00E0C0E0742012007ED0E0C0E0740114123E
:10141F0000BFD0E0C0E0742012007ED0E0C0E074C6
:10142F0006141200BFD0E0C0E0742A12007ED0E094
:10143F00C0E0740B141200BFD0E0C0E074201200A3
:10144F007ED0E0C0027A64120039D00220830630C9
:10145F0083FD02148BC0027A64120039D0022082FD
:10146F00063082FD121E41C0027A64120039D0028A
:10147F002087D03087FD755805020ADBC0E0740164
:10148F00141200C1D0E0C0E0742012007ED0E0C082
:10149F00E07406141200C1D0E0C0E0742012007E88
:1014AF00D0E0C0E0740B141200C1D0E0C0E0742093
:1014BF0012007ED0E0C0E07401141200BFD0E0C073
:1014CF00E0742012007ED0E0C0E07406141200BF5A
:1014DF00D0E0C0E0742012007ED0E0C0E0740B14A6
:1014EF001200BFD0E0C0E0742A12007ED0E0C0022C
:1014FF007A64120039D0022083063083FD02113442
:10150F00C0027A64120039D0022082063082FD12A6
:10151F001EBDC0027A64120039D0022087D03087F6
:10152F00FD755806020ADB7401120083C0027A327D
:10153F00120039D002C0E07401141200C1D0E0C013
:10154F0083C082C0E090045C1200B4D0E0D082D09F
:10155F0083C0E07401141200BFD0E0C083C082C00A
:10156F00E090046B1200B4D0E0D082D083C0E0745E
:10157F0001141200C1D0E0C0E0742A12007ED0E046
:10158F00C0E07406141200C1D0E0C0E07420120055
:10159F007ED0E0C0E0740B141200C1D0E0C0E07444
:1015AF002012007ED0E0C0E07401141200BFD0E022
:1015BF00C0E0742012007ED0E0C0E0740614120068
:1015CF00BFD0E0C0E0742012007ED0E0C0E0740B0A
:1015DF00141200BFD0E0C0E0742012007ED0E0C033
:1015EF00027A64120039D0022083063083FD02167E
:1015FF0027C0027A64120039D0022082063082FDA1
:10160F00121C4EC0027A64120039D0022087D030EB
:10161F0087FD755901020ADBC0E07401141200C185
:10162F00D0E0C0E0742012007ED0E0C0E074061459
:10163F001200C1D0E0C0E0742A12007ED0E0C0E0FA
:10164F00740B141200C1D0E0C0E0742012007ED0E1
:10165F00E0C0E07401141200BFD0E0C0E0742012AB
:10166F00007ED0E0C0E07406141200BFD0E0C0E0EE
:10167F00742012007ED0E0C0E0740B141200BFD0B3
:10168F00E0C0E0742012007ED0E0C0027A64120045
:10169F0039D0022083063083FD0216D2C0027A644D
:1016AF00120039D0022082063082FD121CF7C002D0
:1016BF007A64120039D0022087D03087FD75590225
:1016CF00020ADBC0E07401141200C1D0E0C0E07464
:1016DF002012007ED0E0C0E07406141200C1D0E0EA
:1016EF00C0E0742012007ED0E0C0E0740B14120032
:1016FF00C1D0E0C0E0742A12007ED0E0C0E07401D7
:10170F00141200BFD0E0C0E0742012007ED0E0C001
:10171F00E07406141200BFD0E0C0E0742012007E07
:10172F00D0E0C0E0740B141200BFD0E0C0E0742012
:10173F0012007ED0E0C0027A64120039D0022083FA
:10174F00063083FD02177DC0027A64120039D00281
:10175F002082063082FD121D61C0027A64120039A8
:10176F00D0022087D03087FD755903020ADBC0E015
:10177F007401141200C1D0E0C0E0742012007ED0BA
:10178F00E0C0E07406141200C1D0E0C0E074201273
:10179F00007ED0E0C0E0740B141200C1D0E0C0E0B6
:1017AF00742012007ED0E0C0E07401141200BFD08C
:1017BF00E0C0E0742A12007ED0E0C0E0740614127C
:1017CF0000BFD0E0C0E0742012007ED0E0C0E07413
:1017DF000B141200BFD0E0C0E0742012007ED0E0E6
:1017EF00C0027A64120039D0022083063083FD02D2
:1017FF001828C0027A64120039D002208206308283
:10180F00FD121DD4C0027A64120039D0022087D095
:10181F003087FD755904020ADBC0E0740114120011
:10182F00C1D0E0C0E0742012007ED0E0C0E07406AA
:10183F00141200C1D0E0C0E0742012007ED0E0C0CE
:10184F00E0740B141200C1D0E0C0E0742012007ECF
:10185F00D0E0C0E07401141200BFD0E0C0E07420EB
:10186F0012007ED0E0C0E07406141200BFD0E0C0BA
:10187F00E0742A12007ED0E0C0E0740B141200BF97
:10188F00D0E0C0E0742012007ED0E0C0027A641273
:10189F000039D0022083063083FD0218D3C0027AAC
:1018AF0064120039D0022082063082FD121E41C020
:1018BF00027A64120039D0022087D03087FD755923
:1018CF0005020ADBC0E07401141200C1D0E0C0E0D1
:1018DF00742012007ED0E0C0E07406141200C1D054
:1018EF00E0C0E0742012007ED0E0C0E0740B141250
:1018FF0000C1D0E0C0E0742012007ED0E0C0E074E0
:10190F0001141200BFD0E0C0E0742012007ED0E0BE
:10191F00C0E07406141200BFD0E0C0E074201200C3
:10192F007ED0E0C0E0740B141200BFD0E0C0E074B2
:10193F002A12007ED0E0C0027A64120039D0022051
:10194F0083063083FD02157CC0027A64120039D001
:10195F00022082063082FD121EBDC0027A64120080
:10196F0039D0022087D03087FD755906020ADBE592
:10197F0058B40106121C4E0219B3B40206121CF71A
:10198F000219B3B40306121D610219B3B40406128F
:10199F001DD40219B3B40506121E410219B3B406C1
:1019AF0003121EBDC0027A32120039D00222E5584E
:1019BF00B40106121C4E0219F2B40206121CF702F1
:1019CF0019F2B40306121D610219F2B40406121DB6
:1019DF00D40219F2B40506121E410219F2B406031D
:1019EF00121EBDC0027A32120039D00222740112C7
:1019FF000083C0027A32120039D002C0E0740114A1
:101A0F001200C1D0E0C083C082C0E090045C12001D
:101A1F00B4D0E0D082D083C0E07401141200BFD0E4
:101A2F00E0C083C082C0E090046B1200B4D0E0D05D
:101A3F0082D0832083063083FD021C4E2082063025
:101A4F0082FD021CF72087EB3087FD021D61C0006D
:101A5F00785B1200FAD000C000781E1200FFD00091
:101A6F0022C000786D1200FAD000C000781012006A
:101A7F00FFD00022C000787D1200FAD000C000789D
:101A8F00181200FFD00022C00078841200FAD00094
:101A9F00C00078381200FFD00022C00078911200E9
:101AAF00FAD000C00078CC1200FFD00022C000781E
:101ABF009D1200FAD000C00078D21200FFD0002291
:101ACF00C00078A81200FAD000C000788D1200FF75
:101ADF00D00022C00078AD1200FAD000C0007867A5
:101AEF001200FFD00022C00078B61200FAD000C05A
:101AFF000078681200FFD00022C00078BE1200FAF2
:101B0F00D000C00078731200FFD00022C00078C24E
:101B1F001200FAD000C000781C1200FFD00022C0C3
:101B2F000078C81200FAD000C00078E61200FFD08B
:101B3F000022C00078CE1200FAD000C00078E9125F
:101B4F0000FFD00022C00078D41200FAD000C000ED
:101B5F0078471200FFD00022C00078971200FAD009
:101B6F0000C00078E81200FFD00022C000788B126E
:101B7F0000FAD000C000783F1200FFD00022C00052
:101B8F0078971200FAD000C00078E81200FFD0005A
:101B9F0022C00078A31200FAD000C000784C1200C7
:101BAF00FFD00022C00078B21200FAD000C0007837
:101BBF00061200FFD00022C00078B21200FAD00047
:101BCF00C00078061200FFD00022C00078BA1200C1
:101BDF00FAD000C000788C1200FFD00022C000782D
:101BEF00EA1200FAD000C00078E81200FFD00022FD
:101BFF00121AA9121F29121AF5121F29C0027A28C8
:101C0F00120039D002121AF5121F29121AF5121FDB
:101C1F0029121AE2121F29121ACF121F40121AA9E3
:101C2F00121F29121A83121F29C0027A501200396B
:101C3F00D002121A83121F29121A5D121F292212A3
:101C4F001B8D121F12121BA0121F12121BC6121F66
:101C5F0012121BA0121F12121B1B121F40121B1B52
:101C6F00121F40121BD9121F40C0027A50120039A6
:101C7F00D002121B8D121F12121BA0121F12121A4A
:101C8F00E2121F12121B8D121F12121BD9121F40AC
:101C9F00121BD9121F40121BC6121F40C0027A50CE
:101CAF00120039D002121B8D121F12121BA0121F0D
:101CBF0012121BC6121F12121BA0121F12121BC6CA
:101CCF00121F29121BD9121F40121AE2121F4012A3
:101CDF001B8D121F29121B8D121F12121BD9121FBF
:101CEF0040121BC6121F4022121B08121F29121B63
:101CFF0008121F29C0027A50120039D002121B0895
:101D0F00121F40C0027A50120039D002121AE2128A
:101D1F001F29121B08121F29C0027A50120039D036
:101D2F0002121B2E121F40C0027A50120039D0022D
:101D3F00C0027A50120039D002C0027A5012003914
:101D4F00D002C0027A50120039D002121AA9121F03
:101D5F005722121A5D121F57121AA9121F57121A61
:101D6F0096121F29121A83121F40121A70121F4047
:101D7F00121AE2121F57121AA9121F29C0027A5003
:101D8F00120039D002121A96121F29121A83121F2B
:101D9F0029121A70121F29121AE2121F57121AA9AA
:101DAF00121F29C0027A50120039D002121A96124D
:101DBF001F29121A83121F29121A96121F29121A7B
:101DCF0070121F5722121AE2121F29121AE2121F43
:101DDF0012121AE2121F12121AE2121F12121AF51F
:101DEF00121F40121ACF121F6EC0027A281200392A
:101DFF00D002121AA9121F12121ABC121F29121A7C
:101E0F00BC121F12121ABC121F12121ABC121F126E
:101E1F00121ACF121F40121AA9121F12C0027A28CB
:101E2F00120039D002121ABC121F12121ACF121F2F
:101E3F006E22121B08121F29121ACF121F12121A0A
:101E4F00E2121F12121AF5121F29121AE2121F1292
:101E5F00121ACF121F12121ABC121F29121ABC12F9
:101E6F001F12121AE2121F12121B08121F29121A26
:101E7F00F5121F12121AE2121F12121ACF121F405E
:101E8F00C0027A50120039D002121AE2121F121237
:101E9F001AF5121F29121B08121F29121AE2121FFC
:101EAF0029121ABC121F29121ABC121F5722121AFA
:101EBF0083121F29121ABC121F40121AE2121F128C
:101ECF00121ACF121F29121ABC121F57121B0812F7
:101EDF001F29121AF5121F6E121ACF121F6E121A25
:101EEF00BC121F40121AE2121F12121ACF121F2910
:101EFF00121B67121F57121BA0121F29121A8312CF
:101F0F001F6E22D28CC0027A01120104D002C28C41
:101F1F00C0027A50120039D00222D28CC0027A024B
:101F2F00120104D002C28CC0027A50120039D002C2
:101F3F0022D28CC0027A03120104D002C28CC002DA
:101F4F007A50120039D00222D28CC0027A041201C8
:101F5F0004D002C28CC0027A50120039D00222D2B1
:101F6F008CC0027A08120104D002C28CC0027A50CF
:101F7F00120039D00222D28CC0027A12120104D080
:101F8F0002C28CC0027A50120039D002227A1D7917
:101F9F00FA78A6D8FED9FADAF6227A5979FA78A61B
:101FAF00D8FED9FADAF622C0E07401141200C1D0BB
:101FBF00E0C083C082C0E090047A1200B4D0E0D0B9
:101FCF0082D083C0E07401141200BFD0E0C083C080
:101FDF0082C0E090048A1200B4D0E0D082D083C0D7
:101FEF00E0740D141200BFD0E0C0E0E55A12007E7D
:101FFF00D0E0C0E0740E141200BFD0E0C0E0E55B8B
:10200F0012007ED0E0C0E0740F141200BFD0E0C009
:10201F00E0E55C12007ED0E0C0E07410141200BF47
:10202F00D0E0C0E0E55D12007ED0E0C0027A32124F
:10203F000039D002C0E0740D141200BFD0E0C0E030
:10204F00E55A12007ED0E02083063083FD02213650
:10205F002082063082FD02208E20870DE55AB45A69
:10206F0014C3E4755A4102208B2084DB3084FD02B7
:10207F00218A02208B2401F55A121F9C02203AC09C
:10208F00027A32120039D002C0E0740E141200BF6F
:10209F00D0E0C0E0E55B12007ED0E0208306308305
:1020AF00FD02203A2082063082FD0220E220870DB9
:1020BF00E55BB45A14C3E4755B410220DF2084DB77
:1020CF003084FD02218A0220DF2401F55B121F9C60
:1020DF0002208EC0027A32120039D002C0E0740F93
:1020EF00141200BFD0E0C0E0E55C12007ED0E0200B
:1020FF0083063083FD02208E2082063082FD02216E
:10210F003620870DE55CB45A14C3E4755C41022197
:10211F00332084DB3084FD02218A0221332401F530
:10212F005C121F9C0220E2C0027A32120039D002E8
:10213F00C0E07410141200BFD0E0C0E0E55D1200E3
:10214F007ED0E02083063083FD0220E2208206301D
:10215F0082FD02203A20870DE55DB45A14C3E47561
:10216F005D410221872084DB3084FD02218A022118
:10217F00872401F55D121F9C022136E55AB4465E95
:10218F00E55BB44959E55CB45254E55DB4454F7411
:10219F0001120083C0027A32120039D002C0E074FB
:1021AF0001141200C1D0E0C083C082C0E09004B817
:1021BF001200B4D0E0D082D083C0E07401141200BA
:1021CF00BFD0E0C083C082C0E09004C91200B4D079
:1021DF00E0D082D083121FA9121FA9020ADB74015B
:1021EF00120083C0027A32120039D002C0E07401AB
:1021FF00141200C1D0E0C083C082C0E090049B12D3
:10220F0000B4D0E0D082D083C0E07401141200BFBC
:10221F00D0E0C083C082C0E09004AA1200B4D0E026
:10222F00D082D083121FA9121FA9755A41755B4125
:10223F00755C41755D41021FB67401120083C002C7
:10224F007A32120039D002C0E07402141200C1D0E9
:10225F00E0C083C082C0E09004D81200B4D0E0D0B8
:10226F0082D083C0E07402141200BFD0E0C083C0DC
:10227F0082C0E09004E81200B4D0E0D082D083C0D6
:10228F00E07401141200C1D0E0C0E0742A12007E85
:10229F00D0E0C0E07409141200C1D0E0C0E0742097
:1022AF0012007ED0E0C0E07401141200BFD0E0C075
:1022BF00E0742012007ED0E0C0E07408141200BF5A
:1022CF00D0E0C0E0742012007ED0E0C0027A32125B
:1022DF000039D0022083063083FD022307C0027A23
:1022EF0032120039D0022082063082FD0223010211
:1022FF0022DA755E01020ADBC0E07401141200C11C
:10230F00D0E0C0E0742012007ED0E0C0E074091469
:10231F001200C1D0E0C0E0742A12007ED0E0C0E00D
:10232F007401141200BFD0E0C0E0742012007ED000
:10233F00E0C0E07408141200BFD0E0C0E0742012B7
:10234F00007ED0E0C0027A32120039D0022083061C
:10235F003083FD022380C0027A32120039D002206E
:10236F0082063082FD02237A022353755E02020A2F
:10237F00DBC0E07401141200C1D0E0C0E074201281
:10238F00007ED0E0C0E07409141200C1D0E0C0E0BC
:10239F00742012007ED0E0C0E07401141200BFD090
:1023AF00E0C0E0742A12007ED0E0C0E0740814127E
:1023BF0000BFD0E0C0E0742012007ED0E0C0027AEF
:1023CF0032120039D0022083063083FD0223F9C078
:1023DF00027A32120039D0022082063082FD0223A7
:1023EF00F30223CC755E03020ADBC0E07401141202
:1023FF0000C1D0E0C0E0742012007ED0E0C0E074D5
:10240F0009141200C1D0E0C0E0742012007ED0E0A9
:10241F00C0E07401141200BFD0E0C0E074201200BD
:10242F007ED0E0C0E07408141200BFD0E0C0E074AA
:10243F002A12007ED0E0C0027A32120039D0022078
:10244F0083063083FD02228EC0027A32120039D009
:10245F00022082063082FD02246C022445755E0440
:10246F00020ADBE55EB401059004F88013B402059F
:10247F009004FA800BB403059004FC80039004FED3
:04248F001205E72229
:00000001FF
