:030000000204FFF8
:0100030032CA
:03000B00020439B3
:0100130032BA
:01001B0032B2
:0100230032AA
:03002B0002045379
:10002E00C00078B10000D8FCD00022C000C0017919
:10003E002D78A6D8FED9FADAF6D001D00022D293C6
:10004E0012002EC29322A2E792B5A2E692B4A2E5C6
:10005E0092B3A2E492B212004C12002EA2E392B519
:10006E00A2E292B4A2E192B3A2E092B212004C22AA
:10007E00D291020054C291020054C293C2927433C0
:10008E0012008374331200837432120083742812A8
:10009E000083740C1200837401120083C0027A0272
:1000AE00120039D00222E493600612007EA380F67D
:1000BE002244404480020083C0E0E8C4540F443020
:1000CE0012007EE8540F443012007ED0E0223099A8
:1000DE00FDC299F59922C0E0E8C4540F44301200D5
:0C00EE00DCE8540F44301200DCD0E022AB
:1000FA00C0E0C0D0C000C001C002E4F538F539F54F
:10010A003AF53BF53C7A20E533A2E779047830E604
:10011A0033F608D9FA79057838E636D4F608D9F9E3
:10012A00DAE5D002D001D000D0D0D0E022C0E0C0C1
:10013A00D0C000C001C002E4F538F539F53AF53B04
:10014A00F53C7A20E533A2E779047830E633F608FD
:10015A00D9FA79057838C0D0E6243320E70224D0CA
:10016A0020E30224FDD0D033F608D9EADAD6D00249
:10017A00D001D000D0D0D0E022C0E0C0D0C000C0B2
:10018A0001C0027A207905C3783CE613C0D030E773
:10019A000224D030E30224FDF618D0D0D9EC790439
:1001AA007833E613F618D9FADADBD002D001D00098
:1001BA00D0D0D0E022C0E0C0D0E5302534F530E51B
:1001CA00313535F531E5323536F532E5333537F542
:1001DA0033D0D0D0E022C0E0C0D0C3E5309534F5AA
:1001EA0030E5319535F531E5329536F532E5339519
:1001FA0037F533D0D0D0E022C0E0C0D0C3E5309587
:10020A0034E5319535E5329536E53395379202D0A6
:10021A00D0D0E022C0E0C0D0C3E5349530E53595B2
:10022A0031E5369532E53795339202D0D0D0E022C7
:10023A00C0E0C0D0C202C3E53495307014E53595EC
:10024A0031700EE53695327008E53795337002D273
:10025A0002D0D0D0E02212023A20020302021E2269
:10026A0012023A20020302020222C0E0C0F0C0D009
:10027A00C000C001C002C003E5308534F0A4F8A96B
:10028A00F0E5318534F0A429F9E435F0FAE5308552
:10029A0035F0A429F9E5F03AFAE433FBE53285347E
:1002AA00F0A42AFAE5F03BFBE5318535F0A42AFAF9
:1002BA00E5F03BFBE5308536F0A42AFAE5F03BFB96
:1002CA00E5338534F0A42BFBE5328535F0A42BFB0E
:1002DA00E5318536F0A42BFBE5308537F0A42BFBFE
:1002EA008B338A3289318830D003D002D001D000D2
:1002FA00D0D0D0F0D0E022C0E0C0D0C000C001C051
:10030A0002C003C0047C20E4F8F9FAFBC3E53033E9
:10031A00F530E53133F531E53233F532E53333F58E
:10032A0033E833F8E933F9EA33FAEB33FBC3E895F8
:10033A0034E99535EA9536EB95374013E89534F864
:10034A00E99535F9EA9536FAEB9537FB433001DC46
:10035A00BBD004D003D002D001D000D0D0D0E0224C
:10036A0054656D703A78782E78782A4300312E5386
:10037A006F616B2054656D7000322E536F616B2074
:10038A0054696D6500332E5265666C6F772054652B
:10039A006D7000342E5265666C6F772054696D65F6
:1003AA0000536F616B2054656D703A00536F616B37
:1003BA002054696D653A005265666C6F7720546502
:1003CA006D703A005265666C6F772054696D653AB4
:1003DA00005265666C6F7720537461746500536FC1
:1003EA00616B2053746174650054656D702E2049E9
:1003FA006E637265617365004F76656E206973205E
:10040A00636F6F6C696E672E0020202020202020E9
:10041A002020202020202000E58954F04401F5897D
:10042A00758CEA758AE875F4EA75F2E8D2A922327F
:10043A0075C80075CDA975CC9A75CBA975CA9AE409
:10044A00F551F552D2ADD2CA22C2CFB2B6C0E0C07F
:10045A00D00551E55170020552E551B4F411E55247
:10046A00B4010CE4F551F552E5542401D4F554D005
:10047A00D0D0E032D2A2C2A322C0E079007A08E842
:10048A0033F892A1D2A3A2A2E933F9C2A3DAF0D037
:10049A00E0223099FDC299F59922E4936006120090
:1004AA00DCA380F622C0E07406141200C1D0E0C0BA
:1004BA0000A83C1200C6D000C000A83B1200C6D05B
:1004CA0000C000A83A1200C6D000C000A839120025
:1004DA00C6D000C000A8381200C6D0002279DE7843
:1004EA00A6D8FED9FA438780759852759B00759AEB
:1004FA00F4759B1E2275817F75E60075E700D2AF01
:10050A001200887544787545007546007547007570
:10051A004800754900754A00754B007554007557B7
:10052A00001204E712047E1204221206D0020918ED
:10053A00C0E07401141200C1D0E0C083C082C0E0E0
:10054A009003F31200B4D0E0D082D0831206C11215
:10055A00074A1206B61206D61208C9C3E544953FE1
:10056A0050CE1206D0C2CA7400F554D2CA8000C056
:10057A00E07401141200C1D0E0C083C082C0E090D0
:10058A0003E81200B4D0E0D082D0831206C112066A
:10059A00B61206D612064312065312068E80D0C031
:1005AA00E07401141200C1D0E0C083C082C0E090A0
:1005BA0003F31200B4D0E0D082D0831206B612063A
:1005CA00D6C3E548953F50D71206D01208C9C2CA09
:1005DA007400F554D2CA1206C11206B61206D6C063
:1005EA00E07401141200C1D0E0C083C082C0E09060
:1005FA0003DB1200B4D0E0D082D08312066D12065B
:10060A007D1206A280D0C0E07401141200C1D0E0AD
:10061A00C083C082C0E09004021200B4D0E0D0824D
:10062A00D0831206B61206D6120638020635C374ED
:10063A003C953F500302061022E5442405F530C3D9
:10064A00E530953F5014020665E544C39405F5303C
:10065A00C3E53F95305003020669221206D02212E2
:10066A0006D322E5482405F530C3E530953F50EA24
:10067A00020665E548C39405F530C3E53F95305059
:10068A00D9020669E554B5460E1206D3C2CA7400E9
:10069A00F554D2CA0205A922E554B54A0E1206D06B
:1006AA00C2CA7400F554D2CA020610221207F9E52A
:1006BA0030F53F2202053A2084053084FD8001226C
:1006CA001206D0020918C28122D28122855438C06A
:1006DA00E07401141200BFD0E0C000A8391200C6AD
:1006EA00D000C0E07403141200BFD0E0C000A838E4
:1006FA001200C6D000C0E0740C141200BFD0E0850E
:10070A003F301200FAC000A8381200C6D000C0E07C
:10071A00740A141200BFD0E0C000A8391200C6D073
:10072A0000C0E0740F141200BFD0E074DF12007E24
:10073A00C0E07410141200BFD0E0744312007E228D
:10074A00C0E0C0D0C374609554500E7450953F50A9
:10075A000280061206D0020918D0D0D0E022C0E0EA
:10076A00C0D0C2A078011204837880120483E954AD
:10077A0003F53E7855120483893DD2A0C0027AFA65
:10078A00120039D002C0027AFA120039D0021207D6
:10079A00A4E530F53FD0D0D0E022E47530007531C1
:1007AA0000753200753300753400753500753600F2
:1007BA00753700E53DF530E53EF53175349A753506
:1007CA00017536007537001202747534FF753503EA
:1007DA0075360075370012030175341175350175C8
:1007EA0036007537008530561201E01200FA22C031
:1007FA00E0C0D0C2A078011204837890120483E981
:10080A005403F53E7855120483893DD2A0C0027A7A
:10081A00FA120039D002C0027AFA120039D00275EF
:10082A003000753100753200753300E53DF530E56D
:10083A003EF5311200FA12084CE530F540D0D0D01E
:10084A00E022C0E0C0D0853D30853E31753200756A
:10085A00330075341D753500753600753700120280
:10086A00747534667535087536007537001201BF20
:10087A007534647535007536007537001203011238
:10088A0000FAE530D0D0D0E022C000A8391200E446
:10089A00D000C000A8381200E4D000740D1200DCA9
:1008AA00740A1200DC22D2A4B2A4C0027AFA12009C
:1008BA0039D002C0027AFA120039D002C2A422D276
:1008CA00A4B2A4C0027AFA120039D002C0027AFA9B
:1008DA00120039D002C2A422E4B4060122D2A4B280
:1008EA00A4C0027A64120039D002C2A40480EA22A7
:1008FA00C0E07406141200C1D0E0C000A83912008A
:10090A00C6D000C0E07409141200C1D0E0227401FC
:10091A00120083C0027A32120039D002C0E0740198
:10092A00141200C1D0E0C083C082C0E090037712E5
:10093A0000B4D0E0D082D083C0E07401141200BFAA
:10094A00D0E0C083C082C0E09003831200B4D0E03C
:10095A00D082D083C0027A32120039D002208306B4
:10096A003083FD0209C0C0027A32120039D0022057
:10097A0082063082FD0209C3C0027A32120039D0DF
:10098A00022087063087FD0209C9C0027A321200A6
:10099A0039D0022084263084FD0209A6740112008F
:1009AA0083C0027A32120039D0021206D312043AF4
:1009BA0075540002053A0209CC020AF70209260216
:1009CA000C5D7401120083C0027A32120039D0021F
:1009DA00C0E07401141200C1D0E0C083C082C0E03C
:1009EA009003AB1200B4D0E0D082D083C0E074018F
:1009FA00141200BFD0E0C000A8451200C6D000C043
:100A0A00E07403141200BFD0E0C000A8441200C66C
:100A1A00D00020830FC0027A32120039D00220831C
:100A2A0003020A5520820FC0027A32120039D0021C
:100A3A00208203020AA820870FC0027A32120039E4
:100A4A00D002208703020918020A1CE544B4990C53
:100A5A00E545B4020EE4F545F54480132401D4F5C6
:100A6A0044800CE5452401D4F545E4F5448000852D
:100A7A0044301200FAC0E07401141200BFD0E0C082
:100A8A0000A8391200C6D000C0E07403141200BFD7
:100A9A00D0E0C000A8381200C6D000020A1CE54403
:100AAA00B4000DE545B4000F7545027544998014EC
:100ABA002499D4F544800DE5452499D4F5457499D3
:100ACA00F5448000C0E07401141200BFD0E0C000F9
:100ADA00A8451200C6D000C0E07403141200BFD0AB
:100AEA00E0C000A8441200C6D000020A1C74011219
:100AFA000083C0027A32120039D002C0E0740114B5
:100B0A001200C1D0E0C083C082C0E09003B61200D8
:100B1A00B4D0E0D082D083C0E07401141200BFD0F8
:100B2A00E0C000A8471200C6D000C0E07403141247
:100B3A0000BFD0E0C000A8461200C6D00020830F34
:100B4A00C0027A32120039D002208303020B8020BD
:100B5A00820FC0027A32120039D002208203020CBC
:100B6A000E20870FC0027A32120039D00220870382
:100B7A00020918020B478546307534017535007530
:100B8A0036007537001201BF8530461200FAC0E000
:100B9A007401141200BFD0E0C000A8391200C6D0F8
:100BAA0000C0E07403141200BFD0E0C000A83812DD
:100BBA0000C6D000020B47E546B4990CE547B402DB
:100BCA000EE4F547F54680132401D4F546800CE57A
:100BDA00472401D4F547E4F5468000C0E0740114C7
:100BEA001200BFD0E0C000A8471200C6D000C0E083
:100BFA007403141200BFD0E0C000A8461200C6D089
:100C0A0000020B47E546B4000DE547B4000F7547EF
:100C1A000275469980142499D4F546800DE5472437
:100C2A0099D4F5477499F5468000C0E0740114120E
:100C3A0000BFD0E0C000A8471200C6D000C0E074D0
:100C4A0003141200BFD0E0C000A8461200C6D000AC
:100C5A00020B477401120083C0027A32120039D0A3
:100C6A0002C0E07401141200C1D0E0C083C082C087
:100C7A00E090038F1200B4D0E0D082D083C0E07439
:100C8A0001141200BFD0E0C083C082C0E090039D6F
:100C9A001200B4D0E0D082D083C0027A3212003976
:100CAA00D0022083063083FD020CEEC0027A321293
:100CBA000039D0022082063082FD020CF1C0027A8D
:100CCA0032120039D0022087063087FD020CF7C0A5
:100CDA00027A32120039D00220840F3084FD0209D0
:100CEA00A602053A020CFA020E1F020C6B02091840
:100CFA007401120083C0027A32120039D002C0E0B5
:100D0A007401141200C1D0E0C083C082C0E0900315
:100D1A00C11200B4D0E0D082D083C0E074011412B2
:100D2A0000BFD0E0C000A8491200C6D000C0E074DD
:100D3A0003141200BFD0E0C000A8481200C6D000B9
:100D4A0020830FC0027A32120039D00220830302B4
:100D5A000D8320820FC0027A32120039D00220821B
:100D6A0003020DD020870FC0027A32120039D00256
:100D7A00208703020C5D020D4AE548B4990CE54947
:100D8A00B4020EE4F549F54880132401D4F54880ED
:100D9A000CE5492401D4F549E4F5488000C0E07423
:100DAA0001141200BFD0E0C000A8491200C6D0004A
:100DBA00C0E07403141200BFD0E0C000A8481200BB
:100DCA00C6D000020D4AE548B4000DE549B4000F4B
:100DDA0075490275489980142499D4F548800DE51F
:100DEA00492499D4F5497499F5488000C0E0740102
:100DFA00141200BFD0E0C000A8491200C6D000C03B
:100E0A00E07403141200BFD0E0C000A8481200C664
:100E1A00D000020D4A7401120083C0027A32120015
:100E2A0039D002C0E07401141200C1D0E0C083C0FE
:100E3A0082C0E09003CE1200B4D0E0D082D083C04A
:100E4A00E07401141200BFD0E0C000A84B1200C623
:100E5A00D000C0E07403141200BFD0E0C000A84A5A
:100E6A001200C6D00020830FC0027A32120039D095
:100E7A0002208303020EA820820FC0027A321200D7
:100E8A0039D002208203020EF520870FC0027A327F
:100E9A00120039D002208703020C5D020E6FE54A68
:100EAA00B4990CE54BB4020EE4F54BF54A801324D1
:100EBA0001D4F54A800CE54B2401D4F54BE4F54AFC
:100ECA008000C0E07401141200BFD0E0C000A84B3B
:100EDA001200C6D000C0E07403141200BFD0E0C0F4
:100EEA0000A84A1200C6D000020E6FE54AB4000DEF
:100EFA00E54BB4000F754B02754A9980142499D4B6
:100F0A00F54A800DE54B2499D4F54B7499F54A803E
:100F1A0000C0E07401141200BFD0E0C000A84B1258
:100F2A0000C6D000C0E07403141200BFD0E0C000B5
:0A0F3A00A84A1200C6D000020E6F94
:00000001FF
