:030000000205CE28
:0100030032CA
:03000B0002048C60
:0100130032BA
:01001B0032B2
:0100230032AA
:03002B000204A824
:10002E00C00078B10000D8FCD00022C000C0017919
:10003E002D78A6D8FED9FADAF6D001D00022D293C6
:10004E0012002EC29322A2E792B5A2E692B4A2E5C6
:10005E0092B3A2E492B212004C12002EA2E392B519
:10006E00A2E292B4A2E192B3A2E092B212004C22AA
:10007E00D291020054C291020054C293C2927433C0
:10008E0012008374331200837432120083742812A8
:10009E000083740C1200837401120083C0027A0272
:1000AE00120039D00222E493600612007EA380F67D
:1000BE002244404480020083C0E0E8C4540F443020
:1000CE0012007EE8540F443012007ED0E0223099A8
:1000DE00FDC299F59922C0E0E8C4540F44301200D5
:1000EE00DCE8540F44301200DCD0E022888C88F417
:1000FE0022888C88F222C000C001C0037B59793E51
:10010E00787BD8FED9FADBF6DAF2D003D001D00034
:01011E0022BE
:10011F00C0E0C0D0C000C001C002E4F538F539F529
:10012F003AF53BF53C7A20E533A2E779047830E6DF
:10013F0033F608D9FA79057838E636D4F608D9F9BE
:10014F00DAE5D002D001D000D0D0D0E022C0E0C09C
:10015F00D0C000C001C002E4F538F539F53AF53BDF
:10016F00F53C7A20E533A2E779047830E633F608D8
:10017F00D9FA79057838C0D0E6243320E70224D0A5
:10018F0020E30224FDD0D033F608D9EADAD6D00224
:10019F00D001D000D0D0D0E022C0E0C0D0C000C08D
:1001AF0001C0027A207905C3783CE613C0D030E74E
:1001BF000224D030E30224FDF618D0D0D9EC790414
:1001CF007833E613F618D9FADADBD002D001D00073
:1001DF00D0D0D0E022C0E0C0D0E5302534F530E5F6
:1001EF00313535F531E5323536F532E5333537F51D
:1001FF0033D0D0D0E022C0E0C0D0C3E5309534F585
:10020F0030E5319535F531E5329536F532E53395F3
:10021F0037F533D0D0D0E022C0E0C0D0C3E5309561
:10022F0034E5319535E5329536E53395379202D081
:10023F00D0D0E022C0E0C0D0C3E5349530E535958D
:10024F0031E5369532E53795339202D0D0D0E022A2
:10025F00C0E0C0D0C202C3E53495307014E53595C7
:10026F0031700EE53695327008E53795337002D24E
:10027F0002D0D0D0E02212025F20020302024322FA
:10028F0012025F20020302022722C0E0C0F0C0D09A
:10029F00C000C001C002C003E5308534F0A4F8A946
:1002AF00F0E5318534F0A429F9E435F0FAE530852D
:1002BF0035F0A429F9E5F03AFAE433FBE532853459
:1002CF00F0A42AFAE5F03BFBE5318535F0A42AFAD4
:1002DF00E5F03BFBE5308536F0A42AFAE5F03BFB71
:1002EF00E5338534F0A42BFBE5328535F0A42BFBE9
:1002FF00E5318536F0A42BFBE5308537F0A42BFBD9
:10030F008B338A3289318830D003D002D001D000AC
:10031F00D0D0D0F0D0E022C0E0C0D0C000C001C02B
:10032F0002C003C0047C20E4F8F9FAFBC3E53033C4
:10033F00F530E53133F531E53233F532E53333F569
:10034F0033E833F8E933F9EA33FAEB33FBC3E895D3
:10035F0034E99535EA9536EB95374013E89534F83F
:10036F00E99535F9EA9536FAEB9537FB433001DC21
:10037F00BBD004D003D002D001D000D0D0D0E02227
:10038F0054656D703A78782E78782A4300312E5361
:10039F006F616B2054656D7000322E536F616B204F
:1003AF0054696D6500332E5265666C6F7720546506
:1003BF006D7000342E5265666C6F772054696D65D1
:1003CF0000536F616B2054656D703A00536F616B12
:1003DF002054696D653A005265666C6F77205465DD
:1003EF006D703A005265666C6F772054696D653A8F
:1003FF00005265666C6F77205374617465202020FE
:10040F002000536F616B205374617465202020208E
:10041F0020200054656D702E20496E6372656173E4
:10042F00652020004F76656E20697320636F6F6CB7
:10043F00696E672E00315375727072697365203261
:10044F004D6172696F002020203353746172205701
:10045F0061727320202000202020202020202020C7
:10046F00202020202000E58954F04401F589758C67
:10047F00EA758AE875F4EA75F2E8D2A922B2B732C2
:10048F0075C80075CDA975CC9A75CBA975CA9AE4B4
:10049F00F54DF54ED2ADD2CA22C2CFB2B6C0E0C032
:1004AF00D0D281D282D280E557B4000BE554120529
:1004BF0009C28105578020B4010BE555120509C209
:1004CF008205578012B4020CE556120509C28075D9
:1004DF0057008003755700054DE54D7002054EE539
:1004EF004DB4E811E54EB4030CE4F54DF54EE5506F
:1004FF002401D4F550D0D0D0E032A2E092A4A2E1F2
:10050F0092A5A2E292A6A2E392A7A2E492C5A2E5C7
:10051F0092C4A2E69287A2E722D2A2C2A322C0E08F
:10052F0079007A08E833F892A1D2A3A2A2E933F9AD
:10053F00C2A3DAF0D0E0223099FDC299F59922E4F6
:10054F00936006120546A380F622C0E074061412CB
:10055F0000C1D0E0C000A83C1200C6D000C000A867
:10056F003B1200C6D000C000A83A1200C6D000C08F
:10057F0000A8391200C6D000C000A8381200C6D09B
:10058F00002279DE78A6D8FED9FA43878075985273
:10059F00759B00759AF4759B1E229005C4E538541F
:1005AF000F93F555E538C4540F93F556E4E53954D8
:1005BF000F93F55422C0F9A4B0999282F8809075E8
:1005CF00817F75E60075E700D2AF12008875440091
:1005DF00754500754600754700755000755300123C
:1005EF0005911205281204751207B3020A0212129E
:1005FF000EC0027A32120039D002C0E07401141218
:10060F0000C1D0E0C083C082C0E09004221200B4C9
:10061F00D0E0D082D0831207A412082D12079912AE
:10062F0007B91205A91209AFC3E544953F50BF1290
:10063F0007B3C2CA7400F550D2CAC0E074011412D5
:10064F0000C1D0E0C083C082C0E09004111200B49A
:10065F00D0E0D082D0831207A41207991207B912E3
:10066F0005A912072212073212076D80CDC0E07460
:10067F0001141200C1D0E0C083C082C0E0900422F8
:10068F001200B4D0E0D082D0831207991207B9C3F9
:10069F00E546953F50D71207B31209AFC2CA74008F
:1006AF00F550D2CA1207A41207991207B91205A959
:1006BF00C0E07401141200C1D0E0C083C082C0E05A
:1006CF009004001200B4D0E0D082D08312074C12F5
:1006DF00075C12078380CDC0E07401141200C1D0F3
:1006EF00E0C083C082C0E09004331200B4D0E0D0E9
:1006FF0082D0831207991207B91205A91207171290
:10070F00120E1209C9020714C3743C953F5003021D
:10071F0006E622E5442405F530C3E530953F501435
:10072F00020744E544C39405F530C3E53F953050C7
:10073F0003020748221207B3221207B622E5462406
:10074F0005F530C3E530953F50EA020744E546C34F
:10075F009405F530C3E53F953050D9020748C3E5FE
:10076F00459550500E1207B6C2CA7400F550D2CA42
:10077F0002067C22C3E5479550500E1207B3C2CA3A
:10078F007400F550D2CA0206E62212084BE530F586
:10079F003F220205FD2083053083FD8001221207D1
:1007AF00B3020A02C2B622D2B622C0E0740F1412EC
:1007BF0000BFD0E074DF12007EC0E074101412008E
:1007CF00BFD0E0744312007E855038C0E07401142E
:1007DF001200BFD0E0C000A8391200C6D000C0E0A0
:1007EF007403141200BFD0E0C000A8381200C6D0A6
:1007FF0000C0E0740C141200BFD0E0853F3012012E
:10080F001FC000A8381200C6D000C0E0740A14122E
:10081F0000BFD0E0C000A8391200C6D00022C0E04F
:10082F00C0D0C374609550500E7450953F500280E5
:10083F00061207B3020A02D0D0D0E022C0E0C0D027
:10084F00C2A0780112052D788012052DE95403F509
:10085F003E785512052D893DD2A0C0027AFA1200BA
:10086F0039D002C0027AFA120039D002120887E595
:10087F0030F53FD0D0D0E022E475300075310075EF
:10088F0032007533007534007535007536007537D5
:10089F0000E53DF530E53EF53175349A7535017556
:1008AF0036007537001202997534FF7535037536AA
:1008BF000075370012032675341175350175360032
:1008CF0075370085305212020512011F22C0E0C099
:1008DF00D0C2A0780112052D789012052DE954038E
:1008EF00F53E785512052D893DD2A0C0027AFA1235
:1008FF000039D002C0027AFA120039D002753000E6
:10090F00753100753200753300E53DF530E53EF584
:10091F003112011F12092FE530F540D0D0D0E0225F
:10092F00C0E0C0D0853D30853E3175320075330053
:10093F0075341D75350075360075370012029975BF
:10094F0034667535087536007537001201E4753455
:10095F006475350075360075370012032612011FB6
:10096F00E530D0D0D0E022C000A8391200E4D0008A
:10097F00C000A8381200E4D000740D120546740AA6
:10098F0012054622121152D28CB28CC0027AFA1280
:10099F000039D002C0027AFA120039D002C28C227A
:1009AF00121152D28CC0027AFA120039D002C00250
:1009BF007AFA120039D002C28C22121152E4B40614
:1009CF000122D28CB28CC0027A64120039D002C2DA
:1009DF008C0480EA22C0E07406141200C1D0E0C07B
:1009EF0000A8391200C6D000C0E07409141200C16B
:1009FF00D0E0227401120083C0027A32120039D083
:100A0F0002C0E07401141200C1D0E0C083C082C0E4
:100A1F00E090039C1200B4D0E0D082D083C0E07489
:100A2F0001141200BFD0E0C083C082C0E09003A8C1
:100A3F001200B4D0E0D082D083C0027A32120039D3
:100A4F00D0022084063084FD020AAAC0027A321234
:100A5F000039D0022085063085FD020AADC0027A2A
:100A6F0032120039D0022086063086FD020AB3C04A
:100A7F00027A32120039D0022083263083FD020A17
:100A8F00907401120083C0027A32120039D0021220
:100A9F0007B612048F7550000205FD020AB6020B4D
:100AAF00BA020A10020CBE7401120083C0027A321D
:100ABF00120039D002C0E07401141200C1D0E0C09E
:100ACF0083C082C0E09003D01200B4D0E0D082D0B7
:100ADF0083C0E07401141200BFD0E08544301201CE
:100AEF001FC000A8391200C6D000C0E07403141252
:100AFF0000BFD0E0C000A8381200C6D00020840F7D
:100B0F00C0027A32120039D002208403020B452032
:100B1F00850FC0027A32120039D002208503020BF2
:100B2F006920860FC0027A32120039D00220860364
:100B3F00020A02020B0C85443075310075320075C4
:100B4F0033007534017535007536007537001201A5
:100B5F00E4853044120B8D020B0C85443075310047
:100B6F0075320075330075340175350075360075B3
:100B7F003700120205853044120B8D020B0C854491
:100B8F003012011FC0E07401141200BFD0E0C0008A
:100B9F00A8391200C6D000C0E07403141200BFD0F1
:100BAF00E0C000A8381200C6D000227401120083E2
:100BBF00C0027A32120039D002C0E0740114120060
:100BCF00C1D0E0C083C082C0E09003DB1200B4D07C
:100BDF00E0D082D083C0E07401141200BFD0E08552
:100BEF00453012011FC000A8391200C6D000C0E066
:100BFF007403141200BFD0E0C000A8381200C6D092
:100C0F000020840FC0027A32120039D002208403F0
:100C1F00020C4920850FC0027A32120039D002200F
:100C2F008503020C6D20860FC0027A32120039D074
:100C3F0002208603020A02020C108545307531002E
:100C4F0075320075330075340175350075360075D2
:100C5F0037001201E4853045120C91020C108545C6
:100C6F0030753100753200753300753401753500FC
:100C7F00753600753700120205853045120C91024A
:100C8F000C1085453012011FC0E07401141200BF13
:100C9F00D0E0C000A8391200C6D000C0E074031421
:100CAF001200BFD0E0C000A8381200C6D0002274D6
:100CBF0001120083C0027A32120039D002C0E074F0
:100CCF0001141200C1D0E0C083C082C0E09003B411
:100CDF001200B4D0E0D082D083C0E07401141200AF
:100CEF00BFD0E0C083C082C0E09003C21200B4D076
:100CFF00E0D082D083C0027A32120039D002208431
:100D0F00063084FD020D4FC0027A32120039D00234
:100D1F002085063085FD020D52C0027A321200394D
:100D2F00D0022086063086FD020D58C0027A32129C
:100D3F000039D00220830F3083FD020A900205FD97
:100D4F00020D5B020E68020CCC020A027401120043
:100D5F0083C0027A32120039D002C0E0740114123B
:100D6F0000C1D0E0C083C082C0E09003E61200B49F
:100D7F00D0E0D082D083C0E07401141200BFD0E065
:100D8F0085463012011FC000A8391200C6D000C01E
:100D9F00E07403141200BFD0E0C000A8381200C6E0
:100DAF00D00020840FC0027A32120039D002208482
:100DBF0003020E4420850FC0027A32120039D0028E
:100DCF00208503020DEA20860FC0027A3212003905
:100DDF00D002208603020CBE020DB185463075315C
:100DEF0000753200753300753401753500753600A6
:100DFF00753700120205853046120E0E020DB185B1
:100E0F00463075310075320075330012011FC0E096
:100E1F007401141200BFD0E0C000A8391200C6D070
:100E2F0000C0E07403141200BFD0E0C000A8381255
:100E3F0000C6D000228546307531007532007533FB
:100E4F00007534017535007536007537001201E4F1
:100E5F00853046120E0E020DB17401120083C002CE
:100E6F007A32120039D002C0E07401141200C1D0DE
:100E7F00E0C083C082C0E09003F31200B4D0E0D092
:100E8F0082D083C0E07401141200BFD0E0854730D8
:100E9F0012011FC000A8391200C6D000C0E07403B1
:100EAF00141200BFD0E0C000A8381200C6D0002036
:100EBF00840FC0027A32120039D002208403020E4E
:100ECF00F720850FC0027A32120039D00220850335
:100EDF00020F5120860FC0027A32120039D0022041
:100EEF008603020CBE020EBE854730753100753287
:100EFF000075330075340175350075360075370090
:100F0F001201E4853047120F1B020EBE8547307564
:100F1F00310075320075330012011FC0E0740114E7
:100F2F001200BFD0E0C000A8391200C6D000C0E048
:100F3F007403141200BFD0E0C000A8381200C6D04E
:100F4F0000228547307531007532007533007534D6
:100F5F00017535007536007537001202058530476B
:100F6F00120F1B020EBE7401120083C0027A3212DE
:100F7F000039D002C0E07401141200C1D0E0C08368
:100F8F00C082C0E09004441200B4D0E0D082D0837D
:100F9F00C0E07401141200BFD0E0C083C082C0E073
:100FAF009004551200B4D0E0D082D0832084063054
:100FBF0084FD0211652085063085FD02120E208604
:100FCF00EB3086FD021278C000785B1200FAD00079
:100FDF00C000781E1200FFD00022C000786D1200F2
:100FEF00FAD000C00078101200FFD00022C00078A5
:100FFF007D1200FAD000C00078181200FFD0002236
:10100F00C00078841200FAD000C00078381200FFB8
:10101F00D00022C00078911200FAD000C00078CC26
:10102F001200FFD00022C000789D1200FAD000C03D
:10103F000078D21200FFD00022C00078A81200FA68
:10104F00D000C000788D1200FFD00022C00078AD14
:10105F001200FAD000C00078671200FFD00022C043
:10106F000078B61200FAD000C00078681200FFD0E6
:10107F000022C00078BE1200FAD000C000787312B0
:10108F0000FFD00022C00078C21200FAD000C000CA
:10109F00781C1200FFD00022C00078C81200FAD0CE
:1010AF0000C00078E61200FFD00022C00078CE12F8
:1010BF0000FAD000C00078E91200FFD00022C00073
:1010CF0078D41200FAD000C00078471200FFD00089
:1010DF0022C000788B1200FAD000C000783F1200B7
:1010EF00FFD00022C00078971200FAD000C000781D
:1010FF00E81200FFD00022C00078A31200FAD0003F
:10110F00C000784C1200FFD00022C00078B212004D
:10111F00FAD000C00078061200FFD00022C000787D
:10112F00B21200FAD000C00078061200FFD00022E1
:10113F00C00078BA1200FAD000C000788C1200FFFD
:10114F00D00022C00078EA1200FAD000C00078E880
:10115F001200FFD000221210F31212EB121106121E
:10116F0012EB12112C1212EB1211061212EB1210BB
:10117F009412131912109412131912113F121319FA
:10118F00C0027A50120039D0021210F31212EB1271
:10119F0011061212EB12105B1212EB1210F3121255
:1011AF00EB12113F12131912113F12131912112CB6
:1011BF00121319C0027A50120039D0021210F31212
:1011CF0012EB1211061212EB12112C1212EB12115A
:1011DF00061212EB12112C12130212113F121319D5
:1011EF0012105B1213191210F31213021210F312D2
:1011FF0012EB12113F12131912112C121319221282
:10120F001081121302121081121302C0027A5012AF
:10121F000039D002121081121319C0027A50120035
:10122F0039D00212105B121302121081121302C076
:10123F00027A50120039D0021210A7121319C002ED
:10124F007A50120039D002C0027A50120039D002FF
:10125F00C0027A50120039D002C0027A50120039FF
:10126F00D00212102212133022120FD61213301284
:10127F00102212133012100F121302120FFC12133E
:10128F0019120FE912131912105B121330121022D8
:10129F00121302C0027A50120039D00212100F122C
:1012AF001302120FFC121302120FE9121302121083
:1012BF005B121330121022121302C0027A50120066
:1012CF0039D00212100F121302120FFC1213021256
:1012DF00100F121302120FE912133022D28CC00218
:1012EF007A01120104D002C28CC0027A5012003966
:1012FF00D00222D28CC0027A02120104D002C28C18
:10130F00C0027A50120039D00222D28CC0027A0366
:10131F00120104D002C28CC0027A50120039D002DE
:10132F0022D28CC0027A04120104D002C28CC002F5
:10133F007A50120039D00222D28CC0027A081201E0
:10134F0004D002C28CC0027A50120039D00222D2CD
:10135F008CC0027A12120104D002C28CC0027A50E1
:06136F00120039D0022239
:00000001FF
