:030000000205CD29
:0100030032CA
:03000B0002048C60
:0100130032BA
:01001B0032B2
:0100230032AA
:03002B000204A824
:10002E00C00078B10000D8FCD00022C000C0017919
:10003E002D78A6D8FED9FADAF6D001D00022D293C6
:10004E0012002EC29322A2E792B5A2E692B4A2E5C6
:10005E0092B3A2E492B212004C12002EA2E392B519
:10006E00A2E292B4A2E192B3A2E092B212004C22AA
:10007E00D291020054C291020054C293C2927433C0
:10008E0012008374331200837432120083742812A8
:10009E000083740C1200837401120083C0027A0272
:1000AE00120039D00222E493600612007EA380F67D
:1000BE002244404480020083C0E0E8C4540F443020
:1000CE0012007EE8540F443012007ED0E0223099A8
:1000DE00FDC299F59922C0E0E8C4540F44301200D5
:1000EE00DCE8540F44301200DCD0E022888C88F417
:1000FE0022888C88F222C000C001C0037B59793E51
:10010E00787BD8FED9FADBF6DAF2D003D001D00034
:01011E0022BE
:10011F00C0E0C0D0C000C001C002E4F538F539F529
:10012F003AF53BF53C7A20E533A2E779047830E6DF
:10013F0033F608D9FA79057838E636D4F608D9F9BE
:10014F00DAE5D002D001D000D0D0D0E022C0E0C09C
:10015F00D0C000C001C002E4F538F539F53AF53BDF
:10016F00F53C7A20E533A2E779047830E633F608D8
:10017F00D9FA79057838C0D0E6243320E70224D0A5
:10018F0020E30224FDD0D033F608D9EADAD6D00224
:10019F00D001D000D0D0D0E022C0E0C0D0C000C08D
:1001AF0001C0027A207905C3783CE613C0D030E74E
:1001BF000224D030E30224FDF618D0D0D9EC790414
:1001CF007833E613F618D9FADADBD002D001D00073
:1001DF00D0D0D0E022C0E0C0D0E5302534F530E5F6
:1001EF00313535F531E5323536F532E5333537F51D
:1001FF0033D0D0D0E022C0E0C0D0C3E5309534F585
:10020F0030E5319535F531E5329536F532E53395F3
:10021F0037F533D0D0D0E022C0E0C0D0C3E5309561
:10022F0034E5319535E5329536E53395379202D081
:10023F00D0D0E022C0E0C0D0C3E5349530E535958D
:10024F0031E5369532E53795339202D0D0D0E022A2
:10025F00C0E0C0D0C202C3E53495307014E53595C7
:10026F0031700EE53695327008E53795337002D24E
:10027F0002D0D0D0E02212025F20020302024322FA
:10028F0012025F20020302022722C0E0C0F0C0D09A
:10029F00C000C001C002C003E5308534F0A4F8A946
:1002AF00F0E5318534F0A429F9E435F0FAE530852D
:1002BF0035F0A429F9E5F03AFAE433FBE532853459
:1002CF00F0A42AFAE5F03BFBE5318535F0A42AFAD4
:1002DF00E5F03BFBE5308536F0A42AFAE5F03BFB71
:1002EF00E5338534F0A42BFBE5328535F0A42BFBE9
:1002FF00E5318536F0A42BFBE5308537F0A42BFBD9
:10030F008B338A3289318830D003D002D001D000AC
:10031F00D0D0D0F0D0E022C0E0C0D0C000C001C02B
:10032F0002C003C0047C20E4F8F9FAFBC3E53033C4
:10033F00F530E53133F531E53233F532E53333F569
:10034F0033E833F8E933F9EA33FAEB33FBC3E895D3
:10035F0034E99535EA9536EB95374013E89534F83F
:10036F00E99535F9EA9536FAEB9537FB433001DC21
:10037F00BBD004D003D002D001D000D0D0D0E02227
:10038F0054656D703A78782E78782A4300312E5361
:10039F006F616B2054656D7000322E536F616B204F
:1003AF0054696D6500332E5265666C6F7720546506
:1003BF006D7000342E5265666C6F772054696D65D1
:1003CF0000536F616B2054656D703A00536F616B12
:1003DF002054696D653A005265666C6F77205465DD
:1003EF006D703A005265666C6F772054696D653A8F
:1003FF00005265666C6F77205374617465202020FE
:10040F002000536F616B205374617465202020208E
:10041F0020200054656D702E20496E6372656173E4
:10042F00652020004F76656E20697320636F6F6CB7
:10043F00696E672E00315375727072697365203261
:10044F004D6172696F002020203353746172205701
:10045F0061727320202000202020202020202020C7
:10046F00202020202000E58954F04401F589758C67
:10047F00EA758AE875F4EA75F2E8D2A922B2B732C2
:10048F0075C80075CDA975CC9A75CBA975CA9AE4B4
:10049F00F54DF54ED2ADD2CA22C2CFB2B6C0E0C032
:1004AF00D0D281D282D280E557B4000BE554120529
:1004BF0008C28105578020B4010BE555120508C20B
:1004CF008205578012B4020CE556120508C28075DA
:1004DF0057008003755700054DE54D7002054EE539
:1004EF004DB4F410E54EB4010BE4F54DF54EE55067
:1004FF002401F550D0D0D0E032A2E092A4A2E19234
:10050F00A5A2E292A6A2E392A7A2E492C5A2E592C7
:10051F00C4A2E69287A2E722D2A2C2A322C0E079A8
:10052F00007A08E833F892A1D2A3A2A2E933F9C264
:10053F00A3DAF0D0E0223099FDC299F59922E49325
:10054F006006120545A380F622C0E074061412005F
:10055F00C1D0E0C000A83C1200C6D000C000A83B2C
:10056F001200C6D000C000A83A1200C6D000C000CA
:10057F00A8391200C6D000C000A8381200C6D0009B
:10058F002279DE78A6D8FED9FA43878075985275FE
:10059F009B00759AF4759B1E229005C3E538540F86
:1005AF0093F555E538C4540F93F556E4E539540FD8
:1005BF0093F55422C0F9A4B0999282F88090758176
:1005CF007F75E60075E700758E11D2AF1200887542
:1005DF00440075450075460075470075500075530A
:1005EF00001205901205271204751207EA020ACCB1
:1005FF00C0E07401141200C1D0E0C083C082C0E01B
:10060F009004221200B4D0E0D082D0831207DB1204
:10061F0008D41207D012086A1205A8C3E544953F03
:10062F0050CE120A561207EAC2CA7400F550D2CA47
:10063F00C0E07401141200C1D0E0C083C082C0E0DA
:10064F009004111200B4D0E0D082D0831207DB12D5
:10065F0007D01207F01205A81207531207631207EB
:10066F009E80CD1207DBC0E07401141200C1D0E0F0
:10067F00C083C082C0E09004221200B4D0E0D082C8
:10068F00D0831207D012086A1205A8C3E546953F1A
:10069F0050D11207EA120A56C2CA7400F550D2CAD4
:1006AF001207DB1207D01207F01205A8C0E0740181
:1006BF00141200C1D0E0C083C082C0E090040012C9
:1006CF0000B4D0E0D082D08312077D12078D1207BD
:1006DF00B780CDC0E07401141200C1D0E0C083C058
:1006EF0082C0E09004331200B4D0E0D082D08312E5
:1006FF0007D01205A8C083C082C0E0900466120024
:10070F00B4D0E0D082D083853F3012011FC0E07497
:10071F000A141200BFD0E0C000A8391200C6D000E2
:10072F00C0E0740C141200BFD0E0C000A838120053
:10073F00C6D000C3743C953F50030206E21212E488
:10074F00020ACC22E5442401F530C3E530953F5031
:10075F0014020775E544C39401F530C3E53F9530A6
:10076F005003020779221207EA221207ED22E5460B
:10077F002401F530C3E530953F50EA020775E54691
:10078F00C39401F530C3E53F953050D9020779C3C3
:10079F00E545955050111207EDC2CA7400F550D2BD
:1007AF00CA120A5602067222C3E54795505011121B
:1007BF0007EAC2CA7400F550D2CA120A700206E2E2
:1007CF0022120983E530F53F220205FF2083053011
:1007DF0083FD8001221207EA020ACCC29022D29036
:1007EF002285503012011FC0E07401141200BFD0D7
:1007FF00E0C000A8391200C6D000C0E07403141284
:10080F0000BFD0E0C000A8381200C6D000853F302E
:10081F0012011FC0E0740A141200BFD0E0C000A87C
:10082F00391200C6D000C0E0740C141200BFD0E023
:10083F00C000A8381200C6D000120A1DC0E0740F05
:10084F00141200BFD0E074DF12007EC0E0741014E9
:10085F001200BFD0E0744312007E22C0E074011476
:10086F001200BFD0E0C083C082C0E09004661200C7
:10087F00B4D0E0D082D083853F3012011FC0E07426
:10088F000A141200BFD0E0C000A8391200C6D00071
:10089F00C0E0740C141200BFD0E0C000A8381200E2
:1008AF00C6D000120A1DC0E0740F141200BFD0E0B2
:1008BF0074DF12007EC0E07410141200BFD0E07419
:1008CF004312007E22C0E0C0D0C374609550500E1A
:1008DF007432953F500280061207EA020ACCD0D03C
:1008EF00D0E022C0E0C0D0C2A0780112052C7880E1
:1008FF0012052CE95403F53E785512052C893DD28B
:10090F00A0C0027AFA120039D002C0027AFA12009D
:10091F0039D00212092EE530F53FD0D0D0E022E4D5
:10092F007530007531007532007533007534007500
:10093F003500753600753700E53DF530E53EF5318C
:10094F0075349A7535017536007537001202997531
:10095F0034FF75350375360075370012032675346D
:10096F001175350175360075370085305212020545
:10097F0012011F22C0E0C0D0C2A0780112052C784E
:10098F009012052CE95403F53E785512052C893D3C
:10099F00D2A0C0027AFA120039D002C0027AFA123B
:1009AF000039D00275300075310075320075330093
:1009BF00E53DF530E53EF53112011F1209D6E53060
:1009CF00F540D0D0D0E022C0E0C0D0853D30853E8C
:1009DF003175320075330075341D7535007536006D
:1009EF0075370012029975346675350875360075BE
:1009FF0037001201E47534647535007536007537AC
:100A0F000012032612011FE530D0D0D0E022C00023
:100A1F00A8391200E4D000C000A8381200E4D000BA
:100A2F00740D120545740A12054522121228D28C34
:100A3F00B28CC0027AFA120039D002C0027AFA12CE
:100A4F000039D002C28C22121228D28CC0027AFA3C
:100A5F00120039D002C0027AFA120039D002C28CC9
:100A6F0022121228D28CC0027AFA120039D002C098
:100A7F00027AFA120039D002C0027AFA120039D083
:100A8F0002C0027AFA120039D002C0027AFA1200BA
:100A9F0039D002C0027AFA120039D002C28C22C0B9
:100AAF00E07406141200C1D0E0C000A8391200C6CD
:100ABF00D000C0E07409141200C1D0E022740112FA
:100ACF000083C0027A32120039D002C0E0740114E0
:100ADF001200C1D0E0C083C082C0E090039C12001E
:100AEF00B4D0E0D082D083C0E07401141200BFD024
:100AFF00E0C083C082C0E09003A81200B4D0E0D061
:100B0F0082D083C0027A32120039D002208406309C
:100B1F0084FD020B80C0027A32120039D002208588
:100B2F00063085FD020B83C0027A32120039D002E3
:100B3F002086063086FD020B89C0027A32120039F8
:100B4F00D0022083323083FD020B5A7401120083CE
:100B5F00C0027A32120039D0021207ED12048F75DB
:100B6F0050001212E4C0027A32120039D00202058C
:100B7F00FF020B8C020C90020ADA020D9474011220
:100B8F000083C0027A32120039D002C0E07401141F
:100B9F001200C1D0E0C083C082C0E09003D0120029
:100BAF00B4D0E0D082D083C0E07401141200BFD063
:100BBF00E085443012011FC000A8391200C6D000D2
:100BCF00C0E07403141200BFD0E0C000A8381200B8
:100BDF00C6D00020840FC0027A32120039D0022012
:100BEF008403020C1B20850FC0027A32120039D009
:100BFF0002208503020C3F20860FC0027A321200BA
:100C0F0039D002208603020ACC020BE285443075EC
:100C1F003100753200753300753401753500753646
:100C2F00007537001201E4853044120C63020BE2A9
:100C3F008544307531007532007533007534017598
:100C4F003500753600753700120205853044120CD9
:100C5F0063020BE285443012011FC0E074011412CD
:100C6F0000BFD0E0C000A8391200C6D000C0E074A9
:100C7F0003141200BFD0E0C000A8381200C6D00085
:100C8F00227401120083C0027A32120039D002C0DE
:100C9F00E07401141200C1D0E0C083C082C0E090A4
:100CAF0003DB1200B4D0E0D082D083C0E074011413
:100CBF001200BFD0E085453012011FC000A83912C5
:100CCF0000C6D000C0E07403141200BFD0E0C00013
:100CDF00A8381200C6D00020840FC0027A3212004A
:100CEF0039D002208403020D1F20850FC0027A32F3
:100CFF00120039D002208503020D4320860FC00257
:100D0F007A32120039D002208603020ACC020CE696
:100D1F0085453075310075320075330075340175B6
:100D2F0035007536007537001201E4853045120D18
:100D3F0067020CE68545307531007532007533005A
:100D4F00753401753500753600753700120205854B
:100D5F003045120D67020CE685453012011FC0E0C9
:100D6F007401141200BFD0E0C000A8391200C6D021
:100D7F0000C0E07403141200BFD0E0C000A8381206
:100D8F0000C6D000227401120083C0027A32120012
:100D9F0039D002C0E07401141200C1D0E0C083C08A
:100DAF0082C0E09003B41200B4D0E0D082D083C0F0
:100DBF00E07401141200BFD0E0C083C082C0E09085
:100DCF0003C21200B4D0E0D082D083C0027A3212B4
:100DDF000039D0022084063084FD020E25C0027A2D
:100DEF0032120039D0022085063085FD020E28C050
:100DFF00027A32120039D0022086063086FD020EAA
:100E0F002EC0027A32120039D00220830F3083FDB8
:100E1F00020B5A0205FF020E31020F3E020DA20213
:100E2F000ACC7401120083C0027A32120039D00248
:100E3F00C0E07401141200C1D0E0C083C082C0E0D2
:100E4F009003E61200B4D0E0D082D083C0E07401EA
:100E5F00141200BFD0E085463012011FC000A83920
:100E6F001200C6D000C0E07403141200BFD0E0C05F
:100E7F0000A8381200C6D00020840FC0027A3212A8
:100E8F000039D002208403020F1A20850FC0027A86
:100E9F0032120039D002208503020EC020860FC007
:100EAF00027A32120039D002208603020D94020E0C
:100EBF008785463075310075320075330075340102
:100ECF0075350075360075370012020585304612EC
:100EDF000EE4020E8785463075310075320075338A
:100EEF000012011FC0E07401141200BFD0E0C00057
:100EFF00A8391200C6D000C0E07403141200BFD08E
:100F0F00E0C000A8381200C6D000228546307531E7
:100F1F000075320075330075340175350075360074
:100F2F007537001201E4853046120EE4020E877405
:100F3F0001120083C0027A32120039D002C0E0746D
:100F4F0001141200C1D0E0C083C082C0E09003F34F
:100F5F001200B4D0E0D082D083C0E074011412002C
:100F6F00BFD0E085473012011FC000A8391200C65C
:100F7F00D000C0E07403141200BFD0E0C000A83846
:100F8F001200C6D00020840FC0027A32120039D06E
:100F9F0002208403020FCD20850FC0027A32120087
:100FAF0039D00220850302102720860FC0027A3223
:100FBF00120039D002208603020D94020F94854748
:100FCF003075310075320075330075340175350099
:100FDF007536007537001201E4853047120FF102A4
:100FEF000F9485473075310075320075330012014B
:100FFF001FC0E07401141200BFD0E0C000A8391266
:10100F0000C6D000C0E07403141200BFD0E0C000CF
:10101F00A8381200C6D000228547307531007532CE
:10102F00007533007534017535007536007537005E
:10103F00120205853047120FF1020F94740112004E
:10104F0083C0027A32120039D002C0E07401141248
:10105F0000C1D0E0C083C082C0E09004441200B44D
:10106F00D0E0D082D083C0E07401141200BFD0E072
:10107F00C083C082C0E09004551200B4D0E0D0828B
:10108F00D0832084063084FD02123B2085063085F4
:10109F00FD0212E42086EB3086FD02134EC000786D
:1010AF005B1200FAD000C000781E1200FFD00022A1
:1010BF00C000786D1200FAD000C00078101200FF47
:1010CF00D00022C000787D1200FAD000C00078183E
:1010DF001200FFD00022C00078841200FAD000C0A6
:1010EF000078381200FFD00022C00078911200FA69
:1010FF00D000C00078CC1200FFD00022C000789D35
:10110F001200FAD000C00078D21200FFD00022C027
:10111F000078A81200FAD000C000788D1200FFD01E
:10112F000022C00078AD1200FAD000C0007867121C
:10113F0000FFD00022C00078B61200FAD000C00025
:10114F0078681200FFD00022C00078BE1200FAD0DB
:10115F0000C00078731200FFD00022C00078C212C6
:10116F0000FAD000C000781C1200FFD00022C0008F
:10117F0078C81200FAD000C00078E61200FFD00045
:10118F0022C00078CE1200FAD000C00078E9120019
:10119F00FFD00022C00078D41200FAD000C000782F
:1011AF00471200FFD00022C000788B1200FAD00047
:1011BF00C000783F1200FFD00022C00078971200C5
:1011CF00FAD000C00078E81200FFD00022C00078EB
:1011DF00A31200FAD000C000784C1200FFD00022FA
:1011EF00C00078B21200FAD000C00078061200FFDB
:1011FF00D00022C00078B21200FAD000C0007806EA
:10120F001200FFD00022C00078BA1200FAD000C03E
:10121F0000788C1200FFD00022C00078EA1200FA8A
:10122F00D000C00078E81200FFD000221211C912BE
:10123F0013C11211DC1213C11212021213C11211B7
:10124F00DC1213C112116A1213EF12116A1213EF8B
:10125F001212151213EFC0027A50120039D0021277
:10126F0011C91213C11211DC1213C1121131121351
:10127F00C11211C91213C11212151213EF12121546
:10128F001213EF1212021213EFC0027A501200392A
:10129F00D0021211C91213C11211DC1213C1121292
:1012AF00021213C11211DC1213C11212021213D83F
:1012BF001212151213EF1211311213EF1211C9126C
:1012CF0013D81211C91213C11212151213EF1212E1
:1012DF00021213EF221211571213D81211571213B1
:1012EF00D8C0027A50120039D0021211571213EFE0
:1012FF00C0027A50120039D0021211311213D812D3
:10130F0011571213D8C0027A50120039D00212119D
:10131F007D1213EFC0027A50120039D002C0027A48
:10132F0050120039D002C0027A50120039D002C0D8
:10133F00027A50120039D0021210F812140622123B
:10134F0010AC1214061210F81214061210E5121334
:10135F00D81210D21213EF1210BF1213EF12113155
:10136F001214061210F81213D8C0027A5012003954
:10137F00D0021210E51213D81210D21213D8121075
:10138F00BF1213D81211311214061210F81213D8FB
:10139F00C0027A50120039D0021210E51213D8127F
:1013AF0010D21213D81210E51213D81210BF121444
:1013BF000622D28CC0027A01120104D002C28CC064
:1013CF00027A50120039D00222D28CC0027A021255
:1013DF000104D002C28CC0027A50120039D002220E
:1013EF00D28CC0027A03120104D002C28CC0027ADE
:1013FF0050120039D00222D28CC0027A041201049A
:10140F00D002C28CC0027A50120039D00222D28C84
:10141F00C0027A08120104D002C28CC0027A5012A4
:10142F000039D00222D28CC0027A12120104D002EB
:0C143F00C28CC0027A50120039D0022288
:00000001FF
