:0300000002058571
:0100030032CA
:03000B00020445A7
:0100130032BA
:01001B0032B2
:0100230032AA
:03002B0002045F6D
:10002E00C00078B10000D8FCD00022C000C0017919
:10003E002D78A6D8FED9FADAF6D001D00022D293C6
:10004E0012002EC29322A2E792B5A2E692B4A2E5C6
:10005E0092B3A2E492B212004C12002EA2E392B519
:10006E00A2E292B4A2E192B3A2E092B212004C22AA
:10007E00D291020054C291020054C293C2927433C0
:10008E0012008374331200837432120083742812A8
:10009E000083740C1200837401120083C0027A0272
:1000AE00120039D00222E493600612007EA380F67D
:1000BE002244404480020083C0E0E8C4540F443020
:1000CE0012007EE8540F443012007ED0E0223099A8
:1000DE00FDC299F59922C0E0E8C4540F44301200D5
:0C00EE00DCE8540F44301200DCD0E022AB
:1000FA00C0E0C0D0C000C001C002E4F538F539F54F
:10010A003AF53BF53C7A20E533A2E779047830E604
:10011A0033F608D9FA79057838E636D4F608D9F9E3
:10012A00DAE5D002D001D000D0D0D0E022C0E0C0C1
:10013A00D0C000C001C002E4F538F539F53AF53B04
:10014A00F53C7A20E533A2E779047830E633F608FD
:10015A00D9FA79057838C0D0E6243320E70224D0CA
:10016A0020E30224FDD0D033F608D9EADAD6D00249
:10017A00D001D000D0D0D0E022C0E0C0D0C000C0B2
:10018A0001C0027A207905C3783CE613C0D030E773
:10019A000224D030E30224FDF618D0D0D9EC790439
:1001AA007833E613F618D9FADADBD002D001D00098
:1001BA00D0D0D0E022C0E0C0D0E5302534F530E51B
:1001CA00313535F531E5323536F532E5333537F542
:1001DA0033D0D0D0E022C0E0C0D0C3E5309534F5AA
:1001EA0030E5319535F531E5329536F532E5339519
:1001FA0037F533D0D0D0E022C0E0C0D0C3E5309587
:10020A0034E5319535E5329536E53395379202D0A6
:10021A00D0D0E022C0E0C0D0C3E5349530E53595B2
:10022A0031E5369532E53795339202D0D0D0E022C7
:10023A00C0E0C0D0C202C3E53495307014E53595EC
:10024A0031700EE53695327008E53795337002D273
:10025A0002D0D0D0E02212023A20020302021E2269
:10026A0012023A20020302020222C0E0C0F0C0D009
:10027A00C000C001C002C003E5308534F0A4F8A96B
:10028A00F0E5318534F0A429F9E435F0FAE5308552
:10029A0035F0A429F9E5F03AFAE433FBE53285347E
:1002AA00F0A42AFAE5F03BFBE5318535F0A42AFAF9
:1002BA00E5F03BFBE5308536F0A42AFAE5F03BFB96
:1002CA00E5338534F0A42BFBE5328535F0A42BFB0E
:1002DA00E5318536F0A42BFBE5308537F0A42BFBFE
:1002EA008B338A3289318830D003D002D001D000D2
:1002FA00D0D0D0F0D0E022C0E0C0D0C000C001C051
:10030A0002C003C0047C20E4F8F9FAFBC3E53033E9
:10031A00F530E53133F531E53233F532E53333F58E
:10032A0033E833F8E933F9EA33FAEB33FBC3E895F8
:10033A0034E99535EA9536EB95374013E89534F864
:10034A00E99535F9EA9536FAEB9537FB433001DC46
:10035A00BBD004D003D002D001D000D0D0D0E0224C
:10036A0054656D703A78782E78782A4300312E5386
:10037A006F616B2054656D7000322E536F616B2074
:10038A0054696D6500332E5265666C6F772054652B
:10039A006D7000342E5265666C6F772054696D65F6
:1003AA0000536F616B2054656D703A00536F616B37
:1003BA002054696D653A005265666C6F7720546502
:1003CA006D703A005265666C6F772054696D653AB4
:1003DA00005265666C6F7720537461746520202023
:1003EA002000536F616B20537461746520202020B4
:1003FA0020200054656D702E20496E63726561730A
:10040A00652020004F76656E20697320636F6F6CDC
:10041A00696E672E00202020202020202020202006
:10042A0020202000E58954F04401F589758CEA758D
:10043A008AE875F4EA75F2E8D2A9223275C800751D
:10044A00CDA975CC9A75CBA975CA9AE4F54DF54E26
:10045A00D2ADD2CA22C2CFB2B6C0E0C0D0D281D207
:10046A0082D280E557B4000BE5541204C0C281055C
:10047A00578020B4010BE5551204C0C2820557808B
:10048A0012B4020CE5561204C0C2807557008003EC
:10049A00755700054DE54D7002054EE54DB4E8115E
:1004AA00E54EB4030CE4F54DF54EE5502401D4F5C0
:1004BA0050D0D0D0E032A2E092A4A2E192A5A2E26A
:1004CA0092A6A2E392A7A2E492C5A2E592C4A2E6EA
:1004DA009287A2E722D2A2C2A322C0E079007A08B8
:1004EA00E833F892A1D2A3A2A2E933F9C2A3DAF0BF
:1004FA00D0E0223099FDC299F59922E49360061260
:10050A0004FDA380F622C0E07406141200C1D0E0F4
:10051A00C000A83C1200C6D000C000A83B1200C60A
:10052A00D000C000A83A1200C6D000C000A83912F4
:10053A0000C6D000C000A8381200C6D0002279DE5A
:10054A0078A6D8FED9FA438780759852759B0075AC
:10055A009AF4759B1E2290057BE538540F93F55546
:10056A00E538C4540F93F556E4E539540F93F5541E
:10057A0022C0F9A4B0999282F8809075817F75E6BD
:10058A000075E700D2AF1200887544007545007502
:10059A00460075470075500075530012054812044D
:1005AA00DF12042E1207580209A0C0E074011412C7
:1005BA0000C1D0E0C083C082C0E09003FD1200B445
:1005CA00D0E0D082D0831207491207D212073E1216
:1005DA00075E120560120951C3E544953F50CB12DC
:1005EA000758C2CA7400F550D2CAC0E07401141286
:1005FA0000C1D0E0C083C082C0E09003EC1200B416
:10060A00D0E0D082D08312074912073E12075E1249
:10061A0005601206C71206D712071280CDC0E07411
:10062A0001141200C1D0E0C083C082C0E09003FD73
:10063A001200B4D0E0D082D08312073E12075EC304
:10064A00E546953F50D7120758120951C2CA74009D
:10065A00F550D2CA12074912073E12075E12056008
:10066A00C0E07401141200C1D0E0C083C082C0E0AF
:10067A009003DB1200B4D0E0D082D0831206F112CC
:10068A00070112072880CDC0E07401141200C1D0FE
:10069A00E0C083C082C0E090040E1200B4D0E0D063
:1006AA0082D08312073E12075E1205601206BC0250
:1006BA0006B9C3743C953F500302069122E54424CF
:1006CA0005F530C3E530953F50140206E9E544C309
:1006DA009405F530C3E53F953050030206ED22122A
:1006EA0007582212075B22E5462405F530C3E53098
:1006FA00953F50EA0206E9E546C39405F530C3E59D
:10070A003F953050D90206EDC3E5459550500E127B
:10071A00075BC2CA7400F550D2CA02062722C3E593
:10072A00479550500E120758C2CA7400F550D2CAE3
:10073A00020691221207F0E530F53F220205B420A5
:10074A0083053083FD8001221207580209A0C2B630
:10075A0022D2B622C0E0740F141200BFD0E074DFB8
:10076A0012007EC0E07410141200BFD0E07443126D
:10077A00007E855038C0E07401141200BFD0E0C07A
:10078A0000A8391200C6D000C0E07403141200BFDA
:10079A00D0E0C000A8381200C6D000C0E0740C1423
:1007AA001200BFD0E0853F301200FAC000A838120C
:1007BA0000C6D000C0E0740A141200BFD0E0C00026
:1007CA00A8391200C6D00022C0E0C0D0C374609518
:1007DA0050500E7450953F50028006120758020975
:1007EA00A0D0D0D0E022C0E0C0D0C2A078011204CC
:1007FA00E478801204E4E95403F53E78551204E4DF
:10080A00893DD2A0C0027AFA120039D002C0027A17
:10081A00FA120039D00212082CE530F53FD0D0D0B8
:10082A00E022E475300075310075320075330075C9
:10083A003400753500753600753700E53DF530E54D
:10084A003EF53175349A75350175360075370012E3
:10085A0002747534FF753503753600753700120357
:10086A0001753411753501753600753700853052BA
:10087A001201E01200FA22C0E0C0D0C2A078011230
:10088A0004E478901204E4E95403F53E785512041E
:10089A00E4893DD2A0C0027AFA120039D002C0021D
:1008AA007AFA120039D002753000753100753200BB
:1008BA00753300E53DF530E53EF5311200FA1208D0
:1008CA00D4E530F540D0D0D0E022C0E0C0D0853D9C
:1008DA0030853E3175320075330075341D7535002B
:1008EA0075360075370012027475346675350875E9
:1008FA0036007537001201BF7534647535007536D8
:10090A00007537001203011200FAE530D0D0D0E0AA
:10091A0022C000A8391200E4D000C000A838120092
:10092A00E4D000740D1204FD740A1204FD22D2A44C
:10093A00B2A4C0027AFA120039D002C0027AFA12BC
:10094A000039D002C2A422D2A4B2A4C0027AFA12F6
:10095A000039D002C0027AFA120039D002C2A422A7
:10096A00E4B4060122D2A4B2A4C0027A6412003905
:10097A00D002C2A40480EA22C0E07406141200C1A4
:10098A00D0E0C000A8391200C6D000C0E074091433
:10099A001200C1D0E0227401120083C0027A32121E
:1009AA000039D002C0E07401141200C1D0E0C08343
:1009BA00C082C0E09003771200B4D0E0D082D08326
:1009CA00C0E07401141200BFD0E0C083C082C0E04E
:1009DA009003831200B4D0E0D082D083C0027A326E
:1009EA00120039D0022084063084FD020A48C0026F
:1009FA007A32120039D0022085063085FD020A4B70
:100A0A00C0027A32120039D0022086063086FD02F0
:100A1A000A51C0027A32120039D00220832630836A
:100A2A00FD020A2E7401120083C0027A32120039C2
:100A3A00D00212075B1204467550000205B4020A7E
:100A4A0054020B580209AE020C5C7401120083C0F6
:100A5A00027A32120039D002C0E07401141200C1C5
:100A6A00D0E0C083C082C0E09003AB1200B4D0E0F3
:100A7A00D082D083C0E07401141200BFD0E0854454
:100A8A00301200FAC000A8391200C6D000C0E074C3
:100A9A0003141200BFD0E0C000A8381200C6D0006C
:100AAA0020840FC0027A32120039D0022084030255
:100ABA000AE320850FC0027A32120039D00220855B
:100ACA0003020B0720860FC0027A32120039D002C5
:100ADA002086030209A0020AAA85443075310075EE
:100AEA003200753300753401753500753600753777
:100AFA00001201BF853044120B2B020AAA8544302A
:100B0A00753100753200753300753401753500751D
:100B1A0036007537001201E0853044120B2B020AA9
:100B2A00AA8544301200FAC0E07401141200BFD042
:100B3A00E0C000A8391200C6D000C0E07403141245
:100B4A0000BFD0E0C000A8381200C6D0002274014D
:100B5A00120083C0027A32120039D002C0E0740156
:100B6A00141200C1D0E0C083C082C0E09003B61264
:100B7A0000B4D0E0D082D083C0E07401141200BF68
:100B8A00D0E08545301200FAC000A8391200C6D05C
:100B9A0000C0E07403141200BFD0E0C000A83812ED
:100BAA0000C6D00020840FC0027A32120039D00267
:100BBA00208403020BE720850FC0027A3212003923
:100BCA00D002208503020C0B20860FC0027A321253
:100BDA000039D0022086030209A0020BAE854530F7
:100BEA00753100753200753300753401753500753D
:100BFA0036007537001201BF853045120C2F020BE3
:100C0A00AE85453075310075320075330075340193
:100C1A007535007536007537001201E085304512CA
:100C2A000C2F020BAE8545301200FAC0E074011495
:100C3A001200BFD0E0C000A8391200C6D000C0E040
:100C4A007403141200BFD0E0C000A8381200C6D046
:100C5A0000227401120083C0027A32120039D002D3
:100C6A00C0E07401141200C1D0E0C083C082C0E0A9
:100C7A0090038F1200B4D0E0D082D083C0E0740118
:100C8A00141200BFD0E0C083C082C0E090039D125E
:100C9A0000B4D0E0D082D083C0027A32120039D0B8
:100CAA00022084063084FD020CEDC0027A32120062
:100CBA0039D0022085063085FD020CF0C0027A3256
:100CCA00120039D0022086063086FD020CF6C002D8
:100CDA007A32120039D00220830F3083FD020A2EA5
:100CEA000205B4020CF9020E06020C6A0209A0748B
:100CFA0001120083C0027A32120039D002C0E074B5
:100D0A0001141200C1D0E0C083C082C0E09003C1C8
:100D1A001200B4D0E0D082D083C0E0740114120073
:100D2A00BFD0E08546301200FAC000A8391200C6CA
:100D3A00D000C0E07403141200BFD0E0C000A8388D
:100D4A001200C6D00020840FC0027A32120039D0B5
:100D5A0002208403020DE220850FC0027A321200BB
:100D6A0039D002208503020D8820860FC0027A320C
:100D7A00120039D002208603020C5C020D4F854610
:100D8A0030753100753200753300753401753500E0
:100D9A007536007537001201E0853046120DAC0237
:100DAA000D4F8546307531007532007533001200DB
:100DBA00FAC0E07401141200BFD0E0C000A83912D2
:100DCA0000C6D000C0E07403141200BFD0E0C00017
:100DDA00A8381200C6D00022854630753100753217
:100DEA0000753300753401753500753600753700A6
:100DFA001201BF853046120DAC020D4F740112006C
:100E0A0083C0027A32120039D002C0E0740114128F
:100E1A0000C1D0E0C083C082C0E09003CE1200B40B
:100E2A00D0E0D082D083C0E07401141200BFD0E0B9
:100E3A008547301200FAC000A8391200C6D000C097
:100E4A00E07403141200BFD0E0C000A8381200C634
:100E5A00D00020840FC0027A32120039D0022084D6
:100E6A0003020E9520850FC0027A32120039D00291
:100E7A00208503020EEF20860FC0027A3212003953
:100E8A00D002208603020C5C020E5C854730753165
:100E9A0000753200753300753401753500753600FA
:100EAA007537001201BF853047120EB9020E5C85F4
:100EBA0047307531007532007533001200FAC0E010
:100ECA007401141200BFD0E0C000A8391200C6D0C5
:100EDA0000C0E07403141200BFD0E0C000A83812AA
:100EEA0000C6D0002285473075310075320075334F
:100EFA00007534017535007536007537001201E04A
:090F0A00853047120EB9020E5C9D
:00000001FF
