:030000000205CD29
:0100030032CA
:03000B0002048C60
:0100130032BA
:01001B0032B2
:0100230032AA
:03002B000204A824
:10002E00C00078B10000D8FCD00022C000C0017919
:10003E002D78A6D8FED9FADAF6D001D00022D293C6
:10004E0012002EC29322A2E792B5A2E692B4A2E5C6
:10005E0092B3A2E492B212004C12002EA2E392B519
:10006E00A2E292B4A2E192B3A2E092B212004C22AA
:10007E00D291020054C291020054C293C2927433C0
:10008E0012008374331200837432120083742812A8
:10009E000083740C1200837401120083C0027A0272
:1000AE00120039D00222E493600612007EA380F67D
:1000BE002244404480020083C0E0E8C4540F443020
:1000CE0012007EE8540F443012007ED0E0223099A8
:1000DE00FDC299F59922C0E0E8C4540F44301200D5
:1000EE00DCE8540F44301200DCD0E022888C88F417
:1000FE0022888C88F222C000C001C0037B59793E51
:10010E00787BD8FED9FADBF6DAF2D003D001D00034
:01011E0022BE
:10011F00C0E0C0D0C000C001C002E4F538F539F529
:10012F003AF53BF53C7A20E533A2E779047830E6DF
:10013F0033F608D9FA79057838E636D4F608D9F9BE
:10014F00DAE5D002D001D000D0D0D0E022C0E0C09C
:10015F00D0C000C001C002E4F538F539F53AF53BDF
:10016F00F53C7A20E533A2E779047830E633F608D8
:10017F00D9FA79057838C0D0E6243320E70224D0A5
:10018F0020E30224FDD0D033F608D9EADAD6D00224
:10019F00D001D000D0D0D0E022C0E0C0D0C000C08D
:1001AF0001C0027A207905C3783CE613C0D030E74E
:1001BF000224D030E30224FDF618D0D0D9EC790414
:1001CF007833E613F618D9FADADBD002D001D00073
:1001DF00D0D0D0E022C0E0C0D0E5302534F530E5F6
:1001EF00313535F531E5323536F532E5333537F51D
:1001FF0033D0D0D0E022C0E0C0D0C3E5309534F585
:10020F0030E5319535F531E5329536F532E53395F3
:10021F0037F533D0D0D0E022C0E0C0D0C3E5309561
:10022F0034E5319535E5329536E53395379202D081
:10023F00D0D0E022C0E0C0D0C3E5349530E535958D
:10024F0031E5369532E53795339202D0D0D0E022A2
:10025F00C0E0C0D0C202C3E53495307014E53595C7
:10026F0031700EE53695327008E53795337002D24E
:10027F0002D0D0D0E02212025F20020302024322FA
:10028F0012025F20020302022722C0E0C0F0C0D09A
:10029F00C000C001C002C003E5308534F0A4F8A946
:1002AF00F0E5318534F0A429F9E435F0FAE530852D
:1002BF0035F0A429F9E5F03AFAE433FBE532853459
:1002CF00F0A42AFAE5F03BFBE5318535F0A42AFAD4
:1002DF00E5F03BFBE5308536F0A42AFAE5F03BFB71
:1002EF00E5338534F0A42BFBE5328535F0A42BFBE9
:1002FF00E5318536F0A42BFBE5308537F0A42BFBD9
:10030F008B338A3289318830D003D002D001D000AC
:10031F00D0D0D0F0D0E022C0E0C0D0C000C001C02B
:10032F0002C003C0047C20E4F8F9FAFBC3E53033C4
:10033F00F530E53133F531E53233F532E53333F569
:10034F0033E833F8E933F9EA33FAEB33FBC3E895D3
:10035F0034E99535EA9536EB95374013E89534F83F
:10036F00E99535F9EA9536FAEB9537FB433001DC21
:10037F00BBD004D003D002D001D000D0D0D0E02227
:10038F0054656D703A78782E78782A4300312E5361
:10039F006F616B2054656D7000322E536F616B204F
:1003AF0054696D6500332E5265666C6F7720546506
:1003BF006D7000342E5265666C6F772054696D65D1
:1003CF0000536F616B2054656D703A00536F616B12
:1003DF002054696D653A005265666C6F77205465DD
:1003EF006D703A005265666C6F772054696D653A8F
:1003FF00005265666C6F77205374617465202020FE
:10040F002000536F616B205374617465202020208E
:10041F0020200054656D702E20496E6372656173E4
:10042F00652020004F76656E20697320636F6F6CB7
:10043F00696E672E00315375727072697365203261
:10044F004D6172696F002020203353746172205701
:10045F0061727320202000202020202020202020C7
:10046F00202020202000E58954F04401F589758C67
:10047F00EA758AE875F4EA75F2E8D2A922B2B732C2
:10048F0075C80075CDA975CC9A75CBA975CA9AE4B4
:10049F00F54DF54ED2ADD2CA22C2CFB2B6C0E0C032
:1004AF00D0D281D282D280E557B4000BE554120529
:1004BF0008C28105578020B4010BE555120508C20B
:1004CF008205578012B4020CE556120508C28075DA
:1004DF0057008003755700054DE54D7002054EE539
:1004EF004DB4F410E54EB4010BE4F54DF54EE55067
:1004FF002401F550D0D0D0E032A2E092A4A2E19234
:10050F00A5A2E292A6A2E392A7A2E492C5A2E592C7
:10051F00C4A2E69287A2E722D2A2C2A322C0E079A8
:10052F00007A08E833F892A1D2A3A2A2E933F9C264
:10053F00A3DAF0D0E0223099FDC299F59922E49325
:10054F006006120545A380F622C0E074061412005F
:10055F00C1D0E0C000A83C1200C6D000C000A83B2C
:10056F001200C6D000C000A83A1200C6D000C000CA
:10057F00A8391200C6D000C000A8381200C6D0009B
:10058F002279DE78A6D8FED9FA43878075985275FE
:10059F009B00759AF4759B1E229005C3E538540F86
:1005AF0093F555E538C4540F93F556E4E539540FD8
:1005BF0093F55422C0F9A4B0999282F88090758176
:1005CF007F75E60075E700758E11D2AF1200887542
:1005DF00440075450075460075470075500075530A
:1005EF00001205901205271204751207AF020A7543
:1005FF00C0E07401141200C1D0E0C083C082C0E01B
:10060F009004221200B4D0E0D082D0831207A0123F
:10061F00087D12079512082F1205A8C3E544953FD0
:10062F0050CE1209FF1207AFC2CA7400F550D2CADA
:10063F00C0E07401141200C1D0E0C083C082C0E0DA
:10064F009004111200B4D0E0D082D0831207A01210
:10065F0007951207B51205A81207181207281207D7
:10066F006380CD1207A0C0E07401141200C1D0E066
:10067F00C083C082C0E09004221200B4D0E0D082C8
:10068F00D08312079512082F1205A8C3E546953F90
:10069F0050D11207AF1209FFC2CA7400F550D2CA67
:1006AF001207A01207951207B51205A8C0E0740132
:1006BF00141200C1D0E0C083C082C0E090040012C9
:1006CF0000B4D0E0D082D083120742120752120733
:1006DF007C80CDC0E07401141200C1D0E0C083C093
:1006EF0082C0E09004331200B4D0E0D082D08312E5
:1006FF00079512082F1205A8C3743C953F500302AB
:10070F0006E212128D020A7522E5442401F530C368
:10071F00E530953F501402073AE544C39401F53094
:10072F00C3E53F9530500302073E221207AF221256
:10073F0007B222E5462401F530C3E530953F50EA74
:10074F0002073AE546C39401F530C3E53F953050B3
:10075F00D902073EC3E545955050111207B2C2CAE0
:10076F007400F550D2CA1209FF02067222C3E54780
:10077F00955050111207AFC2CA7400F550D2CA1269
:10078F000A190206E22212092CE530F53F22020572
:10079F00FF2083053083FD8001221207AF020A7507
:1007AF00C29022D2902285503012011FC0E07401F6
:1007BF00141200BFD0E0C000A8391200C6D000C08C
:1007CF00E07403141200BFD0E0C000A8381200C6B6
:1007DF00D000853F3012011FC0E0740A141200BF11
:1007EF00D0E0C000A8391200C6D000C0E0740C14CD
:1007FF001200BFD0E0C000A8381200C6D000120906
:10080F00C6C0E0740F141200BFD0E074DF12007E78
:10081F00C0E07410141200BFD0E0744312007E22A7
:10082F00853F3012011FC0E0740A141200BFD0E0E0
:10083F00C000A8391200C6D000C0E0740C1412001A
:10084F00BFD0E0C000A8381200C6D0001209C6C041
:10085F00E0740F141200BFD0E074DF12007EC0E00E
:10086F007410141200BFD0E0744312007E22C0E057
:10087F00C0D0C374609550500E7432953F500280B3
:10088F00061207AF020A75D0D0D0E022C0E0C0D068
:10089F00C2A0780112052C788012052CE95403F5BB
:1008AF003E785512052C893DD2A0C0027AFA12006B
:1008BF0039D002C0027AFA120039D0021208D7E5F5
:1008CF0030F53FD0D0D0E022E4753000753100759F
:1008DF003200753300753400753500753600753785
:1008EF0000E53DF530E53EF53175349A7535017506
:1008FF0036007537001202997534FF75350375365A
:10090F0000753700120326753411753501753600E1
:10091F0075370085305212020512011F22C0E0C048
:10092F00D0C2A0780112052C789012052CE954033F
:10093F00F53E785512052C893DD2A0C0027AFA12E5
:10094F000039D002C0027AFA120039D00275300095
:10095F00753100753200753300E53DF530E53EF534
:10096F003112011F12097FE530F540D0D0D0E022BF
:10097F00C0E0C0D0853D30853E3175320075330003
:10098F0075341D753500753600753700120299756F
:10099F0034667535087536007537001201E4753405
:1009AF006475350075360075370012032612011F66
:1009BF00E530D0D0D0E022C000A8391200E4D0003A
:1009CF00C000A8381200E4D000740D120545740A57
:1009DF00120545221211D1D28CB28CC0027AFA12B2
:1009EF000039D002C0027AFA120039D002C28C222A
:1009FF001211D1D28CC0027AFA120039D002C00281
:100A0F007AFA120039D002C28C221211D1D28CC0C4
:100A1F00027AFA120039D002C0027AFA120039D0E3
:100A2F0002C0027AFA120039D002C0027AFA12001A
:100A3F0039D002C0027AFA120039D002C0027AFA13
:100A4F00120039D002C28C22C0E07406141200C109
:100A5F00D0E0C000A8391200C6D000C0E07409145D
:100A6F001200C1D0E0227401120083C0027A321248
:100A7F000039D002C0E07401141200C1D0E0C0836D
:100A8F00C082C0E090039C1200B4D0E0D082D0832B
:100A9F00C0E07401141200BFD0E0C083C082C0E078
:100AAF009003A81200B4D0E0D082D083C0027A3273
:100ABF00120039D0022084063084FD020B29C002B7
:100ACF007A32120039D0022085063085FD020B2CB8
:100ADF00C0027A32120039D0022086063086FD021B
:100AEF000B32C0027A32120039D0022083323083A7
:100AFF00FD020B037401120083C0027A3212003917
:100B0F00D0021207B212048F75500012128DC0025C
:100B1F007A32120039D0020205FF020B35020C396E
:100B2F00020A83020D3D7401120083C0027A321251
:100B3F000039D002C0E07401141200C1D0E0C083AC
:100B4F00C082C0E09003D01200B4D0E0D082D08336
:100B5F00C0E07401141200BFD0E085443012011FB1
:100B6F00C000A8391200C6D000C0E07403141200F0
:100B7F00BFD0E0C000A8381200C6D00020840FC03C
:100B8F00027A32120039D002208403020BC420856E
:100B9F000FC0027A32120039D002208503020BE80F
:100BAF0020860FC0027A32120039D002208603024B
:100BBF000A75020B8B854430753100753200753321
:100BCF00007534017535007536007537001201E474
:100BDF00853044120C0C020B8B8544307531007537
:100BEF003200753300753401753500753600753771
:100BFF0000120205853044120C0C020B8B85443019
:100C0F0012011FC0E07401141200BFD0E0C000A891
:100C1F00391200C6D000C0E07403141200BFD0E038
:100C2F00C000A8381200C6D000227401120083C081
:100C3F00027A32120039D002C0E07401141200C1DE
:100C4F00D0E0C083C082C0E09003DB1200B4D0E0DC
:100C5F00D082D083C0E07401141200BFD0E085456C
:100C6F003012011FC000A8391200C6D000C0E074B6
:100C7F0003141200BFD0E0C000A8381200C6D00085
:100C8F0020840FC0027A32120039D002208403026E
:100C9F000CC820850FC0027A32120039D00220858D
:100CAF0003020CEC20860FC0027A32120039D002F8
:100CBF00208603020A75020C8F8545307531007549
:100CCF003200753300753401753500753600753790
:100CDF00001201E4853045120D10020C8F8545304E
:100CEF007531007532007533007534017535007537
:100CFF003600753700120205853045120D10020CB3
:100D0F008F85453012011FC0E07401141200BFD04F
:100D1F00E0C000A8391200C6D000C0E0740314125E
:100D2F0000BFD0E0C000A8381200C6D00022740166
:100D3F00120083C0027A32120039D002C0E074016F
:100D4F00141200C1D0E0C083C082C0E09003B4127F
:100D5F0000B4D0E0D082D083C0E07401141200BF81
:100D6F00D0E0C083C082C0E09003C21200B4D0E0D4
:100D7F00D082D083C0027A32120039D0022084068A
:100D8F003084FD020DCEC0027A32120039D002201B
:100D9F0085063085FD020DD1C0027A32120039D09E
:100DAF00022086063086FD020DD7C0027A3212006D
:100DBF0039D00220830F3083FD020B030205FF029F
:100DCF000DDA020EE7020D4B020A75740112008351
:100DDF00C0027A32120039D002C0E074011412003E
:100DEF00C1D0E0C083C082C0E09003E61200B4D04F
:100DFF00E0D082D083C0E07401141200BFD0E08530
:100E0F00463012011FC000A8391200C6D000C0E042
:100E1F007403141200BFD0E0C000A8381200C6D06F
:100E2F000020840FC0027A32120039D002208403CE
:100E3F00020EC320850FC0027A32120039D0022071
:100E4F008503020E6920860FC0027A32120039D054
:100E5F0002208603020D3D020E30854630753100AB
:100E6F0075320075330075340175350075360075B0
:100E7F003700120205853046120E8D020E30854660
:100E8F003075310075320075330012011FC0E074E8
:100E9F0001141200BFD0E0C000A8391200C6D00064
:100EAF00C0E07403141200BFD0E0C000A8381200D5
:100EBF00C6D000228546307531007532007533007B
:100ECF007534017535007536007537001201E485EC
:100EDF003046120E8D020E307401120083C0027A5A
:100EEF0032120039D002C0E07401141200C1D0E0F8
:100EFF00C083C082C0E09003F31200B4D0E0D08270
:100F0F00D083C0E07401141200BFD0E085473012C7
:100F1F00011FC000A8391200C6D000C0E07403142E
:100F2F001200BFD0E0C000A8381200C6D000208445
:100F3F000FC0027A32120039D002208403020F76DA
:100F4F0020850FC0027A32120039D00220850302A9
:100F5F000FD020860FC0027A32120039D0022086BD
:100F6F0003020D3D020F3D8547307531007532008C
:100F7F0075330075340175350075360075370012FD
:100F8F0001E4853047120F9A020F3D8547307531C6
:100F9F000075320075330012011FC0E07401141286
:100FAF0000BFD0E0C000A8391200C6D000C0E07466
:100FBF0003141200BFD0E0C000A8381200C6D00042
:100FCF002285473075310075320075330075340155
:100FDF0075350075360075370012020585304712DA
:100FEF000F9A020F3D7401120083C0027A32120071
:100FFF0039D002C0E07401141200C1D0E0C083C028
:10100F0082C0E09004441200B4D0E0D082D083C0FC
:10101F00E07401141200BFD0E0C083C082C0E09022
:10102F0004551200B4D0E0D082D0832084063084DF
:10103F00FD0211E42085063085FD02128D2086EB1E
:10104F003086FD0212F7C000785B1200FAD000C0A4
:10105F0000781E1200FFD00022C000786D1200FA37
:10106F00D000C00078101200FFD00022C000787DA1
:10107F001200FAD000C00078181200FFD00022C072
:10108F000078841200FAD000C00078381200FFD028
:10109F000022C00078911200FAD000C00078CC1264
:1010AF0000FFD00022C000789D1200FAD000C000CF
:1010BF0078D21200FFD00022C00078A81200FAD018
:1010CF0000C000788D1200FFD00022C00078AD1252
:1010DF0000FAD000C00078671200FFD00022C000D5
:1010EF0078B61200FAD000C00078681200FFD00066
:1010FF0022C00078BE1200FAD000C0007873120030
:10110F00FFD00022C00078C21200FAD000C00078D1
:10111F001C1200FFD00022C00078C81200FAD000C5
:10112F00C00078E61200FFD00022C00078CE120077
:10113F00FAD000C00078E91200FFD00022C000787A
:10114F00D41200FAD000C00078471200FFD000225E
:10115F00C000788B1200FAD000C000783F1200FF59
:10116F00D00022C00078971200FAD000C00078E8B3
:10117F001200FFD00022C00078A31200FAD000C0E6
:10118F0000784C1200FFD00022C00078B21200FA93
:10119F00D000C00078061200FFD00022C00078B245
:1011AF001200FAD000C00078061200FFD00022C053
:1011BF000078BA1200FAD000C000788C1200FFD06D
:1011CF000022C00078EA1200FAD000C00078E812BE
:1011DF0000FFD0002212117212136A12118512131E
:1011EF006A1211AB12136A12118512136A121113BC
:1011FF001213981211131213981211BE121398C0D2
:10120F00027A50120039D00212117212136A12119F
:10121F008512136A1210DA12136A12117212136AFC
:10122F001211BE1213981211BE1213981211AB1293
:10123F001398C0027A50120039D002121172121391
:10124F006A12118512136A1211AB12136A121185E9
:10125F0012136A1211AB1213811211BE12139812CC
:10126F0010DA1213981211721213811211721213D3
:10127F006A1211BE1213981211AB12139822121187
:10128F0000121381121100121381C0027A50120042
:10129F0039D002121100121398C0027A501200397D
:1012AF00D0021210DA121381121100121381C00230
:1012BF007A50120039D002121126121398C0027AF6
:1012CF0050120039D002C0027A50120039D002C039
:1012DF00027A50120039D002C0027A50120039D06F
:1012EF00021210A11213AF221210551213AF1210C7
:1012FF00A11213AF12108E12138112107B121398BA
:10130F001210681213981210DA1213AF1210A112E2
:10131F001381C0027A50120039D00212108E1213AC
:10132F008112107B1213811210681213811210DABE
:10133F001213AF1210A1121381C0027A501200398A
:10134F00D00212108E12138112107B121381121001
:10135F008E1213811210681213AF22D28CC0027A30
:10136F0001120104D002C28CC0027A50120039D08F
:10137F000222D28CC0027A02120104D002C28CC0A7
:10138F00027A50120039D00222D28CC0027A031294
:10139F000104D002C28CC0027A50120039D002224E
:1013AF00D28CC0027A04120104D002C28CC0027A1D
:1013BF0050120039D00222D28CC0027A08120104D6
:1013CF00D002C28CC0027A50120039D00222D28CC5
:1013DF00C0027A12120104D002C28CC0027A5012DB
:0513EF000039D00222CC
:00000001FF
