:030000000204FFF8
:0100030032CA
:03000B00020439B3
:0100130032BA
:01001B0032B2
:0100230032AA
:03002B0002045379
:10002E00C00078B10000D8FCD00022C000C0017919
:10003E002D78A6D8FED9FADAF6D001D00022D293C6
:10004E0012002EC29322A2E792B5A2E692B4A2E5C6
:10005E0092B3A2E492B212004C12002EA2E392B519
:10006E00A2E292B4A2E192B3A2E092B212004C22AA
:10007E00D291020054C291020054C293C2927433C0
:10008E0012008374331200837432120083742812A8
:10009E000083740C1200837401120083C0027A0272
:1000AE00120039D00222E493600612007EA380F67D
:1000BE002244404480020083C0E0E8C4540F443020
:1000CE0012007EE8540F443012007ED0E0223099A8
:1000DE00FDC299F59922C0E0E8C4540F44301200D5
:0C00EE00DCE8540F44301200DCD0E022AB
:1000FA00C0E0C0D0C000C001C002E4F538F539F54F
:10010A003AF53BF53C7A20E533A2E779047830E604
:10011A0033F608D9FA79057838E636D4F608D9F9E3
:10012A00DAE5D002D001D000D0D0D0E022C0E0C0C1
:10013A00D0C000C001C002E4F538F539F53AF53B04
:10014A00F53C7A20E533A2E779047830E633F608FD
:10015A00D9FA79057838C0D0E6243320E70224D0CA
:10016A0020E30224FDD0D033F608D9EADAD6D00249
:10017A00D001D000D0D0D0E022C0E0C0D0C000C0B2
:10018A0001C0027A207905C3783CE613C0D030E773
:10019A000224D030E30224FDF618D0D0D9EC790439
:1001AA007833E613F618D9FADADBD002D001D00098
:1001BA00D0D0D0E022C0E0C0D0E5302534F530E51B
:1001CA00313535F531E5323536F532E5333537F542
:1001DA0033D0D0D0E022C0E0C0D0C3E5309534F5AA
:1001EA0030E5319535F531E5329536F532E5339519
:1001FA0037F533D0D0D0E022C0E0C0D0C3E5309587
:10020A0034E5319535E5329536E53395379202D0A6
:10021A00D0D0E022C0E0C0D0C3E5349530E53595B2
:10022A0031E5369532E53795339202D0D0D0E022C7
:10023A00C0E0C0D0C202C3E53495307014E53595EC
:10024A0031700EE53695327008E53795337002D273
:10025A0002D0D0D0E02212023A20020302021E2269
:10026A0012023A20020302020222C0E0C0F0C0D009
:10027A00C000C001C002C003E5308534F0A4F8A96B
:10028A00F0E5318534F0A429F9E435F0FAE5308552
:10029A0035F0A429F9E5F03AFAE433FBE53285347E
:1002AA00F0A42AFAE5F03BFBE5318535F0A42AFAF9
:1002BA00E5F03BFBE5308536F0A42AFAE5F03BFB96
:1002CA00E5338534F0A42BFBE5328535F0A42BFB0E
:1002DA00E5318536F0A42BFBE5308537F0A42BFBFE
:1002EA008B338A3289318830D003D002D001D000D2
:1002FA00D0D0D0F0D0E022C0E0C0D0C000C001C051
:10030A0002C003C0047C20E4F8F9FAFBC3E53033E9
:10031A00F530E53133F531E53233F532E53333F58E
:10032A0033E833F8E933F9EA33FAEB33FBC3E895F8
:10033A0034E99535EA9536EB95374013E89534F864
:10034A00E99535F9EA9536FAEB9537FB433001DC46
:10035A00BBD004D003D002D001D000D0D0D0E0224C
:10036A0054656D703A78782E78782A4300312E5386
:10037A006F616B2054656D7000322E536F616B2074
:10038A0054696D6500332E5265666C6F772054652B
:10039A006D7000342E5265666C6F772054696D65F6
:1003AA0000536F616B2054656D703A00536F616B37
:1003BA002054696D653A005265666C6F7720546502
:1003CA006D703A005265666C6F772054696D653AB4
:1003DA00005265666C6F7720537461746500536FC1
:1003EA00616B2053746174650054656D702E2049E9
:1003FA006E637265617365004F76656E206973205E
:10040A00636F6F6C696E672E0020202020202020E9
:10041A002020202020202000E58954F04401F5897D
:10042A00758CEA758AE875F4EA75F2E8D2A922327F
:10043A0075C80075CDA975CC9A75CBA975CA9AE409
:10044A00F54DF54ED2ADD2CA22C2CFB2B6C0E0C087
:10045A00D0054DE54D7002054EE54DB4E811E54E67
:10046A00B4030CE4F54DF54EE5502401D4F550D013
:10047A00D0D0E032D2A2C2A322C0E079007A08E842
:10048A0033F892A1D2A3A2A2E933F9C2A3DAF0D037
:10049A00E0223099FDC299F59922E4936006120090
:1004AA00DCA380F622C0E07406141200C1D0E0C0BA
:1004BA0000A83C1200C6D000C000A83B1200C6D05B
:1004CA0000C000A83A1200C6D000C000A839120025
:1004DA00C6D000C000A8381200C6D0002279DE7843
:1004EA00A6D8FED9FA438780759852759B00759AEB
:1004FA00F4759B1E2275817F75E60075E700D2AF01
:10050A0012008875440075450075460075470075E8
:10051A0050007553001204E712047E1204221206D8
:10052A00C402090CC0E07401141200C1D0E0C083F7
:10053A00C082C0E09003F31200B4D0E0D082D0832E
:10054A001206B512073E1206AA1206CA1208BDC33F
:10055A00E544953F50CE1206C4C2CA7400F550D283
:10056A00CA8000C0E07401141200C1D0E0C083C088
:10057A0082C0E09003E81200B4D0E0D082D08312A7
:10058A0006B51206AA1206CA12063712064712063C
:10059A008280D0C0E07401141200C1D0E0C083C0D0
:1005AA0082C0E09003F31200B4D0E0D082D083126C
:1005BA0006AA1206CAC3E546953F50D71206C412C8
:1005CA0008BDC2CA7400F550D2CA1206B51206AAEC
:1005DA001206CAC0E07401141200C1D0E0C083C080
:1005EA0082C0E09003DB1200B4D0E0D082D0831244
:1005FA00066112067112069680D0C0E074011412C8
:10060A0000C1D0E0C083C082C0E09004021200B4EE
:10061A00D0E0D082D0831206AA1206CA12062C0291
:10062A000629C3743C953F500302060422E544247C
:10063A0005F530C3E530953F5014020659E544C329
:10064A009405F530C3E53F9530500302065D22124A
:10065A0006C4221206C722E5462405F530C3E53052
:10066A00953F50EA020659E546C39405F530C3E5BD
:10067A003F953050D902065DE550B5450E1206C7C2
:10068A00C2CA7400F550D2CA02059D22E550B54788
:10069A000E1206C4C2CA7400F550D2CA0206042257
:1006AA0012075CE530F53F2202052E2084053084CE
:1006BA00FD8001221206C402090CC28122D28122C3
:1006CA00855038C0E07401141200BFD0E0C000A801
:1006DA00391200C6D000C0E07403141200BFD0E083
:1006EA00C000A8381200C6D000C0E0740C14120072
:1006FA00BFD0E0853F301200FAC000A8381200C609
:10070A00D000C0E0740A141200BFD0E0C000A839BB
:10071A001200C6D000C0E0740F141200BFD0E074FB
:10072A00DF12007EC0E07410141200BFD0E07443E0
:10073A0012007E22C0E0C0D0C374609550500E747F
:10074A0050953F500280061206C402090CD0D0D040
:10075A00E022C0E0C0D0C2A07801120483788012DF
:10076A000483E95403F53E7855120483893DD2A0E7
:10077A00C0027AFA120039D002C0027AFA1200399B
:10078A00D002120798E530F53FD0D0D0E022E475C8
:10079A0030007531007532007533007534007535D7
:1007AA0000753600753700E53DF530E53EF53175E3
:1007BA00349A75350175360075370012027475342E
:1007CA00FF7535037536007537001203017534114C
:1007DA007535017536007537008530521201E01201
:1007EA0000FA22C0E0C0D0C2A07801120483789037
:1007FA00120483E95403F53E7855120483893DD2E5
:10080A00A0C0027AFA120039D002C0027AFA1200A3
:10081A0039D002753000753100753200753300E544
:10082A003DF530E53EF5311200FA120840E530F5A3
:10083A0040D0D0D0E022C0E0C0D0853D30853E31E6
:10084A0075320075330075341D75350075360075BF
:10085A0037001202747534667535087536007537B7
:10086A00001201BF7534647535007536007537009E
:10087A001203011200FAE530D0D0D0E022C000A85D
:10088A00391200E4D000C000A8381200E4D0007485
:10089A000D1200DC740A1200DC22D2A4B2A4C00237
:1008AA007AFA120039D002C0027AFA120039D0025A
:1008BA00C2A422D2A4B2A4C0027AFA120039D00287
:1008CA00C0027AFA120039D002C2A422E4B40601A4
:1008DA0022D2A4B2A4C0027A64120039D002C2A4FD
:1008EA000480EA22C0E07406141200C1D0E0C000FD
:1008FA00A8391200C6D000C0E07409141200C1D091
:10090A00E0227401120083C0027A32120039D00246
:10091A00C0E07401141200C1D0E0C083C082C0E0FC
:10092A009003771200B4D0E0D082D083C0E0740183
:10093A00141200BFD0E0C083C082C0E090038312CB
:10094A0000B4D0E0D082D083C0027A32120039D00B
:10095A00022083063083FD0209B4C0027A321200F3
:10096A0039D0022082063082FD0209B7C0027A32EB
:10097A00120039D0022087063087FD0209BDC00265
:10098A007A32120039D0022084263084FD02099A74
:10099A007401120083C0027A32120039D0021206A0
:1009AA00C712043A75500002052E0209C0020ABE97
:1009BA0002091A020BBC7401120083C0027A3212B5
:1009CA000039D002C0E07401141200C1D0E0C08323
:1009DA00C082C0E09003AB1200B4D0E0D082D083D2
:1009EA00C0E07401141200BFD0E0C000A845120094
:1009FA00C6D000C0E07403141200BFD0E0C000A843
:100A0A00441200C6D00020830FC0027A3212003985
:100A1A00D002208303020A4920820FC0027A3212CE
:100A2A000039D002208203020A6D20870FC0027AA1
:100A3A0032120039D00220870302090C020A1085FB
:100A4A0044307531007532007533007534017535DF
:100A5A00007536007537001201BF853044120A91BD
:100A6A00020A1085443075310075320075330075FD
:100A7A0034017535007536007537001201E085308E
:100A8A0044120A91020A108544301200FAC0E07436
:100A9A0001141200BFD0E0C000A8391200C6D0006D
:100AAA00C0E07403141200BFD0E0C000A8381200DE
:100ABA00C6D000227401120083C0027A32120039B1
:100ACA00D002C0E07401141200C1D0E0C083C08219
:100ADA00C0E09003B61200B4D0E0D082D083C0E068
:100AEA007401141200BFD0E0C000A8461200C6D09C
:100AFA0000C0E07403141200BFD0E0C000A8451281
:100B0A0000C6D00020830FC0027A32120039D00208
:100B1A00208303020B4720820FC0027A3212003967
:100B2A00D002208203020B6B20870FC0027A321296
:100B3A000039D00220870302090C020B0E854530CA
:100B4A0075310075320075330075340175350075DD
:100B5A0036007537001201BF853045120B8F020B24
:100B6A000E854530753100753200753300753401D4
:100B7A007535007536007537001201E0853045126B
:100B8A000B8F020B0E8545301200FAC0E074011477
:100B9A001200BFD0E0C000A8391200C6D000C0E0E1
:100BAA007403141200BFD0E0C000A8381200C6D0E7
:100BBA0000227401120083C0027A32120039D00274
:100BCA00C0E07401141200C1D0E0C083C082C0E04A
:100BDA0090038F1200B4D0E0D082D083C0E07401B9
:100BEA00141200BFD0E0C083C082C0E090039D12FF
:100BFA0000B4D0E0D082D083C0027A32120039D059
:100C0A00022083063083FD020C4DC0027A321200A4
:100C1A0039D0022082063082FD020C50C0027A329C
:100C2A00120039D0022087063087FD020C56C00216
:100C3A007A32120039D00220840F3084FD02099AD8
:100C4A0002052E020C59020D60020BCA02090C742D
:100C5A0001120083C0027A32120039D002C0E07455
:100C6A0001141200C1D0E0C083C082C0E09003C169
:100C7A001200B4D0E0D082D083C0E0740114120014
:100C8A00BFD0E0C000A8471200C6D000C0E074037D
:100C9A00141200BFD0E0C000A8461200C6D000203F
:100CAA00830FC0027A32120039D002208303020D68
:100CBA003C20820FC0027A32120039D0022082030D
:100CCA00020CE220870FC0027A32120039D00220C9
:100CDA008703020BBC020CA98546307531007532B8
:100CEA0000753300753401753500753600753700A7
:100CFA001201E0853046120D06020CA985463075B0
:100D0A0031007532007533001200FAC0E074011424
:100D1A001200BFD0E0C000A8391200C6D000C0E05F
:100D2A007403141200BFD0E0C000A8381200C6D065
:100D3A0000228546307531007532007533007534EE
:100D4A00017535007536007537001201BF853046CA
:100D5A00120D06020CA97401120083C0027A321223
:100D6A000039D002C0E07401141200C1D0E0C0837F
:100D7A00C082C0E09003CE1200B4D0E0D082D0830B
:100D8A00C0E07401141200BFD0E0C000A8481200ED
:100D9A00C6D000C0E07403141200BFD0E0C000A89F
:100DAA00471200C6D00020830FC0027A32120039DF
:100DBA00D002208303020DE920820FC0027A321288
:100DCA000039D002208203020E4320870FC0027A24
:100DDA0032120039D002208703020BBC020DB08503
:100DEA004730753100753200753300753401753539
:100DFA00007536007537001201BF853047120E0D97
:100E0A00020DB08547307531007532007533001216
:100E1A0000FAC0E07401141200BFD0E0C000A83983
:100E2A001200C6D000C0E07403141200BFD0E0C0A4
:100E3A0000A8381200C6D0002285473075310075E7
:100E4A003200753300753401753500753600753713
:0D0E5A00001201E0853047120E0D020DB0B0
:00000001FF
