:030000000205CD29
:0100030032CA
:03000B0002048C60
:0100130032BA
:01001B0032B2
:0100230032AA
:03002B000204A824
:10002E00C00078B10000D8FCD00022C000C0017919
:10003E002D78A6D8FED9FADAF6D001D00022D293C6
:10004E0012002EC29322A2E792B5A2E692B4A2E5C6
:10005E0092B3A2E492B212004C12002EA2E392B519
:10006E00A2E292B4A2E192B3A2E092B212004C22AA
:10007E00D291020054C291020054C293C2927433C0
:10008E0012008374331200837432120083742812A8
:10009E000083740C1200837401120083C0027A0272
:1000AE00120039D00222E493600612007EA380F67D
:1000BE002244404480020083C0E0E8C4540F443020
:1000CE0012007EE8540F443012007ED0E0223099A8
:1000DE00FDC299F59922C0E0E8C4540F44301200D5
:1000EE00DCE8540F44301200DCD0E022888C88F417
:1000FE0022888C88F222C000C001C0037B59793E51
:10010E00787BD8FED9FADBF6DAF2D003D001D00034
:01011E0022BE
:10011F00C0E0C0D0C000C001C002E4F538F539F529
:10012F003AF53BF53C7A20E533A2E779047830E6DF
:10013F0033F608D9FA79057838E636D4F608D9F9BE
:10014F00DAE5D002D001D000D0D0D0E022C0E0C09C
:10015F00D0C000C001C002E4F538F539F53AF53BDF
:10016F00F53C7A20E533A2E779047830E633F608D8
:10017F00D9FA79057838C0D0E6243320E70224D0A5
:10018F0020E30224FDD0D033F608D9EADAD6D00224
:10019F00D001D000D0D0D0E022C0E0C0D0C000C08D
:1001AF0001C0027A207905C3783CE613C0D030E74E
:1001BF000224D030E30224FDF618D0D0D9EC790414
:1001CF007833E613F618D9FADADBD002D001D00073
:1001DF00D0D0D0E022C0E0C0D0E5302534F530E5F6
:1001EF00313535F531E5323536F532E5333537F51D
:1001FF0033D0D0D0E022C0E0C0D0C3E5309534F585
:10020F0030E5319535F531E5329536F532E53395F3
:10021F0037F533D0D0D0E022C0E0C0D0C3E5309561
:10022F0034E5319535E5329536E53395379202D081
:10023F00D0D0E022C0E0C0D0C3E5349530E535958D
:10024F0031E5369532E53795339202D0D0D0E022A2
:10025F00C0E0C0D0C202C3E53495307014E53595C7
:10026F0031700EE53695327008E53795337002D24E
:10027F0002D0D0D0E02212025F20020302024322FA
:10028F0012025F20020302022722C0E0C0F0C0D09A
:10029F00C000C001C002C003E5308534F0A4F8A946
:1002AF00F0E5318534F0A429F9E435F0FAE530852D
:1002BF0035F0A429F9E5F03AFAE433FBE532853459
:1002CF00F0A42AFAE5F03BFBE5318535F0A42AFAD4
:1002DF00E5F03BFBE5308536F0A42AFAE5F03BFB71
:1002EF00E5338534F0A42BFBE5328535F0A42BFBE9
:1002FF00E5318536F0A42BFBE5308537F0A42BFBD9
:10030F008B338A3289318830D003D002D001D000AC
:10031F00D0D0D0F0D0E022C0E0C0D0C000C001C02B
:10032F0002C003C0047C20E4F8F9FAFBC3E53033C4
:10033F00F530E53133F531E53233F532E53333F569
:10034F0033E833F8E933F9EA33FAEB33FBC3E895D3
:10035F0034E99535EA9536EB95374013E89534F83F
:10036F00E99535F9EA9536FAEB9537FB433001DC21
:10037F00BBD004D003D002D001D000D0D0D0E02227
:10038F0054656D703A78782E78782A4300312E5361
:10039F006F616B2054656D7000322E536F616B204F
:1003AF0054696D6500332E5265666C6F7720546506
:1003BF006D7000342E5265666C6F772054696D65D1
:1003CF0000536F616B2054656D703A00536F616B12
:1003DF002054696D653A005265666C6F77205465DD
:1003EF006D703A005265666C6F772054696D653A8F
:1003FF00005265666C6F77205374617465202020FE
:10040F002000536F616B205374617465202020208E
:10041F0020200054656D702E20496E6372656173E4
:10042F00652020004F76656E20697320636F6F6CB7
:10043F00696E672E00315375727072697365203261
:10044F004D6172696F002020203353746172205701
:10045F0061727320202000202020202020202020C7
:10046F00202020202000E58954F04401F589758C67
:10047F00EA758AE875F4EA75F2E8D2A922B2B732C2
:10048F0075C80075CDA975CC9A75CBA975CA9AE4B4
:10049F00F54DF54ED2ADD2CA22C2CFB2B6C0E0C032
:1004AF00D0D281D282D280E557B4000BE554120529
:1004BF0008C28105578020B4010BE555120508C20B
:1004CF008205578012B4020CE556120508C28075DA
:1004DF0057008003755700054DE54D7002054EE539
:1004EF004DB4F410E54EB4010BE4F54DF54EE55067
:1004FF002401F550D0D0D0E032A2E092A4A2E19234
:10050F00A5A2E292A6A2E392A7A2E492C5A2E592C7
:10051F00C4A2E69287A2E722D2A2C2A322C0E079A8
:10052F00007A08E833F892A1D2A3A2A2E933F9C264
:10053F00A3DAF0D0E0223099FDC299F59922E49325
:10054F006006120545A380F622C0E074061412005F
:10055F00C1D0E0C000A83C1200C6D000C000A83B2C
:10056F001200C6D000C000A83A1200C6D000C000CA
:10057F00A8391200C6D000C000A8381200C6D0009B
:10058F002279DE78A6D8FED9FA43878075985275FE
:10059F009B00759AF4759B1E229005C3E538540F86
:1005AF0093F555E538C4540F93F556E4E539540FD8
:1005BF0093F55422C0F9A4B0999282F88090758176
:1005CF007F75E60075E700758E11D2AF1200887542
:1005DF00440075450075460075470075500075530A
:1005EF00001205901205271204751207B2020A278E
:1005FF00C0E07401141200C1D0E0C083C082C0E01B
:10060F009004221200B4D0E0D082D0831207A3123C
:10061F00082F1207981207B81205A8C3E544953F93
:10062F0050CE1209B11207B2C2CA7400F550D2CA25
:10063F00C0E07401141200C1D0E0C083C082C0E0DA
:10064F009004111200B4D0E0D082D0831207A3120D
:10065F0007981207B81205A812071B12072B1207CB
:10066F006680CD1207A3C0E07401141200C1D0E060
:10067F00C083C082C0E09004221200B4D0E0D082C8
:10068F00D0831207981207B81205A8C3E546953F05
:10069F0050D11207B21209B1C2CA7400F550D2CAB2
:1006AF001207A31207981207B81205A8C0E0740129
:1006BF00141200C1D0E0C083C082C0E090040012C9
:1006CF0000B4D0E0D082D08312074512075512072D
:1006DF007F80CDC0E07401141200C1D0E0C083C090
:1006EF0082C0E09004331200B4D0E0D082D08312E5
:1006FF0007981207B81205A812071012123F020A24
:10070F0027C3743C953F50030206E222E5442401BF
:10071F00F530C3E530953F501402073DE544C394CF
:10072F0001F530C3E53F9530500302074122120710
:10073F00B2221207B522E5462401F530C3E5309504
:10074F003F50EA02073DE546C39401F530C3E53F4C
:10075F00953050D9020741C3E54595505011120706
:10076F00B5C2CA7400F550D2CA1209B1020672227C
:10077F00C3E547955050111207B2C2CA7400F55025
:10078F00D2CA1209CB0206E2221208DEE530F53F8B
:10079F00220205FF2083053083FD8001221207B25C
:1007AF00020A27C29022D2902285503012011FC018
:1007BF00E07401141200BFD0E0C000A8391200C6C7
:1007CF00D000C0E07403141200BFD0E0C000A838FE
:1007DF001200C6D000853F3012011FC0E0740A140A
:1007EF001200BFD0E0C000A8391200C6D000C0E090
:1007FF00740C141200BFD0E0C000A8381200C6D08D
:10080F0000C0E0740F141200BFD0E074DF12007E3E
:10081F00C0E07410141200BFD0E0744312007E22A7
:10082F00C0E0C0D0C374609550500E7432953F50E5
:10083F000280061207B2020A27D0D0D0E022C0E011
:10084F00C0D0C2A0780112052C788012052CE95473
:10085F0003F53E785512052C893DD2A0C0027AFAD5
:10086F00120039D002C0027AFA120039D0021208EF
:10087F0089E530F53FD0D0D0E022E47530007531F6
:10088F00007532007533007534007535007536000C
:10089F00753700E53DF530E53EF53175349A753520
:1008AF00017536007537001202997534FF753503DF
:1008BF0075360075370012032675341175350175BD
:1008CF00360075370085305212020512011F22C003
:1008DF00E0C0D0C2A0780112052C789012052CE947
:1008EF005403F53E785512052C893DD2A0C0027AEB
:1008FF00FA120039D002C0027AFA120039D002750A
:10090F003000753100753200753300E53DF530E587
:10091F003EF53112011F120931E530F540D0D0D02C
:10092F00E022C0E0C0D0853D30853E317532007584
:10093F00330075341D75350075360075370012029A
:10094F00997534667535087536007537001201E4F0
:10095F00753464753500753600753700120326122D
:10096F00011FE530D0D0D0E022C000A8391200E43A
:10097F00D000C000A8381200E4D000740D12054555
:10098F00740A12054522121183D28CB28CC0027ADE
:10099F00FA120039D002C0027AFA120039D002C21C
:1009AF008C22121183D28CC0027AFA120039D00233
:1009BF00C0027AFA120039D002C28C22121183D2ED
:1009CF008CC0027AFA120039D002C0027AFA1200F1
:1009DF0039D002C0027AFA120039D002C0027AFA74
:1009EF00120039D002C0027AFA120039D002C002C6
:1009FF007AFA120039D002C28C22C0E074061412A7
:100A0F0000C1D0E0C000A8391200C6D000C0E07409
:100A1F0009141200C1D0E0227401120083C0027ABF
:100A2F0032120039D002C0E07401141200C1D0E0BC
:100A3F00C083C082C0E090039C1200B4D0E0D0828B
:100A4F00D083C0E07401141200BFD0E0C083C08215
:100A5F00C0E09003A81200B4D0E0D082D083C002CF
:100A6F007A32120039D0022084063084FD020ADB6C
:100A7F00C0027A32120039D0022085063085FD027D
:100A8F000ADEC0027A32120039D002208606308682
:100A9F00FD020AE4C0027A32120039D002208332FA
:100AAF003083FD020AB57401120083C0027A32123C
:100ABF000039D0021207B512048F75500012123F81
:100ACF00C0027A32120039D0020205FF020AE70291
:100ADF000BEB020A35020CEF7401120083C0027A8D
:100AEF0032120039D002C0E07401141200C1D0E0FC
:100AFF00C083C082C0E09003D01200B4D0E0D08297
:100B0F00D083C0E07401141200BFD0E085443012CE
:100B1F00011FC000A8391200C6D000C0E074031432
:100B2F001200BFD0E0C000A8381200C6D000208449
:100B3F000FC0027A32120039D002208403020B76E2
:100B4F0020850FC0027A32120039D00220850302AD
:100B5F000B9A20860FC0027A32120039D0022086FB
:100B6F0003020A27020B3D854430753100753200B0
:100B7F007533007534017535007536007537001201
:100B8F0001E4853044120BBE020B3D8544307531B4
:100B9F0000753200753300753401753500753600F8
:100BAF00753700120205853044120BBE020B3D85CE
:100BBF00443012011FC0E07401141200BFD0E0C016
:100BCF0000A8391200C6D000C0E07403141200BF91
:100BDF00D0E0C000A8381200C6D000227401120065
:100BEF0083C0027A32120039D002C0E074011412AD
:100BFF0000C1D0E0C083C082C0E09003DB1200B41C
:100C0F00D0E0D082D083C0E07401141200BFD0E0D6
:100C1F0085453012011FC000A8391200C6D000C090
:100C2F00E07403141200BFD0E0C000A8381200C651
:100C3F00D00020840FC0027A32120039D0022084F3
:100C4F0003020C7A20850FC0027A32120039D002CB
:100C5F00208503020C9E20860FC0027A32120039C3
:100C6F00D002208603020A27020C418545307531D8
:100C7F000075320075330075340175350075360017
:100C8F007537001201E4853045120CC2020C418504
:100C9F004530753100753200753300753401753587
:100CAF0000753600753700120205853045120CC2EB
:100CBF00020C4185453012011FC0E074011412006F
:100CCF00BFD0E0C000A8391200C6D000C0E0740346
:100CDF00141200BFD0E0C000A8381200C6D0002206
:100CEF007401120083C0027A32120039D002C0E0C0
:100CFF007401141200C1D0E0C083C082C0E0900321
:100D0F00B41200B4D0E0D082D083C0E074011412CA
:100D1F0000BFD0E0C083C082C0E09003C21200B415
:100D2F00D0E0D082D083C0027A32120039D00220B4
:100D3F0084063084FD020D80C0027A32120039D051
:100D4F00022085063085FD020D83C0027A32120023
:100D5F0039D0022086063086FD020D89C0027A3214
:100D6F00120039D00220830F3083FD020AB502052D
:100D7F00FF020D8C020E99020CFD020A277401125C
:100D8F000083C0027A32120039D002C0E07401141D
:100D9F001200C1D0E0C083C082C0E09003E6120011
:100DAF00B4D0E0D082D083C0E07401141200BFD061
:100DBF00E085463012011FC000A8391200C6D000CE
:100DCF00C0E07403141200BFD0E0C000A8381200B6
:100DDF00C6D00020840FC0027A32120039D0022010
:100DEF008403020E7520850FC0027A32120039D0AB
:100DFF0002208503020E1B20860FC0027A321200DA
:100E0F0039D002208603020CEF020DE285463075C1
:100E1F003100753200753300753401753500753644
:100E2F0000753700120205853046120E3F020DE2A3
:100E3F0085463075310075320075330012011FC0C1
:100E4F00E07401141200BFD0E0C000A8391200C630
:100E5F00D000C0E07403141200BFD0E0C000A83867
:100E6F001200C6D0002285463075310075320075EC
:100E7F003300753401753500753600753700120172
:100E8F00E4853046120E3F020DE27401120083C05A
:100E9F00027A32120039D002C0E07401141200C17C
:100EAF00D0E0C083C082C0E09003F31200B4D0E062
:100EBF00D082D083C0E07401141200BFD0E0854708
:100ECF003012011FC000A8391200C6D000C0E07454
:100EDF0003141200BFD0E0C000A8381200C6D00023
:100EEF0020840FC0027A32120039D002208403020C
:100EFF000F2820850FC0027A32120039D0022085C8
:100F0F0003020F8220860FC0027A32120039D002FC
:100F1F00208603020CEF020EEF8547307531007506
:100F2F00320075330075340175350075360075372D
:100F3F00001201E4853047120F4C020EEF85473047
:100F4F0075310075320075330012011FC0E0740156
:100F5F00141200BFD0E0C000A8391200C6D000C0E4
:100F6F00E07403141200BFD0E0C000A8381200C60E
:100F7F00D00022854730753100753200753300750A
:100F8F00340175350075360075370012020585304E
:100F9F0047120F4C020EEF7401120083C0027A3217
:100FAF00120039D002C0E07401141200C1D0E0C0A9
:100FBF0083C082C0E09004441200B4D0E0D082D04D
:100FCF0083C0E07401141200BFD0E0C083C082C0A0
:100FDF00E09004551200B4D0E0D082D08320840674
:100FEF003084FD0211962085063085FD02123F20C8
:100FFF0086EB3086FD0212A9C000785B1200FAD092
:10100F0000C000781E1200FFD00022C000786D12C1
:10101F0000FAD000C00078101200FFD00022C000EC
:10102F00787D1200FAD000C00078181200FFD000AF
:10103F0022C00078841200FAD000C0007838120065
:10104F00FFD00022C00078911200FAD000C00078C3
:10105F00CC1200FFD00022C000789D1200FAD00001
:10106F00C00078D21200FFD00022C00078A8120072
:10107F00FAD000C000788D1200FFD00022C0007897
:10108F00AD1200FAD000C00078671200FFD0002226
:10109F00C00078B61200FAD000C00078681200FFC6
:1010AF00D00022C00078BE1200FAD000C0007873C2
:1010BF001200FFD00022C00078C21200FAD000C088
:1010CF0000781C1200FFD00022C00078C81200FA6E
:1010DF00D000C00078E61200FFD00022C00078CE0A
:1010EF001200FAD000C00078E91200FFD00022C031
:1010FF000078D41200FAD000C00078471200FFD059
:10110F000022C000788B1200FAD000C000783F1286
:10111F0000FFD00022C00078971200FAD000C00064
:10112F0078E81200FFD00022C00078A31200FAD096
:10113F0000C000784C1200FFD00022C00078B2121D
:10114F0000FAD000C00078061200FFD00022C000C5
:10115F0078B21200FAD000C00078061200FFD0005B
:10116F0022C00078BA1200FAD000C000788C1200AA
:10117F00FFD00022C00078EA1200FAD000C0007839
:10118F00E81200FFD0002212112412131C12113783
:10119F0012131C12115D12131C12113712131C1291
:1011AF0010C512134A1210C512134A1211701213DE
:1011BF004AC0027A50120039D00212112412131CA5
:1011CF0012113712131C12108C12131C121124122D
:1011DF00131C12117012134A12117012134A1211AA
:1011EF005D12134AC0027A50120039D00212112434
:1011FF0012131C12113712131C12115D12131C1231
:10120F00113712131C12115D1213331211701213B6
:10121F004A12108C12134A12112412133312112472
:10122F0012131C12117012134A12115D12134A225B
:10123F001210B21213331210B2121333C0027A50BB
:10124F00120039D0021210B212134AC0027A501291
:10125F000039D00212108C1213331210B212133342
:10126F00C0027A50120039D0021210D812134AC09D
:10127F00027A50120039D002C0027A50120039D0CF
:10128F0002C0027A50120039D002C0027A50120006
:10129F0039D0021210531213612212100712136168
:1012AF0012105312136112104012133312102D1219
:1012BF00134A12101A12134A12108C1213611210C1
:1012CF0053121333C0027A50120039D00212104059
:1012DF0012133312102D12133312101A121333125A
:1012EF00108C121361121053121333C0027A501262
:1012FF000039D00212104012133312102D12133373
:10130F0012104012133312101A12136122D28CC012
:10131F00027A01120104D002C28CC0027A5012006C
:10132F0039D00222D28CC0027A02120104D002C23A
:10133F008CC0027A50120039D00222D28CC0027AAD
:10134F0003120104D002C28CC0027A50120039D0AD
:10135F000222D28CC0027A04120104D002C28CC0C5
:10136F00027A50120039D00222D28CC0027A0812AF
:10137F000104D002C28CC0027A50120039D002226E
:10138F00D28CC0027A12120104D002C28CC0027A2F
:07139F0050120039D00222B8
:00000001FF
